{
	"Documents/BC/NAZ-SOLIDITY/twitter.sol": {
		"twitter": {
			"abi": [
				{
					"inputs": [],
					"stateMutability": "nonpayable",
					"type": "constructor"
				},
				{
					"inputs": [
						{
							"internalType": "string",
							"name": "_tweet",
							"type": "string"
						}
					],
					"name": "CreateTweet",
					"outputs": [],
					"stateMutability": "nonpayable",
					"type": "function"
				},
				{
					"inputs": [],
					"name": "Max_tweet_length",
					"outputs": [
						{
							"internalType": "uint56",
							"name": "",
							"type": "uint56"
						}
					],
					"stateMutability": "view",
					"type": "function"
				},
				{
					"inputs": [
						{
							"internalType": "uint16",
							"name": "newTweetlength",
							"type": "uint16"
						}
					],
					"name": "changeTweetlength",
					"outputs": [],
					"stateMutability": "nonpayable",
					"type": "function"
				},
				{
					"inputs": [
						{
							"internalType": "address",
							"name": "_owner",
							"type": "address"
						}
					],
					"name": "getAllTweets",
					"outputs": [
						{
							"components": [
								{
									"internalType": "uint256",
									"name": "id",
									"type": "uint256"
								},
								{
									"internalType": "address",
									"name": "author",
									"type": "address"
								},
								{
									"internalType": "string",
									"name": "content",
									"type": "string"
								},
								{
									"internalType": "uint256",
									"name": "timestamp",
									"type": "uint256"
								},
								{
									"internalType": "uint256",
									"name": "likes",
									"type": "uint256"
								}
							],
							"internalType": "struct twitter.Tweet[]",
							"name": "",
							"type": "tuple[]"
						}
					],
					"stateMutability": "view",
					"type": "function"
				},
				{
					"inputs": [
						{
							"internalType": "uint256",
							"name": "i",
							"type": "uint256"
						}
					],
					"name": "getTweet",
					"outputs": [
						{
							"components": [
								{
									"internalType": "uint256",
									"name": "id",
									"type": "uint256"
								},
								{
									"internalType": "address",
									"name": "author",
									"type": "address"
								},
								{
									"internalType": "string",
									"name": "content",
									"type": "string"
								},
								{
									"internalType": "uint256",
									"name": "timestamp",
									"type": "uint256"
								},
								{
									"internalType": "uint256",
									"name": "likes",
									"type": "uint256"
								}
							],
							"internalType": "struct twitter.Tweet",
							"name": "",
							"type": "tuple"
						}
					],
					"stateMutability": "view",
					"type": "function"
				},
				{
					"inputs": [
						{
							"internalType": "address",
							"name": "author",
							"type": "address"
						},
						{
							"internalType": "uint256",
							"name": "id",
							"type": "uint256"
						}
					],
					"name": "likeTweet",
					"outputs": [],
					"stateMutability": "nonpayable",
					"type": "function"
				},
				{
					"inputs": [],
					"name": "owner",
					"outputs": [
						{
							"internalType": "address",
							"name": "",
							"type": "address"
						}
					],
					"stateMutability": "view",
					"type": "function"
				},
				{
					"inputs": [
						{
							"internalType": "address",
							"name": "",
							"type": "address"
						},
						{
							"internalType": "uint256",
							"name": "",
							"type": "uint256"
						}
					],
					"name": "tweets",
					"outputs": [
						{
							"internalType": "uint256",
							"name": "id",
							"type": "uint256"
						},
						{
							"internalType": "address",
							"name": "author",
							"type": "address"
						},
						{
							"internalType": "string",
							"name": "content",
							"type": "string"
						},
						{
							"internalType": "uint256",
							"name": "timestamp",
							"type": "uint256"
						},
						{
							"internalType": "uint256",
							"name": "likes",
							"type": "uint256"
						}
					],
					"stateMutability": "view",
					"type": "function"
				},
				{
					"inputs": [
						{
							"internalType": "address",
							"name": "author",
							"type": "address"
						},
						{
							"internalType": "uint256",
							"name": "id",
							"type": "uint256"
						}
					],
					"name": "unlikeTweet",
					"outputs": [],
					"stateMutability": "nonpayable",
					"type": "function"
				}
			],
			"devdoc": {
				"kind": "dev",
				"methods": {},
				"version": 1
			},
			"evm": {
				"assembly": "    /* \"Documents/BC/NAZ-SOLIDITY/twitter.sol\":170:1807  contract twitter{... */\n  mstore(0x40, 0x80)\n    /* \"Documents/BC/NAZ-SOLIDITY/twitter.sol\":415:418  280 */\n  0x0118\n    /* \"Documents/BC/NAZ-SOLIDITY/twitter.sol\":382:418  uint56 public Max_tweet_length = 280 */\n  0x01\n  exp(0x0100, 0x00)\n  dup2\n  sload\n  dup2\n  0xffffffffffffff\n  mul\n  not\n  and\n  swap1\n  dup4\n  0xffffffffffffff\n  and\n  mul\n  or\n  swap1\n  sstore\n  pop\n    /* \"Documents/BC/NAZ-SOLIDITY/twitter.sol\":451:500  constructor(){... */\n  callvalue\n  dup1\n  iszero\n  tag_1\n  jumpi\n  0x00\n  dup1\n  revert\ntag_1:\n  pop\n    /* \"Documents/BC/NAZ-SOLIDITY/twitter.sol\":482:492  msg.sender */\n  caller\n    /* \"Documents/BC/NAZ-SOLIDITY/twitter.sol\":474:479  owner */\n  0x01\n  0x07\n    /* \"Documents/BC/NAZ-SOLIDITY/twitter.sol\":474:492  owner = msg.sender */\n  0x0100\n  exp\n  dup2\n  sload\n  dup2\n  0xffffffffffffffffffffffffffffffffffffffff\n  mul\n  not\n  and\n  swap1\n  dup4\n  0xffffffffffffffffffffffffffffffffffffffff\n  and\n  mul\n  or\n  swap1\n  sstore\n  pop\n    /* \"Documents/BC/NAZ-SOLIDITY/twitter.sol\":170:1807  contract twitter{... */\n  dataSize(sub_0)\n  dup1\n  dataOffset(sub_0)\n  0x00\n  codecopy\n  0x00\n  return\nstop\n\nsub_0: assembly {\n        /* \"Documents/BC/NAZ-SOLIDITY/twitter.sol\":170:1807  contract twitter{... */\n      mstore(0x40, 0x80)\n      callvalue\n      dup1\n      iszero\n      tag_1\n      jumpi\n      0x00\n      dup1\n      revert\n    tag_1:\n      pop\n      jumpi(tag_2, lt(calldatasize, 0x04))\n      shr(0xe0, calldataload(0x00))\n      dup1\n      0x63378216\n      gt\n      tag_12\n      jumpi\n      dup1\n      0x63378216\n      eq\n      tag_7\n      jumpi\n      dup1\n      0x8da5cb5b\n      eq\n      tag_8\n      jumpi\n      dup1\n      0x97213d07\n      eq\n      tag_9\n      jumpi\n      dup1\n      0xa1afcc46\n      eq\n      tag_10\n      jumpi\n      dup1\n      0xc3ad5ecb\n      eq\n      tag_11\n      jumpi\n      jump(tag_2)\n    tag_12:\n      dup1\n      0x05a1b4a9\n      eq\n      tag_3\n      jumpi\n      dup1\n      0x12e7ee1c\n      eq\n      tag_4\n      jumpi\n      dup1\n      0x2a1f1d06\n      eq\n      tag_5\n      jumpi\n      dup1\n      0x3d9b569f\n      eq\n      tag_6\n      jumpi\n    tag_2:\n      0x00\n      dup1\n      revert\n        /* \"Documents/BC/NAZ-SOLIDITY/twitter.sol\":335:375  mapping(address=> Tweet[]) public tweets */\n    tag_3:\n      tag_13\n      0x04\n      dup1\n      calldatasize\n      sub\n      dup2\n      add\n      swap1\n      tag_14\n      swap2\n      swap1\n      tag_15\n      jump\t// in\n    tag_14:\n      tag_16\n      jump\t// in\n    tag_13:\n      mload(0x40)\n      tag_17\n      swap6\n      swap5\n      swap4\n      swap3\n      swap2\n      swap1\n      tag_18\n      jump\t// in\n    tag_17:\n      mload(0x40)\n      dup1\n      swap2\n      sub\n      swap1\n      return\n        /* \"Documents/BC/NAZ-SOLIDITY/twitter.sol\":1267:1380  function getAllTweets(address _owner) public view returns (Tweet[] memory ){... */\n    tag_4:\n      tag_19\n      0x04\n      dup1\n      calldatasize\n      sub\n      dup2\n      add\n      swap1\n      tag_20\n      swap2\n      swap1\n      tag_21\n      jump\t// in\n    tag_20:\n      tag_22\n      jump\t// in\n    tag_19:\n      mload(0x40)\n      tag_23\n      swap2\n      swap1\n      tag_24\n      jump\t// in\n    tag_23:\n      mload(0x40)\n      dup1\n      swap2\n      sub\n      swap1\n      return\n        /* \"Documents/BC/NAZ-SOLIDITY/twitter.sol\":741:1150  function CreateTweet(string memory _tweet) public {... */\n    tag_5:\n      tag_25\n      0x04\n      dup1\n      calldatasize\n      sub\n      dup2\n      add\n      swap1\n      tag_26\n      swap2\n      swap1\n      tag_27\n      jump\t// in\n    tag_26:\n      tag_28\n      jump\t// in\n    tag_25:\n      stop\n        /* \"Documents/BC/NAZ-SOLIDITY/twitter.sol\":1551:1805  function unlikeTweet(address author, uint256 id) external {... */\n    tag_6:\n      tag_29\n      0x04\n      dup1\n      calldatasize\n      sub\n      dup2\n      add\n      swap1\n      tag_30\n      swap2\n      swap1\n      tag_15\n      jump\t// in\n    tag_30:\n      tag_31\n      jump\t// in\n    tag_29:\n      stop\n        /* \"Documents/BC/NAZ-SOLIDITY/twitter.sol\":1386:1545  function likeTweet(address author, uint256 id) external {... */\n    tag_7:\n      tag_32\n      0x04\n      dup1\n      calldatasize\n      sub\n      dup2\n      add\n      swap1\n      tag_33\n      swap2\n      swap1\n      tag_15\n      jump\t// in\n    tag_33:\n      tag_34\n      jump\t// in\n    tag_32:\n      stop\n        /* \"Documents/BC/NAZ-SOLIDITY/twitter.sol\":424:444  address public owner */\n    tag_8:\n      tag_35\n      tag_36\n      jump\t// in\n    tag_35:\n      mload(0x40)\n      tag_37\n      swap2\n      swap1\n      tag_38\n      jump\t// in\n    tag_37:\n      mload(0x40)\n      dup1\n      swap2\n      sub\n      swap1\n      return\n        /* \"Documents/BC/NAZ-SOLIDITY/twitter.sol\":613:729  function changeTweetlength(uint16 newTweetlength) public onlyOwner{... */\n    tag_9:\n      tag_39\n      0x04\n      dup1\n      calldatasize\n      sub\n      dup2\n      add\n      swap1\n      tag_40\n      swap2\n      swap1\n      tag_41\n      jump\t// in\n    tag_40:\n      tag_42\n      jump\t// in\n    tag_39:\n      stop\n        /* \"Documents/BC/NAZ-SOLIDITY/twitter.sol\":382:418  uint56 public Max_tweet_length = 280 */\n    tag_10:\n      tag_43\n      tag_44\n      jump\t// in\n    tag_43:\n      mload(0x40)\n      tag_45\n      swap2\n      swap1\n      tag_46\n      jump\t// in\n    tag_45:\n      mload(0x40)\n      dup1\n      swap2\n      sub\n      swap1\n      return\n        /* \"Documents/BC/NAZ-SOLIDITY/twitter.sol\":1156:1261  function getTweet(uint i) public view returns (Tweet memory){... */\n    tag_11:\n      tag_47\n      0x04\n      dup1\n      calldatasize\n      sub\n      dup2\n      add\n      swap1\n      tag_48\n      swap2\n      swap1\n      tag_49\n      jump\t// in\n    tag_48:\n      tag_50\n      jump\t// in\n    tag_47:\n      mload(0x40)\n      tag_51\n      swap2\n      swap1\n      tag_52\n      jump\t// in\n    tag_51:\n      mload(0x40)\n      dup1\n      swap2\n      sub\n      swap1\n      return\n        /* \"Documents/BC/NAZ-SOLIDITY/twitter.sol\":335:375  mapping(address=> Tweet[]) public tweets */\n    tag_16:\n      mstore(0x20, 0x00)\n      dup2\n      0x00\n      mstore\n      keccak256(0x00, 0x40)\n      dup2\n      dup2\n      sload\n      dup2\n      lt\n      tag_53\n      jumpi\n      0x00\n      dup1\n      revert\n    tag_53:\n      swap1\n      0x00\n      mstore\n      keccak256(0x00, 0x20)\n      swap1\n      0x05\n      mul\n      add\n      0x00\n      swap2\n      pop\n      swap2\n      pop\n      pop\n      dup1\n      0x00\n      add\n      sload\n      swap1\n      dup1\n      0x01\n      add\n      0x00\n      swap1\n      sload\n      swap1\n      0x0100\n      exp\n      swap1\n      div\n      0xffffffffffffffffffffffffffffffffffffffff\n      and\n      swap1\n      dup1\n      0x02\n      add\n      dup1\n      sload\n      tag_55\n      swap1\n      tag_56\n      jump\t// in\n    tag_55:\n      dup1\n      0x1f\n      add\n      0x20\n      dup1\n      swap2\n      div\n      mul\n      0x20\n      add\n      mload(0x40)\n      swap1\n      dup2\n      add\n      0x40\n      mstore\n      dup1\n      swap3\n      swap2\n      swap1\n      dup2\n      dup2\n      mstore\n      0x20\n      add\n      dup3\n      dup1\n      sload\n      tag_57\n      swap1\n      tag_56\n      jump\t// in\n    tag_57:\n      dup1\n      iszero\n      tag_58\n      jumpi\n      dup1\n      0x1f\n      lt\n      tag_59\n      jumpi\n      0x0100\n      dup1\n      dup4\n      sload\n      div\n      mul\n      dup4\n      mstore\n      swap2\n      0x20\n      add\n      swap2\n      jump(tag_58)\n    tag_59:\n      dup3\n      add\n      swap2\n      swap1\n      0x00\n      mstore\n      keccak256(0x00, 0x20)\n      swap1\n    tag_60:\n      dup2\n      sload\n      dup2\n      mstore\n      swap1\n      0x01\n      add\n      swap1\n      0x20\n      add\n      dup1\n      dup4\n      gt\n      tag_60\n      jumpi\n      dup3\n      swap1\n      sub\n      0x1f\n      and\n      dup3\n      add\n      swap2\n    tag_58:\n      pop\n      pop\n      pop\n      pop\n      pop\n      swap1\n      dup1\n      0x03\n      add\n      sload\n      swap1\n      dup1\n      0x04\n      add\n      sload\n      swap1\n      pop\n      dup6\n      jump\t// out\n        /* \"Documents/BC/NAZ-SOLIDITY/twitter.sol\":1267:1380  function getAllTweets(address _owner) public view returns (Tweet[] memory ){... */\n    tag_22:\n        /* \"Documents/BC/NAZ-SOLIDITY/twitter.sol\":1326:1340  Tweet[] memory */\n      0x60\n        /* \"Documents/BC/NAZ-SOLIDITY/twitter.sol\":1359:1365  tweets */\n      0x00\n        /* \"Documents/BC/NAZ-SOLIDITY/twitter.sol\":1359:1373  tweets[_owner] */\n      dup1\n        /* \"Documents/BC/NAZ-SOLIDITY/twitter.sol\":1366:1372  _owner */\n      dup4\n        /* \"Documents/BC/NAZ-SOLIDITY/twitter.sol\":1359:1373  tweets[_owner] */\n      0xffffffffffffffffffffffffffffffffffffffff\n      and\n      0xffffffffffffffffffffffffffffffffffffffff\n      and\n      dup2\n      mstore\n      0x20\n      add\n      swap1\n      dup2\n      mstore\n      0x20\n      add\n      0x00\n      keccak256\n        /* \"Documents/BC/NAZ-SOLIDITY/twitter.sol\":1352:1373  return tweets[_owner] */\n      dup1\n      sload\n      dup1\n      0x20\n      mul\n      0x20\n      add\n      mload(0x40)\n      swap1\n      dup2\n      add\n      0x40\n      mstore\n      dup1\n      swap3\n      swap2\n      swap1\n      dup2\n      dup2\n      mstore\n      0x20\n      add\n      0x00\n      swap1\n    tag_62:\n      dup3\n      dup3\n      lt\n      iszero\n      tag_63\n      jumpi\n      dup4\n      dup3\n      swap1\n      0x00\n      mstore\n      keccak256(0x00, 0x20)\n      swap1\n      0x05\n      mul\n      add\n      mload(0x40)\n      dup1\n      0xa0\n      add\n      0x40\n      mstore\n      swap1\n      dup2\n      0x00\n      dup3\n      add\n      sload\n      dup2\n      mstore\n      0x20\n      add\n      0x01\n      dup3\n      add\n      0x00\n      swap1\n      sload\n      swap1\n      0x0100\n      exp\n      swap1\n      div\n      0xffffffffffffffffffffffffffffffffffffffff\n      and\n      0xffffffffffffffffffffffffffffffffffffffff\n      and\n      0xffffffffffffffffffffffffffffffffffffffff\n      and\n      dup2\n      mstore\n      0x20\n      add\n      0x02\n      dup3\n      add\n      dup1\n      sload\n      tag_65\n      swap1\n      tag_56\n      jump\t// in\n    tag_65:\n      dup1\n      0x1f\n      add\n      0x20\n      dup1\n      swap2\n      div\n      mul\n      0x20\n      add\n      mload(0x40)\n      swap1\n      dup2\n      add\n      0x40\n      mstore\n      dup1\n      swap3\n      swap2\n      swap1\n      dup2\n      dup2\n      mstore\n      0x20\n      add\n      dup3\n      dup1\n      sload\n      tag_66\n      swap1\n      tag_56\n      jump\t// in\n    tag_66:\n      dup1\n      iszero\n      tag_67\n      jumpi\n      dup1\n      0x1f\n      lt\n      tag_68\n      jumpi\n      0x0100\n      dup1\n      dup4\n      sload\n      div\n      mul\n      dup4\n      mstore\n      swap2\n      0x20\n      add\n      swap2\n      jump(tag_67)\n    tag_68:\n      dup3\n      add\n      swap2\n      swap1\n      0x00\n      mstore\n      keccak256(0x00, 0x20)\n      swap1\n    tag_69:\n      dup2\n      sload\n      dup2\n      mstore\n      swap1\n      0x01\n      add\n      swap1\n      0x20\n      add\n      dup1\n      dup4\n      gt\n      tag_69\n      jumpi\n      dup3\n      swap1\n      sub\n      0x1f\n      and\n      dup3\n      add\n      swap2\n    tag_67:\n      pop\n      pop\n      pop\n      pop\n      pop\n      dup2\n      mstore\n      0x20\n      add\n      0x03\n      dup3\n      add\n      sload\n      dup2\n      mstore\n      0x20\n      add\n      0x04\n      dup3\n      add\n      sload\n      dup2\n      mstore\n      pop\n      pop\n      dup2\n      mstore\n      0x20\n      add\n      swap1\n      0x01\n      add\n      swap1\n      jump(tag_62)\n    tag_63:\n      pop\n      pop\n      pop\n      pop\n      swap1\n      pop\n        /* \"Documents/BC/NAZ-SOLIDITY/twitter.sol\":1267:1380  function getAllTweets(address _owner) public view returns (Tweet[] memory ){... */\n      swap2\n      swap1\n      pop\n      jump\t// out\n        /* \"Documents/BC/NAZ-SOLIDITY/twitter.sol\":741:1150  function CreateTweet(string memory _tweet) public {... */\n    tag_28:\n        /* \"Documents/BC/NAZ-SOLIDITY/twitter.sol\":834:850  Max_tweet_length */\n      0x01\n      0x00\n      swap1\n      sload\n      swap1\n      0x0100\n      exp\n      swap1\n      div\n      0xffffffffffffff\n      and\n        /* \"Documents/BC/NAZ-SOLIDITY/twitter.sol\":810:850  bytes(_tweet).length <= Max_tweet_length */\n      0xffffffffffffff\n      and\n        /* \"Documents/BC/NAZ-SOLIDITY/twitter.sol\":816:822  _tweet */\n      dup2\n        /* \"Documents/BC/NAZ-SOLIDITY/twitter.sol\":810:830  bytes(_tweet).length */\n      mload\n        /* \"Documents/BC/NAZ-SOLIDITY/twitter.sol\":810:850  bytes(_tweet).length <= Max_tweet_length */\n      gt\n      iszero\n        /* \"Documents/BC/NAZ-SOLIDITY/twitter.sol\":802:883  require(bytes(_tweet).length <= Max_tweet_length, \"This tweet is too long bro!!\") */\n      tag_71\n      jumpi\n      mload(0x40)\n      0x08c379a000000000000000000000000000000000000000000000000000000000\n      dup2\n      mstore\n      0x04\n      add\n      tag_72\n      swap1\n      tag_73\n      jump\t// in\n    tag_72:\n      mload(0x40)\n      dup1\n      swap2\n      sub\n      swap1\n      revert\n    tag_71:\n        /* \"Documents/BC/NAZ-SOLIDITY/twitter.sol\":893:914  Tweet memory newTweet */\n      0x00\n        /* \"Documents/BC/NAZ-SOLIDITY/twitter.sol\":917:1100  Tweet({... */\n      mload(0x40)\n      dup1\n      0xa0\n      add\n      0x40\n      mstore\n      dup1\n        /* \"Documents/BC/NAZ-SOLIDITY/twitter.sol\":941:947  tweets */\n      0x00\n        /* \"Documents/BC/NAZ-SOLIDITY/twitter.sol\":941:959  tweets[msg.sender] */\n      dup1\n        /* \"Documents/BC/NAZ-SOLIDITY/twitter.sol\":948:958  msg.sender */\n      caller\n        /* \"Documents/BC/NAZ-SOLIDITY/twitter.sol\":941:959  tweets[msg.sender] */\n      0xffffffffffffffffffffffffffffffffffffffff\n      and\n      0xffffffffffffffffffffffffffffffffffffffff\n      and\n      dup2\n      mstore\n      0x20\n      add\n      swap1\n      dup2\n      mstore\n      0x20\n      add\n      0x00\n      keccak256\n        /* \"Documents/BC/NAZ-SOLIDITY/twitter.sol\":941:966  tweets[msg.sender].length */\n      dup1\n      sload\n      swap1\n      pop\n        /* \"Documents/BC/NAZ-SOLIDITY/twitter.sol\":917:1100  Tweet({... */\n      dup2\n      mstore\n      0x20\n      add\n        /* \"Documents/BC/NAZ-SOLIDITY/twitter.sol\":988:998  msg.sender */\n      caller\n        /* \"Documents/BC/NAZ-SOLIDITY/twitter.sol\":917:1100  Tweet({... */\n      0xffffffffffffffffffffffffffffffffffffffff\n      and\n      dup2\n      mstore\n      0x20\n      add\n        /* \"Documents/BC/NAZ-SOLIDITY/twitter.sol\":1021:1027  _tweet */\n      dup4\n        /* \"Documents/BC/NAZ-SOLIDITY/twitter.sol\":917:1100  Tweet({... */\n      dup2\n      mstore\n      0x20\n      add\n        /* \"Documents/BC/NAZ-SOLIDITY/twitter.sol\":1052:1067  block.timestamp */\n      timestamp\n        /* \"Documents/BC/NAZ-SOLIDITY/twitter.sol\":917:1100  Tweet({... */\n      dup2\n      mstore\n      0x20\n      add\n        /* \"Documents/BC/NAZ-SOLIDITY/twitter.sol\":1088:1089  0 */\n      0x00\n        /* \"Documents/BC/NAZ-SOLIDITY/twitter.sol\":917:1100  Tweet({... */\n      dup2\n      mstore\n      pop\n        /* \"Documents/BC/NAZ-SOLIDITY/twitter.sol\":893:1100  Tweet memory newTweet = Tweet({... */\n      swap1\n      pop\n        /* \"Documents/BC/NAZ-SOLIDITY/twitter.sol\":1110:1116  tweets */\n      0x00\n        /* \"Documents/BC/NAZ-SOLIDITY/twitter.sol\":1110:1128  tweets[msg.sender] */\n      dup1\n        /* \"Documents/BC/NAZ-SOLIDITY/twitter.sol\":1117:1127  msg.sender */\n      caller\n        /* \"Documents/BC/NAZ-SOLIDITY/twitter.sol\":1110:1128  tweets[msg.sender] */\n      0xffffffffffffffffffffffffffffffffffffffff\n      and\n      0xffffffffffffffffffffffffffffffffffffffff\n      and\n      dup2\n      mstore\n      0x20\n      add\n      swap1\n      dup2\n      mstore\n      0x20\n      add\n      0x00\n      keccak256\n        /* \"Documents/BC/NAZ-SOLIDITY/twitter.sol\":1134:1142  newTweet */\n      dup2\n        /* \"Documents/BC/NAZ-SOLIDITY/twitter.sol\":1110:1143  tweets[msg.sender].push(newTweet) */\n      swap1\n      dup1\n      0x01\n      dup2\n      sload\n      add\n      dup1\n      dup3\n      sstore\n      dup1\n      swap2\n      pop\n      pop\n      0x01\n      swap1\n      sub\n      swap1\n      0x00\n      mstore\n      keccak256(0x00, 0x20)\n      swap1\n      0x05\n      mul\n      add\n      0x00\n      swap1\n      swap2\n      swap1\n      swap2\n      swap1\n      swap2\n      pop\n      0x00\n      dup3\n      add\n      mload\n      dup2\n      0x00\n      add\n      sstore\n      0x20\n      dup3\n      add\n      mload\n      dup2\n      0x01\n      add\n      exp(0x0100, 0x00)\n      dup2\n      sload\n      dup2\n      0xffffffffffffffffffffffffffffffffffffffff\n      mul\n      not\n      and\n      swap1\n      dup4\n      0xffffffffffffffffffffffffffffffffffffffff\n      and\n      mul\n      or\n      swap1\n      sstore\n      pop\n      0x40\n      dup3\n      add\n      mload\n      dup2\n      0x02\n      add\n      swap1\n      dup2\n      tag_75\n      swap2\n      swap1\n      tag_76\n      jump\t// in\n    tag_75:\n      pop\n      0x60\n      dup3\n      add\n      mload\n      dup2\n      0x03\n      add\n      sstore\n      0x80\n      dup3\n      add\n      mload\n      dup2\n      0x04\n      add\n      sstore\n      pop\n      pop\n        /* \"Documents/BC/NAZ-SOLIDITY/twitter.sol\":791:1150  {... */\n      pop\n        /* \"Documents/BC/NAZ-SOLIDITY/twitter.sol\":741:1150  function CreateTweet(string memory _tweet) public {... */\n      pop\n      jump\t// out\n        /* \"Documents/BC/NAZ-SOLIDITY/twitter.sol\":1551:1805  function unlikeTweet(address author, uint256 id) external {... */\n    tag_31:\n        /* \"Documents/BC/NAZ-SOLIDITY/twitter.sol\":1652:1654  id */\n      dup1\n        /* \"Documents/BC/NAZ-SOLIDITY/twitter.sol\":1627:1633  tweets */\n      0x00\n        /* \"Documents/BC/NAZ-SOLIDITY/twitter.sol\":1627:1641  tweets[author] */\n      dup1\n        /* \"Documents/BC/NAZ-SOLIDITY/twitter.sol\":1634:1640  author */\n      dup5\n        /* \"Documents/BC/NAZ-SOLIDITY/twitter.sol\":1627:1641  tweets[author] */\n      0xffffffffffffffffffffffffffffffffffffffff\n      and\n      0xffffffffffffffffffffffffffffffffffffffff\n      and\n      dup2\n      mstore\n      0x20\n      add\n      swap1\n      dup2\n      mstore\n      0x20\n      add\n      0x00\n      keccak256\n        /* \"Documents/BC/NAZ-SOLIDITY/twitter.sol\":1642:1644  id */\n      dup3\n        /* \"Documents/BC/NAZ-SOLIDITY/twitter.sol\":1627:1645  tweets[author][id] */\n      dup2\n      sload\n      dup2\n      lt\n      tag_78\n      jumpi\n      tag_79\n      tag_80\n      jump\t// in\n    tag_79:\n    tag_78:\n      swap1\n      0x00\n      mstore\n      keccak256(0x00, 0x20)\n      swap1\n      0x05\n      mul\n      add\n        /* \"Documents/BC/NAZ-SOLIDITY/twitter.sol\":1627:1648  tweets[author][id].id */\n      0x00\n      add\n      sload\n        /* \"Documents/BC/NAZ-SOLIDITY/twitter.sol\":1627:1654  tweets[author][id].id == id */\n      eq\n        /* \"Documents/BC/NAZ-SOLIDITY/twitter.sol\":1619:1669  require(tweets[author][id].id == id,\"Not present\") */\n      tag_82\n      jumpi\n      mload(0x40)\n      0x08c379a000000000000000000000000000000000000000000000000000000000\n      dup2\n      mstore\n      0x04\n      add\n      tag_83\n      swap1\n      tag_84\n      jump\t// in\n    tag_83:\n      mload(0x40)\n      dup1\n      swap2\n      sub\n      swap1\n      revert\n    tag_82:\n        /* \"Documents/BC/NAZ-SOLIDITY/twitter.sol\":1714:1715  0 */\n      0x00\n        /* \"Documents/BC/NAZ-SOLIDITY/twitter.sol\":1687:1693  tweets */\n      dup1\n        /* \"Documents/BC/NAZ-SOLIDITY/twitter.sol\":1687:1701  tweets[author] */\n      0x00\n        /* \"Documents/BC/NAZ-SOLIDITY/twitter.sol\":1694:1700  author */\n      dup5\n        /* \"Documents/BC/NAZ-SOLIDITY/twitter.sol\":1687:1701  tweets[author] */\n      0xffffffffffffffffffffffffffffffffffffffff\n      and\n      0xffffffffffffffffffffffffffffffffffffffff\n      and\n      dup2\n      mstore\n      0x20\n      add\n      swap1\n      dup2\n      mstore\n      0x20\n      add\n      0x00\n      keccak256\n        /* \"Documents/BC/NAZ-SOLIDITY/twitter.sol\":1702:1704  id */\n      dup3\n        /* \"Documents/BC/NAZ-SOLIDITY/twitter.sol\":1687:1705  tweets[author][id] */\n      dup2\n      sload\n      dup2\n      lt\n      tag_85\n      jumpi\n      tag_86\n      tag_80\n      jump\t// in\n    tag_86:\n    tag_85:\n      swap1\n      0x00\n      mstore\n      keccak256(0x00, 0x20)\n      swap1\n      0x05\n      mul\n      add\n        /* \"Documents/BC/NAZ-SOLIDITY/twitter.sol\":1687:1711  tweets[author][id].likes */\n      0x04\n      add\n      sload\n        /* \"Documents/BC/NAZ-SOLIDITY/twitter.sol\":1687:1715  tweets[author][id].likes > 0 */\n      gt\n        /* \"Documents/BC/NAZ-SOLIDITY/twitter.sol\":1679:1762  require(tweets[author][id].likes > 0,\"there are no likes associated to this tweet\") */\n      tag_88\n      jumpi\n      mload(0x40)\n      0x08c379a000000000000000000000000000000000000000000000000000000000\n      dup2\n      mstore\n      0x04\n      add\n      tag_89\n      swap1\n      tag_90\n      jump\t// in\n    tag_89:\n      mload(0x40)\n      dup1\n      swap2\n      sub\n      swap1\n      revert\n    tag_88:\n        /* \"Documents/BC/NAZ-SOLIDITY/twitter.sol\":1772:1778  tweets */\n      0x00\n        /* \"Documents/BC/NAZ-SOLIDITY/twitter.sol\":1772:1786  tweets[author] */\n      dup1\n        /* \"Documents/BC/NAZ-SOLIDITY/twitter.sol\":1779:1785  author */\n      dup4\n        /* \"Documents/BC/NAZ-SOLIDITY/twitter.sol\":1772:1786  tweets[author] */\n      0xffffffffffffffffffffffffffffffffffffffff\n      and\n      0xffffffffffffffffffffffffffffffffffffffff\n      and\n      dup2\n      mstore\n      0x20\n      add\n      swap1\n      dup2\n      mstore\n      0x20\n      add\n      0x00\n      keccak256\n        /* \"Documents/BC/NAZ-SOLIDITY/twitter.sol\":1787:1789  id */\n      dup2\n        /* \"Documents/BC/NAZ-SOLIDITY/twitter.sol\":1772:1790  tweets[author][id] */\n      dup2\n      sload\n      dup2\n      lt\n      tag_91\n      jumpi\n      tag_92\n      tag_80\n      jump\t// in\n    tag_92:\n    tag_91:\n      swap1\n      0x00\n      mstore\n      keccak256(0x00, 0x20)\n      swap1\n      0x05\n      mul\n      add\n        /* \"Documents/BC/NAZ-SOLIDITY/twitter.sol\":1772:1796  tweets[author][id].likes */\n      0x04\n      add\n      0x00\n        /* \"Documents/BC/NAZ-SOLIDITY/twitter.sol\":1772:1798  tweets[author][id].likes-- */\n      dup2\n      sload\n      dup1\n      swap3\n      swap2\n      swap1\n      tag_94\n      swap1\n      tag_95\n      jump\t// in\n    tag_94:\n      swap2\n      swap1\n      pop\n      sstore\n      pop\n        /* \"Documents/BC/NAZ-SOLIDITY/twitter.sol\":1551:1805  function unlikeTweet(address author, uint256 id) external {... */\n      pop\n      pop\n      jump\t// out\n        /* \"Documents/BC/NAZ-SOLIDITY/twitter.sol\":1386:1545  function likeTweet(address author, uint256 id) external {... */\n    tag_34:\n        /* \"Documents/BC/NAZ-SOLIDITY/twitter.sol\":1485:1487  id */\n      dup1\n        /* \"Documents/BC/NAZ-SOLIDITY/twitter.sol\":1460:1466  tweets */\n      0x00\n        /* \"Documents/BC/NAZ-SOLIDITY/twitter.sol\":1460:1474  tweets[author] */\n      dup1\n        /* \"Documents/BC/NAZ-SOLIDITY/twitter.sol\":1467:1473  author */\n      dup5\n        /* \"Documents/BC/NAZ-SOLIDITY/twitter.sol\":1460:1474  tweets[author] */\n      0xffffffffffffffffffffffffffffffffffffffff\n      and\n      0xffffffffffffffffffffffffffffffffffffffff\n      and\n      dup2\n      mstore\n      0x20\n      add\n      swap1\n      dup2\n      mstore\n      0x20\n      add\n      0x00\n      keccak256\n        /* \"Documents/BC/NAZ-SOLIDITY/twitter.sol\":1475:1477  id */\n      dup3\n        /* \"Documents/BC/NAZ-SOLIDITY/twitter.sol\":1460:1478  tweets[author][id] */\n      dup2\n      sload\n      dup2\n      lt\n      tag_97\n      jumpi\n      tag_98\n      tag_80\n      jump\t// in\n    tag_98:\n    tag_97:\n      swap1\n      0x00\n      mstore\n      keccak256(0x00, 0x20)\n      swap1\n      0x05\n      mul\n      add\n        /* \"Documents/BC/NAZ-SOLIDITY/twitter.sol\":1460:1481  tweets[author][id].id */\n      0x00\n      add\n      sload\n        /* \"Documents/BC/NAZ-SOLIDITY/twitter.sol\":1460:1487  tweets[author][id].id == id */\n      eq\n        /* \"Documents/BC/NAZ-SOLIDITY/twitter.sol\":1452:1502  require(tweets[author][id].id == id,\"Not present\") */\n      tag_100\n      jumpi\n      mload(0x40)\n      0x08c379a000000000000000000000000000000000000000000000000000000000\n      dup2\n      mstore\n      0x04\n      add\n      tag_101\n      swap1\n      tag_84\n      jump\t// in\n    tag_101:\n      mload(0x40)\n      dup1\n      swap2\n      sub\n      swap1\n      revert\n    tag_100:\n        /* \"Documents/BC/NAZ-SOLIDITY/twitter.sol\":1512:1518  tweets */\n      0x00\n        /* \"Documents/BC/NAZ-SOLIDITY/twitter.sol\":1512:1526  tweets[author] */\n      dup1\n        /* \"Documents/BC/NAZ-SOLIDITY/twitter.sol\":1519:1525  author */\n      dup4\n        /* \"Documents/BC/NAZ-SOLIDITY/twitter.sol\":1512:1526  tweets[author] */\n      0xffffffffffffffffffffffffffffffffffffffff\n      and\n      0xffffffffffffffffffffffffffffffffffffffff\n      and\n      dup2\n      mstore\n      0x20\n      add\n      swap1\n      dup2\n      mstore\n      0x20\n      add\n      0x00\n      keccak256\n        /* \"Documents/BC/NAZ-SOLIDITY/twitter.sol\":1527:1529  id */\n      dup2\n        /* \"Documents/BC/NAZ-SOLIDITY/twitter.sol\":1512:1530  tweets[author][id] */\n      dup2\n      sload\n      dup2\n      lt\n      tag_102\n      jumpi\n      tag_103\n      tag_80\n      jump\t// in\n    tag_103:\n    tag_102:\n      swap1\n      0x00\n      mstore\n      keccak256(0x00, 0x20)\n      swap1\n      0x05\n      mul\n      add\n        /* \"Documents/BC/NAZ-SOLIDITY/twitter.sol\":1512:1536  tweets[author][id].likes */\n      0x04\n      add\n      0x00\n        /* \"Documents/BC/NAZ-SOLIDITY/twitter.sol\":1512:1538  tweets[author][id].likes++ */\n      dup2\n      sload\n      dup1\n      swap3\n      swap2\n      swap1\n      tag_105\n      swap1\n      tag_106\n      jump\t// in\n    tag_105:\n      swap2\n      swap1\n      pop\n      sstore\n      pop\n        /* \"Documents/BC/NAZ-SOLIDITY/twitter.sol\":1386:1545  function likeTweet(address author, uint256 id) external {... */\n      pop\n      pop\n      jump\t// out\n        /* \"Documents/BC/NAZ-SOLIDITY/twitter.sol\":424:444  address public owner */\n    tag_36:\n      0x01\n      0x07\n      swap1\n      sload\n      swap1\n      0x0100\n      exp\n      swap1\n      div\n      0xffffffffffffffffffffffffffffffffffffffff\n      and\n      dup2\n      jump\t// out\n        /* \"Documents/BC/NAZ-SOLIDITY/twitter.sol\":613:729  function changeTweetlength(uint16 newTweetlength) public onlyOwner{... */\n    tag_42:\n        /* \"Documents/BC/NAZ-SOLIDITY/twitter.sol\":558:563  owner */\n      0x01\n      0x07\n      swap1\n      sload\n      swap1\n      0x0100\n      exp\n      swap1\n      div\n      0xffffffffffffffffffffffffffffffffffffffff\n      and\n        /* \"Documents/BC/NAZ-SOLIDITY/twitter.sol\":544:563  msg.sender == owner */\n      0xffffffffffffffffffffffffffffffffffffffff\n      and\n        /* \"Documents/BC/NAZ-SOLIDITY/twitter.sol\":544:554  msg.sender */\n      caller\n        /* \"Documents/BC/NAZ-SOLIDITY/twitter.sol\":544:563  msg.sender == owner */\n      0xffffffffffffffffffffffffffffffffffffffff\n      and\n      eq\n        /* \"Documents/BC/NAZ-SOLIDITY/twitter.sol\":536:588  require(msg.sender == owner,\"You are not the owner\") */\n      tag_108\n      jumpi\n      mload(0x40)\n      0x08c379a000000000000000000000000000000000000000000000000000000000\n      dup2\n      mstore\n      0x04\n      add\n      tag_109\n      swap1\n      tag_110\n      jump\t// in\n    tag_109:\n      mload(0x40)\n      dup1\n      swap2\n      sub\n      swap1\n      revert\n    tag_108:\n        /* \"Documents/BC/NAZ-SOLIDITY/twitter.sol\":708:722  newTweetlength */\n      dup1\n        /* \"Documents/BC/NAZ-SOLIDITY/twitter.sol\":689:722  Max_tweet_length = newTweetlength */\n      0xffff\n      and\n        /* \"Documents/BC/NAZ-SOLIDITY/twitter.sol\":689:705  Max_tweet_length */\n      0x01\n      0x00\n        /* \"Documents/BC/NAZ-SOLIDITY/twitter.sol\":689:722  Max_tweet_length = newTweetlength */\n      0x0100\n      exp\n      dup2\n      sload\n      dup2\n      0xffffffffffffff\n      mul\n      not\n      and\n      swap1\n      dup4\n      0xffffffffffffff\n      and\n      mul\n      or\n      swap1\n      sstore\n      pop\n        /* \"Documents/BC/NAZ-SOLIDITY/twitter.sol\":613:729  function changeTweetlength(uint16 newTweetlength) public onlyOwner{... */\n      pop\n      jump\t// out\n        /* \"Documents/BC/NAZ-SOLIDITY/twitter.sol\":382:418  uint56 public Max_tweet_length = 280 */\n    tag_44:\n      0x01\n      0x00\n      swap1\n      sload\n      swap1\n      0x0100\n      exp\n      swap1\n      div\n      0xffffffffffffff\n      and\n      dup2\n      jump\t// out\n        /* \"Documents/BC/NAZ-SOLIDITY/twitter.sol\":1156:1261  function getTweet(uint i) public view returns (Tweet memory){... */\n    tag_50:\n        /* \"Documents/BC/NAZ-SOLIDITY/twitter.sol\":1203:1215  Tweet memory */\n      tag_112\n      tag_113\n      jump\t// in\n    tag_112:\n        /* \"Documents/BC/NAZ-SOLIDITY/twitter.sol\":1233:1239  tweets */\n      0x00\n        /* \"Documents/BC/NAZ-SOLIDITY/twitter.sol\":1233:1251  tweets[msg.sender] */\n      dup1\n        /* \"Documents/BC/NAZ-SOLIDITY/twitter.sol\":1240:1250  msg.sender */\n      caller\n        /* \"Documents/BC/NAZ-SOLIDITY/twitter.sol\":1233:1251  tweets[msg.sender] */\n      0xffffffffffffffffffffffffffffffffffffffff\n      and\n      0xffffffffffffffffffffffffffffffffffffffff\n      and\n      dup2\n      mstore\n      0x20\n      add\n      swap1\n      dup2\n      mstore\n      0x20\n      add\n      0x00\n      keccak256\n        /* \"Documents/BC/NAZ-SOLIDITY/twitter.sol\":1252:1253  i */\n      dup3\n        /* \"Documents/BC/NAZ-SOLIDITY/twitter.sol\":1233:1254  tweets[msg.sender][i] */\n      dup2\n      sload\n      dup2\n      lt\n      tag_115\n      jumpi\n      tag_116\n      tag_80\n      jump\t// in\n    tag_116:\n    tag_115:\n      swap1\n      0x00\n      mstore\n      keccak256(0x00, 0x20)\n      swap1\n      0x05\n      mul\n      add\n        /* \"Documents/BC/NAZ-SOLIDITY/twitter.sol\":1226:1254  return tweets[msg.sender][i] */\n      mload(0x40)\n      dup1\n      0xa0\n      add\n      0x40\n      mstore\n      swap1\n      dup2\n      0x00\n      dup3\n      add\n      sload\n      dup2\n      mstore\n      0x20\n      add\n      0x01\n      dup3\n      add\n      0x00\n      swap1\n      sload\n      swap1\n      0x0100\n      exp\n      swap1\n      div\n      0xffffffffffffffffffffffffffffffffffffffff\n      and\n      0xffffffffffffffffffffffffffffffffffffffff\n      and\n      0xffffffffffffffffffffffffffffffffffffffff\n      and\n      dup2\n      mstore\n      0x20\n      add\n      0x02\n      dup3\n      add\n      dup1\n      sload\n      tag_118\n      swap1\n      tag_56\n      jump\t// in\n    tag_118:\n      dup1\n      0x1f\n      add\n      0x20\n      dup1\n      swap2\n      div\n      mul\n      0x20\n      add\n      mload(0x40)\n      swap1\n      dup2\n      add\n      0x40\n      mstore\n      dup1\n      swap3\n      swap2\n      swap1\n      dup2\n      dup2\n      mstore\n      0x20\n      add\n      dup3\n      dup1\n      sload\n      tag_119\n      swap1\n      tag_56\n      jump\t// in\n    tag_119:\n      dup1\n      iszero\n      tag_120\n      jumpi\n      dup1\n      0x1f\n      lt\n      tag_121\n      jumpi\n      0x0100\n      dup1\n      dup4\n      sload\n      div\n      mul\n      dup4\n      mstore\n      swap2\n      0x20\n      add\n      swap2\n      jump(tag_120)\n    tag_121:\n      dup3\n      add\n      swap2\n      swap1\n      0x00\n      mstore\n      keccak256(0x00, 0x20)\n      swap1\n    tag_122:\n      dup2\n      sload\n      dup2\n      mstore\n      swap1\n      0x01\n      add\n      swap1\n      0x20\n      add\n      dup1\n      dup4\n      gt\n      tag_122\n      jumpi\n      dup3\n      swap1\n      sub\n      0x1f\n      and\n      dup3\n      add\n      swap2\n    tag_120:\n      pop\n      pop\n      pop\n      pop\n      pop\n      dup2\n      mstore\n      0x20\n      add\n      0x03\n      dup3\n      add\n      sload\n      dup2\n      mstore\n      0x20\n      add\n      0x04\n      dup3\n      add\n      sload\n      dup2\n      mstore\n      pop\n      pop\n      swap1\n      pop\n        /* \"Documents/BC/NAZ-SOLIDITY/twitter.sol\":1156:1261  function getTweet(uint i) public view returns (Tweet memory){... */\n      swap2\n      swap1\n      pop\n      jump\t// out\n    tag_113:\n      mload(0x40)\n      dup1\n      0xa0\n      add\n      0x40\n      mstore\n      dup1\n      0x00\n      dup2\n      mstore\n      0x20\n      add\n      and(0xffffffffffffffffffffffffffffffffffffffff, 0x00)\n      dup2\n      mstore\n      0x20\n      add\n      0x60\n      dup2\n      mstore\n      0x20\n      add\n      0x00\n      dup2\n      mstore\n      0x20\n      add\n      0x00\n      dup2\n      mstore\n      pop\n      swap1\n      jump\t// out\n        /* \"#utility.yul\":7:82   */\n    tag_123:\n        /* \"#utility.yul\":40:46   */\n      0x00\n        /* \"#utility.yul\":73:75   */\n      0x40\n        /* \"#utility.yul\":67:76   */\n      mload\n        /* \"#utility.yul\":57:76   */\n      swap1\n      pop\n        /* \"#utility.yul\":7:82   */\n      swap1\n      jump\t// out\n        /* \"#utility.yul\":88:205   */\n    tag_124:\n        /* \"#utility.yul\":197:198   */\n      0x00\n        /* \"#utility.yul\":194:195   */\n      dup1\n        /* \"#utility.yul\":187:199   */\n      revert\n        /* \"#utility.yul\":211:328   */\n    tag_125:\n        /* \"#utility.yul\":320:321   */\n      0x00\n        /* \"#utility.yul\":317:318   */\n      dup1\n        /* \"#utility.yul\":310:322   */\n      revert\n        /* \"#utility.yul\":334:460   */\n    tag_126:\n        /* \"#utility.yul\":371:378   */\n      0x00\n        /* \"#utility.yul\":411:453   */\n      0xffffffffffffffffffffffffffffffffffffffff\n        /* \"#utility.yul\":404:409   */\n      dup3\n        /* \"#utility.yul\":400:454   */\n      and\n        /* \"#utility.yul\":389:454   */\n      swap1\n      pop\n        /* \"#utility.yul\":334:460   */\n      swap2\n      swap1\n      pop\n      jump\t// out\n        /* \"#utility.yul\":466:562   */\n    tag_127:\n        /* \"#utility.yul\":503:510   */\n      0x00\n        /* \"#utility.yul\":532:556   */\n      tag_197\n        /* \"#utility.yul\":550:555   */\n      dup3\n        /* \"#utility.yul\":532:556   */\n      tag_126\n      jump\t// in\n    tag_197:\n        /* \"#utility.yul\":521:556   */\n      swap1\n      pop\n        /* \"#utility.yul\":466:562   */\n      swap2\n      swap1\n      pop\n      jump\t// out\n        /* \"#utility.yul\":568:690   */\n    tag_128:\n        /* \"#utility.yul\":641:665   */\n      tag_199\n        /* \"#utility.yul\":659:664   */\n      dup2\n        /* \"#utility.yul\":641:665   */\n      tag_127\n      jump\t// in\n    tag_199:\n        /* \"#utility.yul\":634:639   */\n      dup2\n        /* \"#utility.yul\":631:666   */\n      eq\n        /* \"#utility.yul\":621:684   */\n      tag_200\n      jumpi\n        /* \"#utility.yul\":680:681   */\n      0x00\n        /* \"#utility.yul\":677:678   */\n      dup1\n        /* \"#utility.yul\":670:682   */\n      revert\n        /* \"#utility.yul\":621:684   */\n    tag_200:\n        /* \"#utility.yul\":568:690   */\n      pop\n      jump\t// out\n        /* \"#utility.yul\":696:835   */\n    tag_129:\n        /* \"#utility.yul\":742:747   */\n      0x00\n        /* \"#utility.yul\":780:786   */\n      dup2\n        /* \"#utility.yul\":767:787   */\n      calldataload\n        /* \"#utility.yul\":758:787   */\n      swap1\n      pop\n        /* \"#utility.yul\":796:829   */\n      tag_202\n        /* \"#utility.yul\":823:828   */\n      dup2\n        /* \"#utility.yul\":796:829   */\n      tag_128\n      jump\t// in\n    tag_202:\n        /* \"#utility.yul\":696:835   */\n      swap3\n      swap2\n      pop\n      pop\n      jump\t// out\n        /* \"#utility.yul\":841:918   */\n    tag_130:\n        /* \"#utility.yul\":878:885   */\n      0x00\n        /* \"#utility.yul\":907:912   */\n      dup2\n        /* \"#utility.yul\":896:912   */\n      swap1\n      pop\n        /* \"#utility.yul\":841:918   */\n      swap2\n      swap1\n      pop\n      jump\t// out\n        /* \"#utility.yul\":924:1046   */\n    tag_131:\n        /* \"#utility.yul\":997:1021   */\n      tag_205\n        /* \"#utility.yul\":1015:1020   */\n      dup2\n        /* \"#utility.yul\":997:1021   */\n      tag_130\n      jump\t// in\n    tag_205:\n        /* \"#utility.yul\":990:995   */\n      dup2\n        /* \"#utility.yul\":987:1022   */\n      eq\n        /* \"#utility.yul\":977:1040   */\n      tag_206\n      jumpi\n        /* \"#utility.yul\":1036:1037   */\n      0x00\n        /* \"#utility.yul\":1033:1034   */\n      dup1\n        /* \"#utility.yul\":1026:1038   */\n      revert\n        /* \"#utility.yul\":977:1040   */\n    tag_206:\n        /* \"#utility.yul\":924:1046   */\n      pop\n      jump\t// out\n        /* \"#utility.yul\":1052:1191   */\n    tag_132:\n        /* \"#utility.yul\":1098:1103   */\n      0x00\n        /* \"#utility.yul\":1136:1142   */\n      dup2\n        /* \"#utility.yul\":1123:1143   */\n      calldataload\n        /* \"#utility.yul\":1114:1143   */\n      swap1\n      pop\n        /* \"#utility.yul\":1152:1185   */\n      tag_208\n        /* \"#utility.yul\":1179:1184   */\n      dup2\n        /* \"#utility.yul\":1152:1185   */\n      tag_131\n      jump\t// in\n    tag_208:\n        /* \"#utility.yul\":1052:1191   */\n      swap3\n      swap2\n      pop\n      pop\n      jump\t// out\n        /* \"#utility.yul\":1197:1671   */\n    tag_15:\n        /* \"#utility.yul\":1265:1271   */\n      0x00\n        /* \"#utility.yul\":1273:1279   */\n      dup1\n        /* \"#utility.yul\":1322:1324   */\n      0x40\n        /* \"#utility.yul\":1310:1319   */\n      dup4\n        /* \"#utility.yul\":1301:1308   */\n      dup6\n        /* \"#utility.yul\":1297:1320   */\n      sub\n        /* \"#utility.yul\":1293:1325   */\n      slt\n        /* \"#utility.yul\":1290:1409   */\n      iszero\n      tag_210\n      jumpi\n        /* \"#utility.yul\":1328:1407   */\n      tag_211\n      tag_124\n      jump\t// in\n    tag_211:\n        /* \"#utility.yul\":1290:1409   */\n    tag_210:\n        /* \"#utility.yul\":1448:1449   */\n      0x00\n        /* \"#utility.yul\":1473:1526   */\n      tag_212\n        /* \"#utility.yul\":1518:1525   */\n      dup6\n        /* \"#utility.yul\":1509:1515   */\n      dup3\n        /* \"#utility.yul\":1498:1507   */\n      dup7\n        /* \"#utility.yul\":1494:1516   */\n      add\n        /* \"#utility.yul\":1473:1526   */\n      tag_129\n      jump\t// in\n    tag_212:\n        /* \"#utility.yul\":1463:1526   */\n      swap3\n      pop\n        /* \"#utility.yul\":1419:1536   */\n      pop\n        /* \"#utility.yul\":1575:1577   */\n      0x20\n        /* \"#utility.yul\":1601:1654   */\n      tag_213\n        /* \"#utility.yul\":1646:1653   */\n      dup6\n        /* \"#utility.yul\":1637:1643   */\n      dup3\n        /* \"#utility.yul\":1626:1635   */\n      dup7\n        /* \"#utility.yul\":1622:1644   */\n      add\n        /* \"#utility.yul\":1601:1654   */\n      tag_132\n      jump\t// in\n    tag_213:\n        /* \"#utility.yul\":1591:1654   */\n      swap2\n      pop\n        /* \"#utility.yul\":1546:1664   */\n      pop\n        /* \"#utility.yul\":1197:1671   */\n      swap3\n      pop\n      swap3\n      swap1\n      pop\n      jump\t// out\n        /* \"#utility.yul\":1677:1795   */\n    tag_133:\n        /* \"#utility.yul\":1764:1788   */\n      tag_215\n        /* \"#utility.yul\":1782:1787   */\n      dup2\n        /* \"#utility.yul\":1764:1788   */\n      tag_130\n      jump\t// in\n    tag_215:\n        /* \"#utility.yul\":1759:1762   */\n      dup3\n        /* \"#utility.yul\":1752:1789   */\n      mstore\n        /* \"#utility.yul\":1677:1795   */\n      pop\n      pop\n      jump\t// out\n        /* \"#utility.yul\":1801:1919   */\n    tag_134:\n        /* \"#utility.yul\":1888:1912   */\n      tag_217\n        /* \"#utility.yul\":1906:1911   */\n      dup2\n        /* \"#utility.yul\":1888:1912   */\n      tag_127\n      jump\t// in\n    tag_217:\n        /* \"#utility.yul\":1883:1886   */\n      dup3\n        /* \"#utility.yul\":1876:1913   */\n      mstore\n        /* \"#utility.yul\":1801:1919   */\n      pop\n      pop\n      jump\t// out\n        /* \"#utility.yul\":1925:2024   */\n    tag_135:\n        /* \"#utility.yul\":1977:1983   */\n      0x00\n        /* \"#utility.yul\":2011:2016   */\n      dup2\n        /* \"#utility.yul\":2005:2017   */\n      mload\n        /* \"#utility.yul\":1995:2017   */\n      swap1\n      pop\n        /* \"#utility.yul\":1925:2024   */\n      swap2\n      swap1\n      pop\n      jump\t// out\n        /* \"#utility.yul\":2030:2199   */\n    tag_136:\n        /* \"#utility.yul\":2114:2125   */\n      0x00\n        /* \"#utility.yul\":2148:2154   */\n      dup3\n        /* \"#utility.yul\":2143:2146   */\n      dup3\n        /* \"#utility.yul\":2136:2155   */\n      mstore\n        /* \"#utility.yul\":2188:2192   */\n      0x20\n        /* \"#utility.yul\":2183:2186   */\n      dup3\n        /* \"#utility.yul\":2179:2193   */\n      add\n        /* \"#utility.yul\":2164:2193   */\n      swap1\n      pop\n        /* \"#utility.yul\":2030:2199   */\n      swap3\n      swap2\n      pop\n      pop\n      jump\t// out\n        /* \"#utility.yul\":2205:2451   */\n    tag_137:\n        /* \"#utility.yul\":2286:2287   */\n      0x00\n        /* \"#utility.yul\":2296:2409   */\n    tag_221:\n        /* \"#utility.yul\":2310:2316   */\n      dup4\n        /* \"#utility.yul\":2307:2308   */\n      dup2\n        /* \"#utility.yul\":2304:2317   */\n      lt\n        /* \"#utility.yul\":2296:2409   */\n      iszero\n      tag_223\n      jumpi\n        /* \"#utility.yul\":2395:2396   */\n      dup1\n        /* \"#utility.yul\":2390:2393   */\n      dup3\n        /* \"#utility.yul\":2386:2397   */\n      add\n        /* \"#utility.yul\":2380:2398   */\n      mload\n        /* \"#utility.yul\":2376:2377   */\n      dup2\n        /* \"#utility.yul\":2371:2374   */\n      dup5\n        /* \"#utility.yul\":2367:2378   */\n      add\n        /* \"#utility.yul\":2360:2399   */\n      mstore\n        /* \"#utility.yul\":2332:2334   */\n      0x20\n        /* \"#utility.yul\":2329:2330   */\n      dup2\n        /* \"#utility.yul\":2325:2335   */\n      add\n        /* \"#utility.yul\":2320:2335   */\n      swap1\n      pop\n        /* \"#utility.yul\":2296:2409   */\n      jump(tag_221)\n    tag_223:\n        /* \"#utility.yul\":2443:2444   */\n      0x00\n        /* \"#utility.yul\":2434:2440   */\n      dup5\n        /* \"#utility.yul\":2429:2432   */\n      dup5\n        /* \"#utility.yul\":2425:2441   */\n      add\n        /* \"#utility.yul\":2418:2445   */\n      mstore\n        /* \"#utility.yul\":2267:2451   */\n      pop\n        /* \"#utility.yul\":2205:2451   */\n      pop\n      pop\n      pop\n      jump\t// out\n        /* \"#utility.yul\":2457:2559   */\n    tag_138:\n        /* \"#utility.yul\":2498:2504   */\n      0x00\n        /* \"#utility.yul\":2549:2551   */\n      0x1f\n        /* \"#utility.yul\":2545:2552   */\n      not\n        /* \"#utility.yul\":2540:2542   */\n      0x1f\n        /* \"#utility.yul\":2533:2538   */\n      dup4\n        /* \"#utility.yul\":2529:2543   */\n      add\n        /* \"#utility.yul\":2525:2553   */\n      and\n        /* \"#utility.yul\":2515:2553   */\n      swap1\n      pop\n        /* \"#utility.yul\":2457:2559   */\n      swap2\n      swap1\n      pop\n      jump\t// out\n        /* \"#utility.yul\":2565:2942   */\n    tag_139:\n        /* \"#utility.yul\":2653:2656   */\n      0x00\n        /* \"#utility.yul\":2681:2720   */\n      tag_226\n        /* \"#utility.yul\":2714:2719   */\n      dup3\n        /* \"#utility.yul\":2681:2720   */\n      tag_135\n      jump\t// in\n    tag_226:\n        /* \"#utility.yul\":2736:2807   */\n      tag_227\n        /* \"#utility.yul\":2800:2806   */\n      dup2\n        /* \"#utility.yul\":2795:2798   */\n      dup6\n        /* \"#utility.yul\":2736:2807   */\n      tag_136\n      jump\t// in\n    tag_227:\n        /* \"#utility.yul\":2729:2807   */\n      swap4\n      pop\n        /* \"#utility.yul\":2816:2881   */\n      tag_228\n        /* \"#utility.yul\":2874:2880   */\n      dup2\n        /* \"#utility.yul\":2869:2872   */\n      dup6\n        /* \"#utility.yul\":2862:2866   */\n      0x20\n        /* \"#utility.yul\":2855:2860   */\n      dup7\n        /* \"#utility.yul\":2851:2867   */\n      add\n        /* \"#utility.yul\":2816:2881   */\n      tag_137\n      jump\t// in\n    tag_228:\n        /* \"#utility.yul\":2906:2935   */\n      tag_229\n        /* \"#utility.yul\":2928:2934   */\n      dup2\n        /* \"#utility.yul\":2906:2935   */\n      tag_138\n      jump\t// in\n    tag_229:\n        /* \"#utility.yul\":2901:2904   */\n      dup5\n        /* \"#utility.yul\":2897:2936   */\n      add\n        /* \"#utility.yul\":2890:2936   */\n      swap2\n      pop\n        /* \"#utility.yul\":2657:2942   */\n      pop\n        /* \"#utility.yul\":2565:2942   */\n      swap3\n      swap2\n      pop\n      pop\n      jump\t// out\n        /* \"#utility.yul\":2948:3703   */\n    tag_18:\n        /* \"#utility.yul\":3173:3177   */\n      0x00\n        /* \"#utility.yul\":3211:3214   */\n      0xa0\n        /* \"#utility.yul\":3200:3209   */\n      dup3\n        /* \"#utility.yul\":3196:3215   */\n      add\n        /* \"#utility.yul\":3188:3215   */\n      swap1\n      pop\n        /* \"#utility.yul\":3225:3296   */\n      tag_231\n        /* \"#utility.yul\":3293:3294   */\n      0x00\n        /* \"#utility.yul\":3282:3291   */\n      dup4\n        /* \"#utility.yul\":3278:3295   */\n      add\n        /* \"#utility.yul\":3269:3275   */\n      dup9\n        /* \"#utility.yul\":3225:3296   */\n      tag_133\n      jump\t// in\n    tag_231:\n        /* \"#utility.yul\":3306:3378   */\n      tag_232\n        /* \"#utility.yul\":3374:3376   */\n      0x20\n        /* \"#utility.yul\":3363:3372   */\n      dup4\n        /* \"#utility.yul\":3359:3377   */\n      add\n        /* \"#utility.yul\":3350:3356   */\n      dup8\n        /* \"#utility.yul\":3306:3378   */\n      tag_134\n      jump\t// in\n    tag_232:\n        /* \"#utility.yul\":3425:3434   */\n      dup2\n        /* \"#utility.yul\":3419:3423   */\n      dup2\n        /* \"#utility.yul\":3415:3435   */\n      sub\n        /* \"#utility.yul\":3410:3412   */\n      0x40\n        /* \"#utility.yul\":3399:3408   */\n      dup4\n        /* \"#utility.yul\":3395:3413   */\n      add\n        /* \"#utility.yul\":3388:3436   */\n      mstore\n        /* \"#utility.yul\":3453:3531   */\n      tag_233\n        /* \"#utility.yul\":3526:3530   */\n      dup2\n        /* \"#utility.yul\":3517:3523   */\n      dup7\n        /* \"#utility.yul\":3453:3531   */\n      tag_139\n      jump\t// in\n    tag_233:\n        /* \"#utility.yul\":3445:3531   */\n      swap1\n      pop\n        /* \"#utility.yul\":3541:3613   */\n      tag_234\n        /* \"#utility.yul\":3609:3611   */\n      0x60\n        /* \"#utility.yul\":3598:3607   */\n      dup4\n        /* \"#utility.yul\":3594:3612   */\n      add\n        /* \"#utility.yul\":3585:3591   */\n      dup6\n        /* \"#utility.yul\":3541:3613   */\n      tag_133\n      jump\t// in\n    tag_234:\n        /* \"#utility.yul\":3623:3696   */\n      tag_235\n        /* \"#utility.yul\":3691:3694   */\n      0x80\n        /* \"#utility.yul\":3680:3689   */\n      dup4\n        /* \"#utility.yul\":3676:3695   */\n      add\n        /* \"#utility.yul\":3667:3673   */\n      dup5\n        /* \"#utility.yul\":3623:3696   */\n      tag_133\n      jump\t// in\n    tag_235:\n        /* \"#utility.yul\":2948:3703   */\n      swap7\n      swap6\n      pop\n      pop\n      pop\n      pop\n      pop\n      pop\n      jump\t// out\n        /* \"#utility.yul\":3709:4038   */\n    tag_21:\n        /* \"#utility.yul\":3768:3774   */\n      0x00\n        /* \"#utility.yul\":3817:3819   */\n      0x20\n        /* \"#utility.yul\":3805:3814   */\n      dup3\n        /* \"#utility.yul\":3796:3803   */\n      dup5\n        /* \"#utility.yul\":3792:3815   */\n      sub\n        /* \"#utility.yul\":3788:3820   */\n      slt\n        /* \"#utility.yul\":3785:3904   */\n      iszero\n      tag_237\n      jumpi\n        /* \"#utility.yul\":3823:3902   */\n      tag_238\n      tag_124\n      jump\t// in\n    tag_238:\n        /* \"#utility.yul\":3785:3904   */\n    tag_237:\n        /* \"#utility.yul\":3943:3944   */\n      0x00\n        /* \"#utility.yul\":3968:4021   */\n      tag_239\n        /* \"#utility.yul\":4013:4020   */\n      dup5\n        /* \"#utility.yul\":4004:4010   */\n      dup3\n        /* \"#utility.yul\":3993:4002   */\n      dup6\n        /* \"#utility.yul\":3989:4011   */\n      add\n        /* \"#utility.yul\":3968:4021   */\n      tag_129\n      jump\t// in\n    tag_239:\n        /* \"#utility.yul\":3958:4021   */\n      swap2\n      pop\n        /* \"#utility.yul\":3914:4031   */\n      pop\n        /* \"#utility.yul\":3709:4038   */\n      swap3\n      swap2\n      pop\n      pop\n      jump\t// out\n        /* \"#utility.yul\":4044:4179   */\n    tag_140:\n        /* \"#utility.yul\":4132:4138   */\n      0x00\n        /* \"#utility.yul\":4166:4171   */\n      dup2\n        /* \"#utility.yul\":4160:4172   */\n      mload\n        /* \"#utility.yul\":4150:4172   */\n      swap1\n      pop\n        /* \"#utility.yul\":4044:4179   */\n      swap2\n      swap1\n      pop\n      jump\t// out\n        /* \"#utility.yul\":4185:4390   */\n    tag_141:\n        /* \"#utility.yul\":4305:4316   */\n      0x00\n        /* \"#utility.yul\":4339:4345   */\n      dup3\n        /* \"#utility.yul\":4334:4337   */\n      dup3\n        /* \"#utility.yul\":4327:4346   */\n      mstore\n        /* \"#utility.yul\":4379:4383   */\n      0x20\n        /* \"#utility.yul\":4374:4377   */\n      dup3\n        /* \"#utility.yul\":4370:4384   */\n      add\n        /* \"#utility.yul\":4355:4384   */\n      swap1\n      pop\n        /* \"#utility.yul\":4185:4390   */\n      swap3\n      swap2\n      pop\n      pop\n      jump\t// out\n        /* \"#utility.yul\":4396:4549   */\n    tag_142:\n        /* \"#utility.yul\":4484:4488   */\n      0x00\n        /* \"#utility.yul\":4507:4510   */\n      dup2\n        /* \"#utility.yul\":4499:4510   */\n      swap1\n      pop\n        /* \"#utility.yul\":4537:4541   */\n      0x20\n        /* \"#utility.yul\":4532:4535   */\n      dup3\n        /* \"#utility.yul\":4528:4542   */\n      add\n        /* \"#utility.yul\":4520:4542   */\n      swap1\n      pop\n        /* \"#utility.yul\":4396:4549   */\n      swap2\n      swap1\n      pop\n      jump\t// out\n        /* \"#utility.yul\":4555:4663   */\n    tag_143:\n        /* \"#utility.yul\":4632:4656   */\n      tag_244\n        /* \"#utility.yul\":4650:4655   */\n      dup2\n        /* \"#utility.yul\":4632:4656   */\n      tag_130\n      jump\t// in\n    tag_244:\n        /* \"#utility.yul\":4627:4630   */\n      dup3\n        /* \"#utility.yul\":4620:4657   */\n      mstore\n        /* \"#utility.yul\":4555:4663   */\n      pop\n      pop\n      jump\t// out\n        /* \"#utility.yul\":4669:4777   */\n    tag_144:\n        /* \"#utility.yul\":4746:4770   */\n      tag_246\n        /* \"#utility.yul\":4764:4769   */\n      dup2\n        /* \"#utility.yul\":4746:4770   */\n      tag_127\n      jump\t// in\n    tag_246:\n        /* \"#utility.yul\":4741:4744   */\n      dup3\n        /* \"#utility.yul\":4734:4771   */\n      mstore\n        /* \"#utility.yul\":4669:4777   */\n      pop\n      pop\n      jump\t// out\n        /* \"#utility.yul\":4783:4942   */\n    tag_145:\n        /* \"#utility.yul\":4857:4868   */\n      0x00\n        /* \"#utility.yul\":4891:4897   */\n      dup3\n        /* \"#utility.yul\":4886:4889   */\n      dup3\n        /* \"#utility.yul\":4879:4898   */\n      mstore\n        /* \"#utility.yul\":4931:4935   */\n      0x20\n        /* \"#utility.yul\":4926:4929   */\n      dup3\n        /* \"#utility.yul\":4922:4936   */\n      add\n        /* \"#utility.yul\":4907:4936   */\n      swap1\n      pop\n        /* \"#utility.yul\":4783:4942   */\n      swap3\n      swap2\n      pop\n      pop\n      jump\t// out\n        /* \"#utility.yul\":4948:5305   */\n    tag_146:\n        /* \"#utility.yul\":5026:5029   */\n      0x00\n        /* \"#utility.yul\":5054:5093   */\n      tag_249\n        /* \"#utility.yul\":5087:5092   */\n      dup3\n        /* \"#utility.yul\":5054:5093   */\n      tag_135\n      jump\t// in\n    tag_249:\n        /* \"#utility.yul\":5109:5170   */\n      tag_250\n        /* \"#utility.yul\":5163:5169   */\n      dup2\n        /* \"#utility.yul\":5158:5161   */\n      dup6\n        /* \"#utility.yul\":5109:5170   */\n      tag_145\n      jump\t// in\n    tag_250:\n        /* \"#utility.yul\":5102:5170   */\n      swap4\n      pop\n        /* \"#utility.yul\":5179:5244   */\n      tag_251\n        /* \"#utility.yul\":5237:5243   */\n      dup2\n        /* \"#utility.yul\":5232:5235   */\n      dup6\n        /* \"#utility.yul\":5225:5229   */\n      0x20\n        /* \"#utility.yul\":5218:5223   */\n      dup7\n        /* \"#utility.yul\":5214:5230   */\n      add\n        /* \"#utility.yul\":5179:5244   */\n      tag_137\n      jump\t// in\n    tag_251:\n        /* \"#utility.yul\":5269:5298   */\n      tag_252\n        /* \"#utility.yul\":5291:5297   */\n      dup2\n        /* \"#utility.yul\":5269:5298   */\n      tag_138\n      jump\t// in\n    tag_252:\n        /* \"#utility.yul\":5264:5267   */\n      dup5\n        /* \"#utility.yul\":5260:5299   */\n      add\n        /* \"#utility.yul\":5253:5299   */\n      swap2\n      pop\n        /* \"#utility.yul\":5030:5305   */\n      pop\n        /* \"#utility.yul\":4948:5305   */\n      swap3\n      swap2\n      pop\n      pop\n      jump\t// out\n        /* \"#utility.yul\":5363:6482   */\n    tag_147:\n        /* \"#utility.yul\":5464:5467   */\n      0x00\n        /* \"#utility.yul\":5500:5504   */\n      0xa0\n        /* \"#utility.yul\":5495:5498   */\n      dup4\n        /* \"#utility.yul\":5491:5505   */\n      add\n        /* \"#utility.yul\":5585:5589   */\n      0x00\n        /* \"#utility.yul\":5578:5583   */\n      dup4\n        /* \"#utility.yul\":5574:5590   */\n      add\n        /* \"#utility.yul\":5568:5591   */\n      mload\n        /* \"#utility.yul\":5604:5667   */\n      tag_254\n        /* \"#utility.yul\":5661:5665   */\n      0x00\n        /* \"#utility.yul\":5656:5659   */\n      dup7\n        /* \"#utility.yul\":5652:5666   */\n      add\n        /* \"#utility.yul\":5638:5650   */\n      dup3\n        /* \"#utility.yul\":5604:5667   */\n      tag_143\n      jump\t// in\n    tag_254:\n        /* \"#utility.yul\":5515:5677   */\n      pop\n        /* \"#utility.yul\":5761:5765   */\n      0x20\n        /* \"#utility.yul\":5754:5759   */\n      dup4\n        /* \"#utility.yul\":5750:5766   */\n      add\n        /* \"#utility.yul\":5744:5767   */\n      mload\n        /* \"#utility.yul\":5780:5843   */\n      tag_255\n        /* \"#utility.yul\":5837:5841   */\n      0x20\n        /* \"#utility.yul\":5832:5835   */\n      dup7\n        /* \"#utility.yul\":5828:5842   */\n      add\n        /* \"#utility.yul\":5814:5826   */\n      dup3\n        /* \"#utility.yul\":5780:5843   */\n      tag_144\n      jump\t// in\n    tag_255:\n        /* \"#utility.yul\":5687:5853   */\n      pop\n        /* \"#utility.yul\":5938:5942   */\n      0x40\n        /* \"#utility.yul\":5931:5936   */\n      dup4\n        /* \"#utility.yul\":5927:5943   */\n      add\n        /* \"#utility.yul\":5921:5944   */\n      mload\n        /* \"#utility.yul\":5991:5994   */\n      dup5\n        /* \"#utility.yul\":5985:5989   */\n      dup3\n        /* \"#utility.yul\":5981:5995   */\n      sub\n        /* \"#utility.yul\":5974:5978   */\n      0x40\n        /* \"#utility.yul\":5969:5972   */\n      dup7\n        /* \"#utility.yul\":5965:5979   */\n      add\n        /* \"#utility.yul\":5958:5996   */\n      mstore\n        /* \"#utility.yul\":6017:6090   */\n      tag_256\n        /* \"#utility.yul\":6085:6089   */\n      dup3\n        /* \"#utility.yul\":6071:6083   */\n      dup3\n        /* \"#utility.yul\":6017:6090   */\n      tag_146\n      jump\t// in\n    tag_256:\n        /* \"#utility.yul\":6009:6090   */\n      swap2\n      pop\n        /* \"#utility.yul\":5863:6101   */\n      pop\n        /* \"#utility.yul\":6188:6192   */\n      0x60\n        /* \"#utility.yul\":6181:6186   */\n      dup4\n        /* \"#utility.yul\":6177:6193   */\n      add\n        /* \"#utility.yul\":6171:6194   */\n      mload\n        /* \"#utility.yul\":6207:6270   */\n      tag_257\n        /* \"#utility.yul\":6264:6268   */\n      0x60\n        /* \"#utility.yul\":6259:6262   */\n      dup7\n        /* \"#utility.yul\":6255:6269   */\n      add\n        /* \"#utility.yul\":6241:6253   */\n      dup3\n        /* \"#utility.yul\":6207:6270   */\n      tag_143\n      jump\t// in\n    tag_257:\n        /* \"#utility.yul\":6111:6280   */\n      pop\n        /* \"#utility.yul\":6363:6367   */\n      0x80\n        /* \"#utility.yul\":6356:6361   */\n      dup4\n        /* \"#utility.yul\":6352:6368   */\n      add\n        /* \"#utility.yul\":6346:6369   */\n      mload\n        /* \"#utility.yul\":6382:6445   */\n      tag_258\n        /* \"#utility.yul\":6439:6443   */\n      0x80\n        /* \"#utility.yul\":6434:6437   */\n      dup7\n        /* \"#utility.yul\":6430:6444   */\n      add\n        /* \"#utility.yul\":6416:6428   */\n      dup3\n        /* \"#utility.yul\":6382:6445   */\n      tag_143\n      jump\t// in\n    tag_258:\n        /* \"#utility.yul\":6290:6455   */\n      pop\n        /* \"#utility.yul\":6472:6476   */\n      dup1\n        /* \"#utility.yul\":6465:6476   */\n      swap2\n      pop\n        /* \"#utility.yul\":5469:6482   */\n      pop\n        /* \"#utility.yul\":5363:6482   */\n      swap3\n      swap2\n      pop\n      pop\n      jump\t// out\n        /* \"#utility.yul\":6488:6728   */\n    tag_148:\n        /* \"#utility.yul\":6599:6609   */\n      0x00\n        /* \"#utility.yul\":6634:6722   */\n      tag_260\n        /* \"#utility.yul\":6718:6721   */\n      dup4\n        /* \"#utility.yul\":6710:6716   */\n      dup4\n        /* \"#utility.yul\":6634:6722   */\n      tag_147\n      jump\t// in\n    tag_260:\n        /* \"#utility.yul\":6620:6722   */\n      swap1\n      pop\n        /* \"#utility.yul\":6488:6728   */\n      swap3\n      swap2\n      pop\n      pop\n      jump\t// out\n        /* \"#utility.yul\":6734:6868   */\n    tag_149:\n        /* \"#utility.yul\":6825:6829   */\n      0x00\n        /* \"#utility.yul\":6857:6861   */\n      0x20\n        /* \"#utility.yul\":6852:6855   */\n      dup3\n        /* \"#utility.yul\":6848:6862   */\n      add\n        /* \"#utility.yul\":6840:6862   */\n      swap1\n      pop\n        /* \"#utility.yul\":6734:6868   */\n      swap2\n      swap1\n      pop\n      jump\t// out\n        /* \"#utility.yul\":6930:8009   */\n    tag_150:\n        /* \"#utility.yul\":7091:7094   */\n      0x00\n        /* \"#utility.yul\":7120:7195   */\n      tag_263\n        /* \"#utility.yul\":7189:7194   */\n      dup3\n        /* \"#utility.yul\":7120:7195   */\n      tag_140\n      jump\t// in\n    tag_263:\n        /* \"#utility.yul\":7211:7318   */\n      tag_264\n        /* \"#utility.yul\":7311:7317   */\n      dup2\n        /* \"#utility.yul\":7306:7309   */\n      dup6\n        /* \"#utility.yul\":7211:7318   */\n      tag_141\n      jump\t// in\n    tag_264:\n        /* \"#utility.yul\":7204:7318   */\n      swap4\n      pop\n        /* \"#utility.yul\":7344:7347   */\n      dup4\n        /* \"#utility.yul\":7389:7393   */\n      0x20\n        /* \"#utility.yul\":7381:7387   */\n      dup3\n        /* \"#utility.yul\":7377:7394   */\n      mul\n        /* \"#utility.yul\":7372:7375   */\n      dup6\n        /* \"#utility.yul\":7368:7395   */\n      add\n        /* \"#utility.yul\":7419:7496   */\n      tag_265\n        /* \"#utility.yul\":7490:7495   */\n      dup6\n        /* \"#utility.yul\":7419:7496   */\n      tag_142\n      jump\t// in\n    tag_265:\n        /* \"#utility.yul\":7519:7526   */\n      dup1\n        /* \"#utility.yul\":7550:7551   */\n      0x00\n        /* \"#utility.yul\":7535:7964   */\n    tag_266:\n        /* \"#utility.yul\":7560:7566   */\n      dup6\n        /* \"#utility.yul\":7557:7558   */\n      dup2\n        /* \"#utility.yul\":7554:7567   */\n      lt\n        /* \"#utility.yul\":7535:7964   */\n      iszero\n      tag_268\n      jumpi\n        /* \"#utility.yul\":7631:7640   */\n      dup5\n        /* \"#utility.yul\":7625:7629   */\n      dup5\n        /* \"#utility.yul\":7621:7641   */\n      sub\n        /* \"#utility.yul\":7616:7619   */\n      dup10\n        /* \"#utility.yul\":7609:7642   */\n      mstore\n        /* \"#utility.yul\":7682:7688   */\n      dup2\n        /* \"#utility.yul\":7676:7689   */\n      mload\n        /* \"#utility.yul\":7710:7816   */\n      tag_269\n        /* \"#utility.yul\":7811:7815   */\n      dup6\n        /* \"#utility.yul\":7796:7809   */\n      dup3\n        /* \"#utility.yul\":7710:7816   */\n      tag_148\n      jump\t// in\n    tag_269:\n        /* \"#utility.yul\":7702:7816   */\n      swap5\n      pop\n        /* \"#utility.yul\":7839:7920   */\n      tag_270\n        /* \"#utility.yul\":7913:7919   */\n      dup4\n        /* \"#utility.yul\":7839:7920   */\n      tag_149\n      jump\t// in\n    tag_270:\n        /* \"#utility.yul\":7829:7920   */\n      swap3\n      pop\n        /* \"#utility.yul\":7949:7953   */\n      0x20\n        /* \"#utility.yul\":7944:7947   */\n      dup11\n        /* \"#utility.yul\":7940:7954   */\n      add\n        /* \"#utility.yul\":7933:7954   */\n      swap10\n      pop\n        /* \"#utility.yul\":7595:7964   */\n      pop\n        /* \"#utility.yul\":7582:7583   */\n      0x01\n        /* \"#utility.yul\":7579:7580   */\n      dup2\n        /* \"#utility.yul\":7575:7584   */\n      add\n        /* \"#utility.yul\":7570:7584   */\n      swap1\n      pop\n        /* \"#utility.yul\":7535:7964   */\n      jump(tag_266)\n    tag_268:\n        /* \"#utility.yul\":7539:7553   */\n      pop\n        /* \"#utility.yul\":7980:7984   */\n      dup3\n        /* \"#utility.yul\":7973:7984   */\n      swap8\n      pop\n        /* \"#utility.yul\":8000:8003   */\n      dup8\n        /* \"#utility.yul\":7993:8003   */\n      swap6\n      pop\n        /* \"#utility.yul\":7096:8009   */\n      pop\n      pop\n      pop\n      pop\n      pop\n        /* \"#utility.yul\":6930:8009   */\n      swap3\n      swap2\n      pop\n      pop\n      jump\t// out\n        /* \"#utility.yul\":8015:8472   */\n    tag_24:\n        /* \"#utility.yul\":8200:8204   */\n      0x00\n        /* \"#utility.yul\":8238:8240   */\n      0x20\n        /* \"#utility.yul\":8227:8236   */\n      dup3\n        /* \"#utility.yul\":8223:8241   */\n      add\n        /* \"#utility.yul\":8215:8241   */\n      swap1\n      pop\n        /* \"#utility.yul\":8287:8296   */\n      dup2\n        /* \"#utility.yul\":8281:8285   */\n      dup2\n        /* \"#utility.yul\":8277:8297   */\n      sub\n        /* \"#utility.yul\":8273:8274   */\n      0x00\n        /* \"#utility.yul\":8262:8271   */\n      dup4\n        /* \"#utility.yul\":8258:8275   */\n      add\n        /* \"#utility.yul\":8251:8298   */\n      mstore\n        /* \"#utility.yul\":8315:8465   */\n      tag_272\n        /* \"#utility.yul\":8460:8464   */\n      dup2\n        /* \"#utility.yul\":8451:8457   */\n      dup5\n        /* \"#utility.yul\":8315:8465   */\n      tag_150\n      jump\t// in\n    tag_272:\n        /* \"#utility.yul\":8307:8465   */\n      swap1\n      pop\n        /* \"#utility.yul\":8015:8472   */\n      swap3\n      swap2\n      pop\n      pop\n      jump\t// out\n        /* \"#utility.yul\":8478:8595   */\n    tag_151:\n        /* \"#utility.yul\":8587:8588   */\n      0x00\n        /* \"#utility.yul\":8584:8585   */\n      dup1\n        /* \"#utility.yul\":8577:8589   */\n      revert\n        /* \"#utility.yul\":8601:8718   */\n    tag_152:\n        /* \"#utility.yul\":8710:8711   */\n      0x00\n        /* \"#utility.yul\":8707:8708   */\n      dup1\n        /* \"#utility.yul\":8700:8712   */\n      revert\n        /* \"#utility.yul\":8724:8904   */\n    tag_153:\n        /* \"#utility.yul\":8772:8849   */\n      0x4e487b7100000000000000000000000000000000000000000000000000000000\n        /* \"#utility.yul\":8769:8770   */\n      0x00\n        /* \"#utility.yul\":8762:8850   */\n      mstore\n        /* \"#utility.yul\":8869:8873   */\n      0x41\n        /* \"#utility.yul\":8866:8867   */\n      0x04\n        /* \"#utility.yul\":8859:8874   */\n      mstore\n        /* \"#utility.yul\":8893:8897   */\n      0x24\n        /* \"#utility.yul\":8890:8891   */\n      0x00\n        /* \"#utility.yul\":8883:8898   */\n      revert\n        /* \"#utility.yul\":8910:9191   */\n    tag_154:\n        /* \"#utility.yul\":8993:9020   */\n      tag_277\n        /* \"#utility.yul\":9015:9019   */\n      dup3\n        /* \"#utility.yul\":8993:9020   */\n      tag_138\n      jump\t// in\n    tag_277:\n        /* \"#utility.yul\":8985:8991   */\n      dup2\n        /* \"#utility.yul\":8981:9021   */\n      add\n        /* \"#utility.yul\":9123:9129   */\n      dup2\n        /* \"#utility.yul\":9111:9121   */\n      dup2\n        /* \"#utility.yul\":9108:9130   */\n      lt\n        /* \"#utility.yul\":9087:9105   */\n      0xffffffffffffffff\n        /* \"#utility.yul\":9075:9085   */\n      dup3\n        /* \"#utility.yul\":9072:9106   */\n      gt\n        /* \"#utility.yul\":9069:9131   */\n      or\n        /* \"#utility.yul\":9066:9154   */\n      iszero\n      tag_278\n      jumpi\n        /* \"#utility.yul\":9134:9152   */\n      tag_279\n      tag_153\n      jump\t// in\n    tag_279:\n        /* \"#utility.yul\":9066:9154   */\n    tag_278:\n        /* \"#utility.yul\":9174:9184   */\n      dup1\n        /* \"#utility.yul\":9170:9172   */\n      0x40\n        /* \"#utility.yul\":9163:9185   */\n      mstore\n        /* \"#utility.yul\":8953:9191   */\n      pop\n        /* \"#utility.yul\":8910:9191   */\n      pop\n      pop\n      jump\t// out\n        /* \"#utility.yul\":9197:9326   */\n    tag_155:\n        /* \"#utility.yul\":9231:9237   */\n      0x00\n        /* \"#utility.yul\":9258:9278   */\n      tag_281\n      tag_123\n      jump\t// in\n    tag_281:\n        /* \"#utility.yul\":9248:9278   */\n      swap1\n      pop\n        /* \"#utility.yul\":9287:9320   */\n      tag_282\n        /* \"#utility.yul\":9315:9319   */\n      dup3\n        /* \"#utility.yul\":9307:9313   */\n      dup3\n        /* \"#utility.yul\":9287:9320   */\n      tag_154\n      jump\t// in\n    tag_282:\n        /* \"#utility.yul\":9197:9326   */\n      swap2\n      swap1\n      pop\n      jump\t// out\n        /* \"#utility.yul\":9332:9640   */\n    tag_156:\n        /* \"#utility.yul\":9394:9398   */\n      0x00\n        /* \"#utility.yul\":9484:9502   */\n      0xffffffffffffffff\n        /* \"#utility.yul\":9476:9482   */\n      dup3\n        /* \"#utility.yul\":9473:9503   */\n      gt\n        /* \"#utility.yul\":9470:9526   */\n      iszero\n      tag_284\n      jumpi\n        /* \"#utility.yul\":9506:9524   */\n      tag_285\n      tag_153\n      jump\t// in\n    tag_285:\n        /* \"#utility.yul\":9470:9526   */\n    tag_284:\n        /* \"#utility.yul\":9544:9573   */\n      tag_286\n        /* \"#utility.yul\":9566:9572   */\n      dup3\n        /* \"#utility.yul\":9544:9573   */\n      tag_138\n      jump\t// in\n    tag_286:\n        /* \"#utility.yul\":9536:9573   */\n      swap1\n      pop\n        /* \"#utility.yul\":9628:9632   */\n      0x20\n        /* \"#utility.yul\":9622:9626   */\n      dup2\n        /* \"#utility.yul\":9618:9633   */\n      add\n        /* \"#utility.yul\":9610:9633   */\n      swap1\n      pop\n        /* \"#utility.yul\":9332:9640   */\n      swap2\n      swap1\n      pop\n      jump\t// out\n        /* \"#utility.yul\":9646:9792   */\n    tag_157:\n        /* \"#utility.yul\":9743:9749   */\n      dup3\n        /* \"#utility.yul\":9738:9741   */\n      dup2\n        /* \"#utility.yul\":9733:9736   */\n      dup4\n        /* \"#utility.yul\":9720:9750   */\n      calldatacopy\n        /* \"#utility.yul\":9784:9785   */\n      0x00\n        /* \"#utility.yul\":9775:9781   */\n      dup4\n        /* \"#utility.yul\":9770:9773   */\n      dup4\n        /* \"#utility.yul\":9766:9782   */\n      add\n        /* \"#utility.yul\":9759:9786   */\n      mstore\n        /* \"#utility.yul\":9646:9792   */\n      pop\n      pop\n      pop\n      jump\t// out\n        /* \"#utility.yul\":9798:10223   */\n    tag_158:\n        /* \"#utility.yul\":9876:9881   */\n      0x00\n        /* \"#utility.yul\":9901:9967   */\n      tag_289\n        /* \"#utility.yul\":9917:9966   */\n      tag_290\n        /* \"#utility.yul\":9959:9965   */\n      dup5\n        /* \"#utility.yul\":9917:9966   */\n      tag_156\n      jump\t// in\n    tag_290:\n        /* \"#utility.yul\":9901:9967   */\n      tag_155\n      jump\t// in\n    tag_289:\n        /* \"#utility.yul\":9892:9967   */\n      swap1\n      pop\n        /* \"#utility.yul\":9990:9996   */\n      dup3\n        /* \"#utility.yul\":9983:9988   */\n      dup2\n        /* \"#utility.yul\":9976:9997   */\n      mstore\n        /* \"#utility.yul\":10028:10032   */\n      0x20\n        /* \"#utility.yul\":10021:10026   */\n      dup2\n        /* \"#utility.yul\":10017:10033   */\n      add\n        /* \"#utility.yul\":10066:10069   */\n      dup5\n        /* \"#utility.yul\":10057:10063   */\n      dup5\n        /* \"#utility.yul\":10052:10055   */\n      dup5\n        /* \"#utility.yul\":10048:10064   */\n      add\n        /* \"#utility.yul\":10045:10070   */\n      gt\n        /* \"#utility.yul\":10042:10154   */\n      iszero\n      tag_291\n      jumpi\n        /* \"#utility.yul\":10073:10152   */\n      tag_292\n      tag_152\n      jump\t// in\n    tag_292:\n        /* \"#utility.yul\":10042:10154   */\n    tag_291:\n        /* \"#utility.yul\":10163:10217   */\n      tag_293\n        /* \"#utility.yul\":10210:10216   */\n      dup5\n        /* \"#utility.yul\":10205:10208   */\n      dup3\n        /* \"#utility.yul\":10200:10203   */\n      dup6\n        /* \"#utility.yul\":10163:10217   */\n      tag_157\n      jump\t// in\n    tag_293:\n        /* \"#utility.yul\":9882:10223   */\n      pop\n        /* \"#utility.yul\":9798:10223   */\n      swap4\n      swap3\n      pop\n      pop\n      pop\n      jump\t// out\n        /* \"#utility.yul\":10243:10583   */\n    tag_159:\n        /* \"#utility.yul\":10299:10304   */\n      0x00\n        /* \"#utility.yul\":10348:10351   */\n      dup3\n        /* \"#utility.yul\":10341:10345   */\n      0x1f\n        /* \"#utility.yul\":10333:10339   */\n      dup4\n        /* \"#utility.yul\":10329:10346   */\n      add\n        /* \"#utility.yul\":10325:10352   */\n      slt\n        /* \"#utility.yul\":10315:10437   */\n      tag_295\n      jumpi\n        /* \"#utility.yul\":10356:10435   */\n      tag_296\n      tag_151\n      jump\t// in\n    tag_296:\n        /* \"#utility.yul\":10315:10437   */\n    tag_295:\n        /* \"#utility.yul\":10473:10479   */\n      dup2\n        /* \"#utility.yul\":10460:10480   */\n      calldataload\n        /* \"#utility.yul\":10498:10577   */\n      tag_297\n        /* \"#utility.yul\":10573:10576   */\n      dup5\n        /* \"#utility.yul\":10565:10571   */\n      dup3\n        /* \"#utility.yul\":10558:10562   */\n      0x20\n        /* \"#utility.yul\":10550:10556   */\n      dup7\n        /* \"#utility.yul\":10546:10563   */\n      add\n        /* \"#utility.yul\":10498:10577   */\n      tag_158\n      jump\t// in\n    tag_297:\n        /* \"#utility.yul\":10489:10577   */\n      swap2\n      pop\n        /* \"#utility.yul\":10305:10583   */\n      pop\n        /* \"#utility.yul\":10243:10583   */\n      swap3\n      swap2\n      pop\n      pop\n      jump\t// out\n        /* \"#utility.yul\":10589:11098   */\n    tag_27:\n        /* \"#utility.yul\":10658:10664   */\n      0x00\n        /* \"#utility.yul\":10707:10709   */\n      0x20\n        /* \"#utility.yul\":10695:10704   */\n      dup3\n        /* \"#utility.yul\":10686:10693   */\n      dup5\n        /* \"#utility.yul\":10682:10705   */\n      sub\n        /* \"#utility.yul\":10678:10710   */\n      slt\n        /* \"#utility.yul\":10675:10794   */\n      iszero\n      tag_299\n      jumpi\n        /* \"#utility.yul\":10713:10792   */\n      tag_300\n      tag_124\n      jump\t// in\n    tag_300:\n        /* \"#utility.yul\":10675:10794   */\n    tag_299:\n        /* \"#utility.yul\":10861:10862   */\n      0x00\n        /* \"#utility.yul\":10850:10859   */\n      dup3\n        /* \"#utility.yul\":10846:10863   */\n      add\n        /* \"#utility.yul\":10833:10864   */\n      calldataload\n        /* \"#utility.yul\":10891:10909   */\n      0xffffffffffffffff\n        /* \"#utility.yul\":10883:10889   */\n      dup2\n        /* \"#utility.yul\":10880:10910   */\n      gt\n        /* \"#utility.yul\":10877:10994   */\n      iszero\n      tag_301\n      jumpi\n        /* \"#utility.yul\":10913:10992   */\n      tag_302\n      tag_125\n      jump\t// in\n    tag_302:\n        /* \"#utility.yul\":10877:10994   */\n    tag_301:\n        /* \"#utility.yul\":11018:11081   */\n      tag_303\n        /* \"#utility.yul\":11073:11080   */\n      dup5\n        /* \"#utility.yul\":11064:11070   */\n      dup3\n        /* \"#utility.yul\":11053:11062   */\n      dup6\n        /* \"#utility.yul\":11049:11071   */\n      add\n        /* \"#utility.yul\":11018:11081   */\n      tag_159\n      jump\t// in\n    tag_303:\n        /* \"#utility.yul\":11008:11081   */\n      swap2\n      pop\n        /* \"#utility.yul\":10804:11091   */\n      pop\n        /* \"#utility.yul\":10589:11098   */\n      swap3\n      swap2\n      pop\n      pop\n      jump\t// out\n        /* \"#utility.yul\":11104:11326   */\n    tag_38:\n        /* \"#utility.yul\":11197:11201   */\n      0x00\n        /* \"#utility.yul\":11235:11237   */\n      0x20\n        /* \"#utility.yul\":11224:11233   */\n      dup3\n        /* \"#utility.yul\":11220:11238   */\n      add\n        /* \"#utility.yul\":11212:11238   */\n      swap1\n      pop\n        /* \"#utility.yul\":11248:11319   */\n      tag_305\n        /* \"#utility.yul\":11316:11317   */\n      0x00\n        /* \"#utility.yul\":11305:11314   */\n      dup4\n        /* \"#utility.yul\":11301:11318   */\n      add\n        /* \"#utility.yul\":11292:11298   */\n      dup5\n        /* \"#utility.yul\":11248:11319   */\n      tag_134\n      jump\t// in\n    tag_305:\n        /* \"#utility.yul\":11104:11326   */\n      swap3\n      swap2\n      pop\n      pop\n      jump\t// out\n        /* \"#utility.yul\":11332:11421   */\n    tag_160:\n        /* \"#utility.yul\":11368:11375   */\n      0x00\n        /* \"#utility.yul\":11408:11414   */\n      0xffff\n        /* \"#utility.yul\":11401:11406   */\n      dup3\n        /* \"#utility.yul\":11397:11415   */\n      and\n        /* \"#utility.yul\":11386:11415   */\n      swap1\n      pop\n        /* \"#utility.yul\":11332:11421   */\n      swap2\n      swap1\n      pop\n      jump\t// out\n        /* \"#utility.yul\":11427:11547   */\n    tag_161:\n        /* \"#utility.yul\":11499:11522   */\n      tag_308\n        /* \"#utility.yul\":11516:11521   */\n      dup2\n        /* \"#utility.yul\":11499:11522   */\n      tag_160\n      jump\t// in\n    tag_308:\n        /* \"#utility.yul\":11492:11497   */\n      dup2\n        /* \"#utility.yul\":11489:11523   */\n      eq\n        /* \"#utility.yul\":11479:11541   */\n      tag_309\n      jumpi\n        /* \"#utility.yul\":11537:11538   */\n      0x00\n        /* \"#utility.yul\":11534:11535   */\n      dup1\n        /* \"#utility.yul\":11527:11539   */\n      revert\n        /* \"#utility.yul\":11479:11541   */\n    tag_309:\n        /* \"#utility.yul\":11427:11547   */\n      pop\n      jump\t// out\n        /* \"#utility.yul\":11553:11690   */\n    tag_162:\n        /* \"#utility.yul\":11598:11603   */\n      0x00\n        /* \"#utility.yul\":11636:11642   */\n      dup2\n        /* \"#utility.yul\":11623:11643   */\n      calldataload\n        /* \"#utility.yul\":11614:11643   */\n      swap1\n      pop\n        /* \"#utility.yul\":11652:11684   */\n      tag_311\n        /* \"#utility.yul\":11678:11683   */\n      dup2\n        /* \"#utility.yul\":11652:11684   */\n      tag_161\n      jump\t// in\n    tag_311:\n        /* \"#utility.yul\":11553:11690   */\n      swap3\n      swap2\n      pop\n      pop\n      jump\t// out\n        /* \"#utility.yul\":11696:12023   */\n    tag_41:\n        /* \"#utility.yul\":11754:11760   */\n      0x00\n        /* \"#utility.yul\":11803:11805   */\n      0x20\n        /* \"#utility.yul\":11791:11800   */\n      dup3\n        /* \"#utility.yul\":11782:11789   */\n      dup5\n        /* \"#utility.yul\":11778:11801   */\n      sub\n        /* \"#utility.yul\":11774:11806   */\n      slt\n        /* \"#utility.yul\":11771:11890   */\n      iszero\n      tag_313\n      jumpi\n        /* \"#utility.yul\":11809:11888   */\n      tag_314\n      tag_124\n      jump\t// in\n    tag_314:\n        /* \"#utility.yul\":11771:11890   */\n    tag_313:\n        /* \"#utility.yul\":11929:11930   */\n      0x00\n        /* \"#utility.yul\":11954:12006   */\n      tag_315\n        /* \"#utility.yul\":11998:12005   */\n      dup5\n        /* \"#utility.yul\":11989:11995   */\n      dup3\n        /* \"#utility.yul\":11978:11987   */\n      dup6\n        /* \"#utility.yul\":11974:11996   */\n      add\n        /* \"#utility.yul\":11954:12006   */\n      tag_162\n      jump\t// in\n    tag_315:\n        /* \"#utility.yul\":11944:12006   */\n      swap2\n      pop\n        /* \"#utility.yul\":11900:12016   */\n      pop\n        /* \"#utility.yul\":11696:12023   */\n      swap3\n      swap2\n      pop\n      pop\n      jump\t// out\n        /* \"#utility.yul\":12029:12128   */\n    tag_163:\n        /* \"#utility.yul\":12065:12072   */\n      0x00\n        /* \"#utility.yul\":12105:12121   */\n      0xffffffffffffff\n        /* \"#utility.yul\":12098:12103   */\n      dup3\n        /* \"#utility.yul\":12094:12122   */\n      and\n        /* \"#utility.yul\":12083:12122   */\n      swap1\n      pop\n        /* \"#utility.yul\":12029:12128   */\n      swap2\n      swap1\n      pop\n      jump\t// out\n        /* \"#utility.yul\":12134:12249   */\n    tag_164:\n        /* \"#utility.yul\":12219:12242   */\n      tag_318\n        /* \"#utility.yul\":12236:12241   */\n      dup2\n        /* \"#utility.yul\":12219:12242   */\n      tag_163\n      jump\t// in\n    tag_318:\n        /* \"#utility.yul\":12214:12217   */\n      dup3\n        /* \"#utility.yul\":12207:12243   */\n      mstore\n        /* \"#utility.yul\":12134:12249   */\n      pop\n      pop\n      jump\t// out\n        /* \"#utility.yul\":12255:12473   */\n    tag_46:\n        /* \"#utility.yul\":12346:12350   */\n      0x00\n        /* \"#utility.yul\":12384:12386   */\n      0x20\n        /* \"#utility.yul\":12373:12382   */\n      dup3\n        /* \"#utility.yul\":12369:12387   */\n      add\n        /* \"#utility.yul\":12361:12387   */\n      swap1\n      pop\n        /* \"#utility.yul\":12397:12466   */\n      tag_320\n        /* \"#utility.yul\":12463:12464   */\n      0x00\n        /* \"#utility.yul\":12452:12461   */\n      dup4\n        /* \"#utility.yul\":12448:12465   */\n      add\n        /* \"#utility.yul\":12439:12445   */\n      dup5\n        /* \"#utility.yul\":12397:12466   */\n      tag_164\n      jump\t// in\n    tag_320:\n        /* \"#utility.yul\":12255:12473   */\n      swap3\n      swap2\n      pop\n      pop\n      jump\t// out\n        /* \"#utility.yul\":12479:12808   */\n    tag_49:\n        /* \"#utility.yul\":12538:12544   */\n      0x00\n        /* \"#utility.yul\":12587:12589   */\n      0x20\n        /* \"#utility.yul\":12575:12584   */\n      dup3\n        /* \"#utility.yul\":12566:12573   */\n      dup5\n        /* \"#utility.yul\":12562:12585   */\n      sub\n        /* \"#utility.yul\":12558:12590   */\n      slt\n        /* \"#utility.yul\":12555:12674   */\n      iszero\n      tag_322\n      jumpi\n        /* \"#utility.yul\":12593:12672   */\n      tag_323\n      tag_124\n      jump\t// in\n    tag_323:\n        /* \"#utility.yul\":12555:12674   */\n    tag_322:\n        /* \"#utility.yul\":12713:12714   */\n      0x00\n        /* \"#utility.yul\":12738:12791   */\n      tag_324\n        /* \"#utility.yul\":12783:12790   */\n      dup5\n        /* \"#utility.yul\":12774:12780   */\n      dup3\n        /* \"#utility.yul\":12763:12772   */\n      dup6\n        /* \"#utility.yul\":12759:12781   */\n      add\n        /* \"#utility.yul\":12738:12791   */\n      tag_132\n      jump\t// in\n    tag_324:\n        /* \"#utility.yul\":12728:12791   */\n      swap2\n      pop\n        /* \"#utility.yul\":12684:12801   */\n      pop\n        /* \"#utility.yul\":12479:12808   */\n      swap3\n      swap2\n      pop\n      pop\n      jump\t// out\n        /* \"#utility.yul\":12866:13995   */\n    tag_165:\n        /* \"#utility.yul\":12977:12980   */\n      0x00\n        /* \"#utility.yul\":13013:13017   */\n      0xa0\n        /* \"#utility.yul\":13008:13011   */\n      dup4\n        /* \"#utility.yul\":13004:13018   */\n      add\n        /* \"#utility.yul\":13098:13102   */\n      0x00\n        /* \"#utility.yul\":13091:13096   */\n      dup4\n        /* \"#utility.yul\":13087:13103   */\n      add\n        /* \"#utility.yul\":13081:13104   */\n      mload\n        /* \"#utility.yul\":13117:13180   */\n      tag_326\n        /* \"#utility.yul\":13174:13178   */\n      0x00\n        /* \"#utility.yul\":13169:13172   */\n      dup7\n        /* \"#utility.yul\":13165:13179   */\n      add\n        /* \"#utility.yul\":13151:13163   */\n      dup3\n        /* \"#utility.yul\":13117:13180   */\n      tag_143\n      jump\t// in\n    tag_326:\n        /* \"#utility.yul\":13028:13190   */\n      pop\n        /* \"#utility.yul\":13274:13278   */\n      0x20\n        /* \"#utility.yul\":13267:13272   */\n      dup4\n        /* \"#utility.yul\":13263:13279   */\n      add\n        /* \"#utility.yul\":13257:13280   */\n      mload\n        /* \"#utility.yul\":13293:13356   */\n      tag_327\n        /* \"#utility.yul\":13350:13354   */\n      0x20\n        /* \"#utility.yul\":13345:13348   */\n      dup7\n        /* \"#utility.yul\":13341:13355   */\n      add\n        /* \"#utility.yul\":13327:13339   */\n      dup3\n        /* \"#utility.yul\":13293:13356   */\n      tag_144\n      jump\t// in\n    tag_327:\n        /* \"#utility.yul\":13200:13366   */\n      pop\n        /* \"#utility.yul\":13451:13455   */\n      0x40\n        /* \"#utility.yul\":13444:13449   */\n      dup4\n        /* \"#utility.yul\":13440:13456   */\n      add\n        /* \"#utility.yul\":13434:13457   */\n      mload\n        /* \"#utility.yul\":13504:13507   */\n      dup5\n        /* \"#utility.yul\":13498:13502   */\n      dup3\n        /* \"#utility.yul\":13494:13508   */\n      sub\n        /* \"#utility.yul\":13487:13491   */\n      0x40\n        /* \"#utility.yul\":13482:13485   */\n      dup7\n        /* \"#utility.yul\":13478:13492   */\n      add\n        /* \"#utility.yul\":13471:13509   */\n      mstore\n        /* \"#utility.yul\":13530:13603   */\n      tag_328\n        /* \"#utility.yul\":13598:13602   */\n      dup3\n        /* \"#utility.yul\":13584:13596   */\n      dup3\n        /* \"#utility.yul\":13530:13603   */\n      tag_146\n      jump\t// in\n    tag_328:\n        /* \"#utility.yul\":13522:13603   */\n      swap2\n      pop\n        /* \"#utility.yul\":13376:13614   */\n      pop\n        /* \"#utility.yul\":13701:13705   */\n      0x60\n        /* \"#utility.yul\":13694:13699   */\n      dup4\n        /* \"#utility.yul\":13690:13706   */\n      add\n        /* \"#utility.yul\":13684:13707   */\n      mload\n        /* \"#utility.yul\":13720:13783   */\n      tag_329\n        /* \"#utility.yul\":13777:13781   */\n      0x60\n        /* \"#utility.yul\":13772:13775   */\n      dup7\n        /* \"#utility.yul\":13768:13782   */\n      add\n        /* \"#utility.yul\":13754:13766   */\n      dup3\n        /* \"#utility.yul\":13720:13783   */\n      tag_143\n      jump\t// in\n    tag_329:\n        /* \"#utility.yul\":13624:13793   */\n      pop\n        /* \"#utility.yul\":13876:13880   */\n      0x80\n        /* \"#utility.yul\":13869:13874   */\n      dup4\n        /* \"#utility.yul\":13865:13881   */\n      add\n        /* \"#utility.yul\":13859:13882   */\n      mload\n        /* \"#utility.yul\":13895:13958   */\n      tag_330\n        /* \"#utility.yul\":13952:13956   */\n      0x80\n        /* \"#utility.yul\":13947:13950   */\n      dup7\n        /* \"#utility.yul\":13943:13957   */\n      add\n        /* \"#utility.yul\":13929:13941   */\n      dup3\n        /* \"#utility.yul\":13895:13958   */\n      tag_143\n      jump\t// in\n    tag_330:\n        /* \"#utility.yul\":13803:13968   */\n      pop\n        /* \"#utility.yul\":13985:13989   */\n      dup1\n        /* \"#utility.yul\":13978:13989   */\n      swap2\n      pop\n        /* \"#utility.yul\":12982:13995   */\n      pop\n        /* \"#utility.yul\":12866:13995   */\n      swap3\n      swap2\n      pop\n      pop\n      jump\t// out\n        /* \"#utility.yul\":14001:14358   */\n    tag_52:\n        /* \"#utility.yul\":14136:14140   */\n      0x00\n        /* \"#utility.yul\":14174:14176   */\n      0x20\n        /* \"#utility.yul\":14163:14172   */\n      dup3\n        /* \"#utility.yul\":14159:14177   */\n      add\n        /* \"#utility.yul\":14151:14177   */\n      swap1\n      pop\n        /* \"#utility.yul\":14223:14232   */\n      dup2\n        /* \"#utility.yul\":14217:14221   */\n      dup2\n        /* \"#utility.yul\":14213:14233   */\n      sub\n        /* \"#utility.yul\":14209:14210   */\n      0x00\n        /* \"#utility.yul\":14198:14207   */\n      dup4\n        /* \"#utility.yul\":14194:14211   */\n      add\n        /* \"#utility.yul\":14187:14234   */\n      mstore\n        /* \"#utility.yul\":14251:14351   */\n      tag_332\n        /* \"#utility.yul\":14346:14350   */\n      dup2\n        /* \"#utility.yul\":14337:14343   */\n      dup5\n        /* \"#utility.yul\":14251:14351   */\n      tag_165\n      jump\t// in\n    tag_332:\n        /* \"#utility.yul\":14243:14351   */\n      swap1\n      pop\n        /* \"#utility.yul\":14001:14358   */\n      swap3\n      swap2\n      pop\n      pop\n      jump\t// out\n        /* \"#utility.yul\":14364:14544   */\n    tag_166:\n        /* \"#utility.yul\":14412:14489   */\n      0x4e487b7100000000000000000000000000000000000000000000000000000000\n        /* \"#utility.yul\":14409:14410   */\n      0x00\n        /* \"#utility.yul\":14402:14490   */\n      mstore\n        /* \"#utility.yul\":14509:14513   */\n      0x22\n        /* \"#utility.yul\":14506:14507   */\n      0x04\n        /* \"#utility.yul\":14499:14514   */\n      mstore\n        /* \"#utility.yul\":14533:14537   */\n      0x24\n        /* \"#utility.yul\":14530:14531   */\n      0x00\n        /* \"#utility.yul\":14523:14538   */\n      revert\n        /* \"#utility.yul\":14550:14870   */\n    tag_56:\n        /* \"#utility.yul\":14594:14600   */\n      0x00\n        /* \"#utility.yul\":14631:14632   */\n      0x02\n        /* \"#utility.yul\":14625:14629   */\n      dup3\n        /* \"#utility.yul\":14621:14633   */\n      div\n        /* \"#utility.yul\":14611:14633   */\n      swap1\n      pop\n        /* \"#utility.yul\":14678:14679   */\n      0x01\n        /* \"#utility.yul\":14672:14676   */\n      dup3\n        /* \"#utility.yul\":14668:14680   */\n      and\n        /* \"#utility.yul\":14699:14717   */\n      dup1\n        /* \"#utility.yul\":14689:14770   */\n      tag_335\n      jumpi\n        /* \"#utility.yul\":14755:14759   */\n      0x7f\n        /* \"#utility.yul\":14747:14753   */\n      dup3\n        /* \"#utility.yul\":14743:14760   */\n      and\n        /* \"#utility.yul\":14733:14760   */\n      swap2\n      pop\n        /* \"#utility.yul\":14689:14770   */\n    tag_335:\n        /* \"#utility.yul\":14817:14819   */\n      0x20\n        /* \"#utility.yul\":14809:14815   */\n      dup3\n        /* \"#utility.yul\":14806:14820   */\n      lt\n        /* \"#utility.yul\":14786:14804   */\n      dup2\n        /* \"#utility.yul\":14783:14821   */\n      sub\n        /* \"#utility.yul\":14780:14864   */\n      tag_336\n      jumpi\n        /* \"#utility.yul\":14836:14854   */\n      tag_337\n      tag_166\n      jump\t// in\n    tag_337:\n        /* \"#utility.yul\":14780:14864   */\n    tag_336:\n        /* \"#utility.yul\":14601:14870   */\n      pop\n        /* \"#utility.yul\":14550:14870   */\n      swap2\n      swap1\n      pop\n      jump\t// out\n        /* \"#utility.yul\":14876:15054   */\n    tag_167:\n        /* \"#utility.yul\":15016:15046   */\n      0x5468697320747765657420697320746f6f206c6f6e672062726f212100000000\n        /* \"#utility.yul\":15012:15013   */\n      0x00\n        /* \"#utility.yul\":15004:15010   */\n      dup3\n        /* \"#utility.yul\":15000:15014   */\n      add\n        /* \"#utility.yul\":14993:15047   */\n      mstore\n        /* \"#utility.yul\":14876:15054   */\n      pop\n      jump\t// out\n        /* \"#utility.yul\":15060:15426   */\n    tag_168:\n        /* \"#utility.yul\":15202:15205   */\n      0x00\n        /* \"#utility.yul\":15223:15290   */\n      tag_340\n        /* \"#utility.yul\":15287:15289   */\n      0x1c\n        /* \"#utility.yul\":15282:15285   */\n      dup4\n        /* \"#utility.yul\":15223:15290   */\n      tag_136\n      jump\t// in\n    tag_340:\n        /* \"#utility.yul\":15216:15290   */\n      swap2\n      pop\n        /* \"#utility.yul\":15299:15392   */\n      tag_341\n        /* \"#utility.yul\":15388:15391   */\n      dup3\n        /* \"#utility.yul\":15299:15392   */\n      tag_167\n      jump\t// in\n    tag_341:\n        /* \"#utility.yul\":15417:15419   */\n      0x20\n        /* \"#utility.yul\":15412:15415   */\n      dup3\n        /* \"#utility.yul\":15408:15420   */\n      add\n        /* \"#utility.yul\":15401:15420   */\n      swap1\n      pop\n        /* \"#utility.yul\":15060:15426   */\n      swap2\n      swap1\n      pop\n      jump\t// out\n        /* \"#utility.yul\":15432:15851   */\n    tag_73:\n        /* \"#utility.yul\":15598:15602   */\n      0x00\n        /* \"#utility.yul\":15636:15638   */\n      0x20\n        /* \"#utility.yul\":15625:15634   */\n      dup3\n        /* \"#utility.yul\":15621:15639   */\n      add\n        /* \"#utility.yul\":15613:15639   */\n      swap1\n      pop\n        /* \"#utility.yul\":15685:15694   */\n      dup2\n        /* \"#utility.yul\":15679:15683   */\n      dup2\n        /* \"#utility.yul\":15675:15695   */\n      sub\n        /* \"#utility.yul\":15671:15672   */\n      0x00\n        /* \"#utility.yul\":15660:15669   */\n      dup4\n        /* \"#utility.yul\":15656:15673   */\n      add\n        /* \"#utility.yul\":15649:15696   */\n      mstore\n        /* \"#utility.yul\":15713:15844   */\n      tag_343\n        /* \"#utility.yul\":15839:15843   */\n      dup2\n        /* \"#utility.yul\":15713:15844   */\n      tag_168\n      jump\t// in\n    tag_343:\n        /* \"#utility.yul\":15705:15844   */\n      swap1\n      pop\n        /* \"#utility.yul\":15432:15851   */\n      swap2\n      swap1\n      pop\n      jump\t// out\n        /* \"#utility.yul\":15857:15998   */\n    tag_169:\n        /* \"#utility.yul\":15906:15910   */\n      0x00\n        /* \"#utility.yul\":15929:15932   */\n      dup2\n        /* \"#utility.yul\":15921:15932   */\n      swap1\n      pop\n        /* \"#utility.yul\":15952:15955   */\n      dup2\n        /* \"#utility.yul\":15949:15950   */\n      0x00\n        /* \"#utility.yul\":15942:15956   */\n      mstore\n        /* \"#utility.yul\":15986:15990   */\n      0x20\n        /* \"#utility.yul\":15983:15984   */\n      0x00\n        /* \"#utility.yul\":15973:15991   */\n      keccak256\n        /* \"#utility.yul\":15965:15991   */\n      swap1\n      pop\n        /* \"#utility.yul\":15857:15998   */\n      swap2\n      swap1\n      pop\n      jump\t// out\n        /* \"#utility.yul\":16004:16097   */\n    tag_170:\n        /* \"#utility.yul\":16041:16047   */\n      0x00\n        /* \"#utility.yul\":16088:16090   */\n      0x20\n        /* \"#utility.yul\":16083:16085   */\n      0x1f\n        /* \"#utility.yul\":16076:16081   */\n      dup4\n        /* \"#utility.yul\":16072:16086   */\n      add\n        /* \"#utility.yul\":16068:16091   */\n      div\n        /* \"#utility.yul\":16058:16091   */\n      swap1\n      pop\n        /* \"#utility.yul\":16004:16097   */\n      swap2\n      swap1\n      pop\n      jump\t// out\n        /* \"#utility.yul\":16103:16210   */\n    tag_171:\n        /* \"#utility.yul\":16147:16155   */\n      0x00\n        /* \"#utility.yul\":16197:16202   */\n      dup3\n        /* \"#utility.yul\":16191:16195   */\n      dup3\n        /* \"#utility.yul\":16187:16203   */\n      shl\n        /* \"#utility.yul\":16166:16203   */\n      swap1\n      pop\n        /* \"#utility.yul\":16103:16210   */\n      swap3\n      swap2\n      pop\n      pop\n      jump\t// out\n        /* \"#utility.yul\":16216:16609   */\n    tag_172:\n        /* \"#utility.yul\":16285:16291   */\n      0x00\n        /* \"#utility.yul\":16335:16336   */\n      0x08\n        /* \"#utility.yul\":16323:16333   */\n      dup4\n        /* \"#utility.yul\":16319:16337   */\n      mul\n        /* \"#utility.yul\":16358:16455   */\n      tag_348\n        /* \"#utility.yul\":16388:16454   */\n      0xffffffffffffffffffffffffffffffffffffffffffffffffffffffffffffffff\n        /* \"#utility.yul\":16377:16386   */\n      dup3\n        /* \"#utility.yul\":16358:16455   */\n      tag_171\n      jump\t// in\n    tag_348:\n        /* \"#utility.yul\":16476:16515   */\n      tag_349\n        /* \"#utility.yul\":16506:16514   */\n      dup7\n        /* \"#utility.yul\":16495:16504   */\n      dup4\n        /* \"#utility.yul\":16476:16515   */\n      tag_171\n      jump\t// in\n    tag_349:\n        /* \"#utility.yul\":16464:16515   */\n      swap6\n      pop\n        /* \"#utility.yul\":16548:16552   */\n      dup1\n        /* \"#utility.yul\":16544:16553   */\n      not\n        /* \"#utility.yul\":16537:16542   */\n      dup5\n        /* \"#utility.yul\":16533:16554   */\n      and\n        /* \"#utility.yul\":16524:16554   */\n      swap4\n      pop\n        /* \"#utility.yul\":16597:16601   */\n      dup1\n        /* \"#utility.yul\":16587:16595   */\n      dup7\n        /* \"#utility.yul\":16583:16602   */\n      and\n        /* \"#utility.yul\":16576:16581   */\n      dup5\n        /* \"#utility.yul\":16573:16603   */\n      or\n        /* \"#utility.yul\":16563:16603   */\n      swap3\n      pop\n        /* \"#utility.yul\":16292:16609   */\n      pop\n      pop\n        /* \"#utility.yul\":16216:16609   */\n      swap4\n      swap3\n      pop\n      pop\n      pop\n      jump\t// out\n        /* \"#utility.yul\":16615:16675   */\n    tag_173:\n        /* \"#utility.yul\":16643:16646   */\n      0x00\n        /* \"#utility.yul\":16664:16669   */\n      dup2\n        /* \"#utility.yul\":16657:16669   */\n      swap1\n      pop\n        /* \"#utility.yul\":16615:16675   */\n      swap2\n      swap1\n      pop\n      jump\t// out\n        /* \"#utility.yul\":16681:16823   */\n    tag_174:\n        /* \"#utility.yul\":16731:16740   */\n      0x00\n        /* \"#utility.yul\":16764:16817   */\n      tag_352\n        /* \"#utility.yul\":16782:16816   */\n      tag_353\n        /* \"#utility.yul\":16791:16815   */\n      tag_354\n        /* \"#utility.yul\":16809:16814   */\n      dup5\n        /* \"#utility.yul\":16791:16815   */\n      tag_130\n      jump\t// in\n    tag_354:\n        /* \"#utility.yul\":16782:16816   */\n      tag_173\n      jump\t// in\n    tag_353:\n        /* \"#utility.yul\":16764:16817   */\n      tag_130\n      jump\t// in\n    tag_352:\n        /* \"#utility.yul\":16751:16817   */\n      swap1\n      pop\n        /* \"#utility.yul\":16681:16823   */\n      swap2\n      swap1\n      pop\n      jump\t// out\n        /* \"#utility.yul\":16829:16904   */\n    tag_175:\n        /* \"#utility.yul\":16872:16875   */\n      0x00\n        /* \"#utility.yul\":16893:16898   */\n      dup2\n        /* \"#utility.yul\":16886:16898   */\n      swap1\n      pop\n        /* \"#utility.yul\":16829:16904   */\n      swap2\n      swap1\n      pop\n      jump\t// out\n        /* \"#utility.yul\":16910:17179   */\n    tag_176:\n        /* \"#utility.yul\":17020:17059   */\n      tag_357\n        /* \"#utility.yul\":17051:17058   */\n      dup4\n        /* \"#utility.yul\":17020:17059   */\n      tag_174\n      jump\t// in\n    tag_357:\n        /* \"#utility.yul\":17081:17172   */\n      tag_358\n        /* \"#utility.yul\":17130:17171   */\n      tag_359\n        /* \"#utility.yul\":17154:17170   */\n      dup3\n        /* \"#utility.yul\":17130:17171   */\n      tag_175\n      jump\t// in\n    tag_359:\n        /* \"#utility.yul\":17122:17128   */\n      dup5\n        /* \"#utility.yul\":17115:17119   */\n      dup5\n        /* \"#utility.yul\":17109:17120   */\n      sload\n        /* \"#utility.yul\":17081:17172   */\n      tag_172\n      jump\t// in\n    tag_358:\n        /* \"#utility.yul\":17075:17079   */\n      dup3\n        /* \"#utility.yul\":17068:17173   */\n      sstore\n        /* \"#utility.yul\":16986:17179   */\n      pop\n        /* \"#utility.yul\":16910:17179   */\n      pop\n      pop\n      pop\n      jump\t// out\n        /* \"#utility.yul\":17185:17258   */\n    tag_177:\n        /* \"#utility.yul\":17230:17233   */\n      0x00\n        /* \"#utility.yul\":17185:17258   */\n      swap1\n      jump\t// out\n        /* \"#utility.yul\":17264:17453   */\n    tag_178:\n        /* \"#utility.yul\":17341:17373   */\n      tag_362\n      tag_177\n      jump\t// in\n    tag_362:\n        /* \"#utility.yul\":17382:17447   */\n      tag_363\n        /* \"#utility.yul\":17440:17446   */\n      dup2\n        /* \"#utility.yul\":17432:17438   */\n      dup5\n        /* \"#utility.yul\":17426:17430   */\n      dup5\n        /* \"#utility.yul\":17382:17447   */\n      tag_176\n      jump\t// in\n    tag_363:\n        /* \"#utility.yul\":17317:17453   */\n      pop\n        /* \"#utility.yul\":17264:17453   */\n      pop\n      pop\n      jump\t// out\n        /* \"#utility.yul\":17459:17645   */\n    tag_179:\n        /* \"#utility.yul\":17519:17639   */\n    tag_365:\n        /* \"#utility.yul\":17536:17539   */\n      dup2\n        /* \"#utility.yul\":17529:17534   */\n      dup2\n        /* \"#utility.yul\":17526:17540   */\n      lt\n        /* \"#utility.yul\":17519:17639   */\n      iszero\n      tag_367\n      jumpi\n        /* \"#utility.yul\":17590:17629   */\n      tag_368\n        /* \"#utility.yul\":17627:17628   */\n      0x00\n        /* \"#utility.yul\":17620:17625   */\n      dup3\n        /* \"#utility.yul\":17590:17629   */\n      tag_178\n      jump\t// in\n    tag_368:\n        /* \"#utility.yul\":17563:17564   */\n      0x01\n        /* \"#utility.yul\":17556:17561   */\n      dup2\n        /* \"#utility.yul\":17552:17565   */\n      add\n        /* \"#utility.yul\":17543:17565   */\n      swap1\n      pop\n        /* \"#utility.yul\":17519:17639   */\n      jump(tag_365)\n    tag_367:\n        /* \"#utility.yul\":17459:17645   */\n      pop\n      pop\n      jump\t// out\n        /* \"#utility.yul\":17651:18194   */\n    tag_180:\n        /* \"#utility.yul\":17752:17754   */\n      0x1f\n        /* \"#utility.yul\":17747:17750   */\n      dup3\n        /* \"#utility.yul\":17744:17755   */\n      gt\n        /* \"#utility.yul\":17741:18187   */\n      iszero\n      tag_370\n      jumpi\n        /* \"#utility.yul\":17786:17824   */\n      tag_371\n        /* \"#utility.yul\":17818:17823   */\n      dup2\n        /* \"#utility.yul\":17786:17824   */\n      tag_169\n      jump\t// in\n    tag_371:\n        /* \"#utility.yul\":17870:17899   */\n      tag_372\n        /* \"#utility.yul\":17888:17898   */\n      dup5\n        /* \"#utility.yul\":17870:17899   */\n      tag_170\n      jump\t// in\n    tag_372:\n        /* \"#utility.yul\":17860:17868   */\n      dup2\n        /* \"#utility.yul\":17856:17900   */\n      add\n        /* \"#utility.yul\":18053:18055   */\n      0x20\n        /* \"#utility.yul\":18041:18051   */\n      dup6\n        /* \"#utility.yul\":18038:18056   */\n      lt\n        /* \"#utility.yul\":18035:18084   */\n      iszero\n      tag_373\n      jumpi\n        /* \"#utility.yul\":18074:18082   */\n      dup2\n        /* \"#utility.yul\":18059:18082   */\n      swap1\n      pop\n        /* \"#utility.yul\":18035:18084   */\n    tag_373:\n        /* \"#utility.yul\":18097:18177   */\n      tag_374\n        /* \"#utility.yul\":18153:18175   */\n      tag_375\n        /* \"#utility.yul\":18171:18174   */\n      dup6\n        /* \"#utility.yul\":18153:18175   */\n      tag_170\n      jump\t// in\n    tag_375:\n        /* \"#utility.yul\":18143:18151   */\n      dup4\n        /* \"#utility.yul\":18139:18176   */\n      add\n        /* \"#utility.yul\":18126:18137   */\n      dup3\n        /* \"#utility.yul\":18097:18177   */\n      tag_179\n      jump\t// in\n    tag_374:\n        /* \"#utility.yul\":17756:18187   */\n      pop\n      pop\n        /* \"#utility.yul\":17741:18187   */\n    tag_370:\n        /* \"#utility.yul\":17651:18194   */\n      pop\n      pop\n      pop\n      jump\t// out\n        /* \"#utility.yul\":18200:18317   */\n    tag_181:\n        /* \"#utility.yul\":18254:18262   */\n      0x00\n        /* \"#utility.yul\":18304:18309   */\n      dup3\n        /* \"#utility.yul\":18298:18302   */\n      dup3\n        /* \"#utility.yul\":18294:18310   */\n      shr\n        /* \"#utility.yul\":18273:18310   */\n      swap1\n      pop\n        /* \"#utility.yul\":18200:18317   */\n      swap3\n      swap2\n      pop\n      pop\n      jump\t// out\n        /* \"#utility.yul\":18323:18492   */\n    tag_182:\n        /* \"#utility.yul\":18367:18373   */\n      0x00\n        /* \"#utility.yul\":18400:18451   */\n      tag_378\n        /* \"#utility.yul\":18448:18449   */\n      0x00\n        /* \"#utility.yul\":18444:18450   */\n      not\n        /* \"#utility.yul\":18436:18441   */\n      dup5\n        /* \"#utility.yul\":18433:18434   */\n      0x08\n        /* \"#utility.yul\":18429:18442   */\n      mul\n        /* \"#utility.yul\":18400:18451   */\n      tag_181\n      jump\t// in\n    tag_378:\n        /* \"#utility.yul\":18396:18452   */\n      not\n        /* \"#utility.yul\":18481:18485   */\n      dup1\n        /* \"#utility.yul\":18475:18479   */\n      dup4\n        /* \"#utility.yul\":18471:18486   */\n      and\n        /* \"#utility.yul\":18461:18486   */\n      swap2\n      pop\n        /* \"#utility.yul\":18374:18492   */\n      pop\n        /* \"#utility.yul\":18323:18492   */\n      swap3\n      swap2\n      pop\n      pop\n      jump\t// out\n        /* \"#utility.yul\":18497:18792   */\n    tag_183:\n        /* \"#utility.yul\":18573:18577   */\n      0x00\n        /* \"#utility.yul\":18719:18748   */\n      tag_380\n        /* \"#utility.yul\":18744:18747   */\n      dup4\n        /* \"#utility.yul\":18738:18742   */\n      dup4\n        /* \"#utility.yul\":18719:18748   */\n      tag_182\n      jump\t// in\n    tag_380:\n        /* \"#utility.yul\":18711:18748   */\n      swap2\n      pop\n        /* \"#utility.yul\":18781:18784   */\n      dup3\n        /* \"#utility.yul\":18778:18779   */\n      0x02\n        /* \"#utility.yul\":18774:18785   */\n      mul\n        /* \"#utility.yul\":18768:18772   */\n      dup3\n        /* \"#utility.yul\":18765:18786   */\n      or\n        /* \"#utility.yul\":18757:18786   */\n      swap1\n      pop\n        /* \"#utility.yul\":18497:18792   */\n      swap3\n      swap2\n      pop\n      pop\n      jump\t// out\n        /* \"#utility.yul\":18797:20192   */\n    tag_76:\n        /* \"#utility.yul\":18914:18951   */\n      tag_382\n        /* \"#utility.yul\":18947:18950   */\n      dup3\n        /* \"#utility.yul\":18914:18951   */\n      tag_135\n      jump\t// in\n    tag_382:\n        /* \"#utility.yul\":19016:19034   */\n      0xffffffffffffffff\n        /* \"#utility.yul\":19008:19014   */\n      dup2\n        /* \"#utility.yul\":19005:19035   */\n      gt\n        /* \"#utility.yul\":19002:19058   */\n      iszero\n      tag_383\n      jumpi\n        /* \"#utility.yul\":19038:19056   */\n      tag_384\n      tag_153\n      jump\t// in\n    tag_384:\n        /* \"#utility.yul\":19002:19058   */\n    tag_383:\n        /* \"#utility.yul\":19082:19120   */\n      tag_385\n        /* \"#utility.yul\":19114:19118   */\n      dup3\n        /* \"#utility.yul\":19108:19119   */\n      sload\n        /* \"#utility.yul\":19082:19120   */\n      tag_56\n      jump\t// in\n    tag_385:\n        /* \"#utility.yul\":19167:19234   */\n      tag_386\n        /* \"#utility.yul\":19227:19233   */\n      dup3\n        /* \"#utility.yul\":19219:19225   */\n      dup3\n        /* \"#utility.yul\":19213:19217   */\n      dup6\n        /* \"#utility.yul\":19167:19234   */\n      tag_180\n      jump\t// in\n    tag_386:\n        /* \"#utility.yul\":19261:19262   */\n      0x00\n        /* \"#utility.yul\":19285:19289   */\n      0x20\n        /* \"#utility.yul\":19272:19289   */\n      swap1\n      pop\n        /* \"#utility.yul\":19317:19319   */\n      0x1f\n        /* \"#utility.yul\":19309:19315   */\n      dup4\n        /* \"#utility.yul\":19306:19320   */\n      gt\n        /* \"#utility.yul\":19334:19335   */\n      0x01\n        /* \"#utility.yul\":19329:19947   */\n      dup2\n      eq\n      tag_388\n      jumpi\n        /* \"#utility.yul\":19991:19992   */\n      0x00\n        /* \"#utility.yul\":20008:20014   */\n      dup5\n        /* \"#utility.yul\":20005:20082   */\n      iszero\n      tag_389\n      jumpi\n        /* \"#utility.yul\":20057:20066   */\n      dup3\n        /* \"#utility.yul\":20052:20055   */\n      dup8\n        /* \"#utility.yul\":20048:20067   */\n      add\n        /* \"#utility.yul\":20042:20068   */\n      mload\n        /* \"#utility.yul\":20033:20068   */\n      swap1\n      pop\n        /* \"#utility.yul\":20005:20082   */\n    tag_389:\n        /* \"#utility.yul\":20108:20175   */\n      tag_390\n        /* \"#utility.yul\":20168:20174   */\n      dup6\n        /* \"#utility.yul\":20161:20166   */\n      dup3\n        /* \"#utility.yul\":20108:20175   */\n      tag_183\n      jump\t// in\n    tag_390:\n        /* \"#utility.yul\":20102:20106   */\n      dup7\n        /* \"#utility.yul\":20095:20176   */\n      sstore\n        /* \"#utility.yul\":19964:20186   */\n      pop\n        /* \"#utility.yul\":19299:20186   */\n      jump(tag_387)\n        /* \"#utility.yul\":19329:19947   */\n    tag_388:\n        /* \"#utility.yul\":19381:19385   */\n      0x1f\n        /* \"#utility.yul\":19377:19386   */\n      not\n        /* \"#utility.yul\":19369:19375   */\n      dup5\n        /* \"#utility.yul\":19365:19387   */\n      and\n        /* \"#utility.yul\":19415:19452   */\n      tag_391\n        /* \"#utility.yul\":19447:19451   */\n      dup7\n        /* \"#utility.yul\":19415:19452   */\n      tag_169\n      jump\t// in\n    tag_391:\n        /* \"#utility.yul\":19474:19475   */\n      0x00\n        /* \"#utility.yul\":19488:19696   */\n    tag_392:\n        /* \"#utility.yul\":19502:19509   */\n      dup3\n        /* \"#utility.yul\":19499:19500   */\n      dup2\n        /* \"#utility.yul\":19496:19510   */\n      lt\n        /* \"#utility.yul\":19488:19696   */\n      iszero\n      tag_394\n      jumpi\n        /* \"#utility.yul\":19581:19590   */\n      dup5\n        /* \"#utility.yul\":19576:19579   */\n      dup10\n        /* \"#utility.yul\":19572:19591   */\n      add\n        /* \"#utility.yul\":19566:19592   */\n      mload\n        /* \"#utility.yul\":19558:19564   */\n      dup3\n        /* \"#utility.yul\":19551:19593   */\n      sstore\n        /* \"#utility.yul\":19632:19633   */\n      0x01\n        /* \"#utility.yul\":19624:19630   */\n      dup3\n        /* \"#utility.yul\":19620:19634   */\n      add\n        /* \"#utility.yul\":19610:19634   */\n      swap2\n      pop\n        /* \"#utility.yul\":19679:19681   */\n      0x20\n        /* \"#utility.yul\":19668:19677   */\n      dup6\n        /* \"#utility.yul\":19664:19682   */\n      add\n        /* \"#utility.yul\":19651:19682   */\n      swap5\n      pop\n        /* \"#utility.yul\":19525:19529   */\n      0x20\n        /* \"#utility.yul\":19522:19523   */\n      dup2\n        /* \"#utility.yul\":19518:19530   */\n      add\n        /* \"#utility.yul\":19513:19530   */\n      swap1\n      pop\n        /* \"#utility.yul\":19488:19696   */\n      jump(tag_392)\n    tag_394:\n        /* \"#utility.yul\":19724:19730   */\n      dup7\n        /* \"#utility.yul\":19715:19722   */\n      dup4\n        /* \"#utility.yul\":19712:19731   */\n      lt\n        /* \"#utility.yul\":19709:19888   */\n      iszero\n      tag_395\n      jumpi\n        /* \"#utility.yul\":19782:19791   */\n      dup5\n        /* \"#utility.yul\":19777:19780   */\n      dup10\n        /* \"#utility.yul\":19773:19792   */\n      add\n        /* \"#utility.yul\":19767:19793   */\n      mload\n        /* \"#utility.yul\":19825:19873   */\n      tag_396\n        /* \"#utility.yul\":19867:19871   */\n      0x1f\n        /* \"#utility.yul\":19859:19865   */\n      dup10\n        /* \"#utility.yul\":19855:19872   */\n      and\n        /* \"#utility.yul\":19844:19853   */\n      dup3\n        /* \"#utility.yul\":19825:19873   */\n      tag_182\n      jump\t// in\n    tag_396:\n        /* \"#utility.yul\":19817:19823   */\n      dup4\n        /* \"#utility.yul\":19810:19874   */\n      sstore\n        /* \"#utility.yul\":19732:19888   */\n      pop\n        /* \"#utility.yul\":19709:19888   */\n    tag_395:\n        /* \"#utility.yul\":19934:19935   */\n      0x01\n        /* \"#utility.yul\":19930:19931   */\n      0x02\n        /* \"#utility.yul\":19922:19928   */\n      dup9\n        /* \"#utility.yul\":19918:19932   */\n      mul\n        /* \"#utility.yul\":19914:19936   */\n      add\n        /* \"#utility.yul\":19908:19912   */\n      dup9\n        /* \"#utility.yul\":19901:19937   */\n      sstore\n        /* \"#utility.yul\":19336:19947   */\n      pop\n      pop\n      pop\n        /* \"#utility.yul\":19299:20186   */\n    tag_387:\n      pop\n        /* \"#utility.yul\":18889:20192   */\n      pop\n      pop\n      pop\n        /* \"#utility.yul\":18797:20192   */\n      pop\n      pop\n      jump\t// out\n        /* \"#utility.yul\":20198:20378   */\n    tag_80:\n        /* \"#utility.yul\":20246:20323   */\n      0x4e487b7100000000000000000000000000000000000000000000000000000000\n        /* \"#utility.yul\":20243:20244   */\n      0x00\n        /* \"#utility.yul\":20236:20324   */\n      mstore\n        /* \"#utility.yul\":20343:20347   */\n      0x32\n        /* \"#utility.yul\":20340:20341   */\n      0x04\n        /* \"#utility.yul\":20333:20348   */\n      mstore\n        /* \"#utility.yul\":20367:20371   */\n      0x24\n        /* \"#utility.yul\":20364:20365   */\n      0x00\n        /* \"#utility.yul\":20357:20372   */\n      revert\n        /* \"#utility.yul\":20384:20545   */\n    tag_184:\n        /* \"#utility.yul\":20524:20537   */\n      0x4e6f742070726573656e74000000000000000000000000000000000000000000\n        /* \"#utility.yul\":20520:20521   */\n      0x00\n        /* \"#utility.yul\":20512:20518   */\n      dup3\n        /* \"#utility.yul\":20508:20522   */\n      add\n        /* \"#utility.yul\":20501:20538   */\n      mstore\n        /* \"#utility.yul\":20384:20545   */\n      pop\n      jump\t// out\n        /* \"#utility.yul\":20551:20917   */\n    tag_185:\n        /* \"#utility.yul\":20693:20696   */\n      0x00\n        /* \"#utility.yul\":20714:20781   */\n      tag_400\n        /* \"#utility.yul\":20778:20780   */\n      0x0b\n        /* \"#utility.yul\":20773:20776   */\n      dup4\n        /* \"#utility.yul\":20714:20781   */\n      tag_136\n      jump\t// in\n    tag_400:\n        /* \"#utility.yul\":20707:20781   */\n      swap2\n      pop\n        /* \"#utility.yul\":20790:20883   */\n      tag_401\n        /* \"#utility.yul\":20879:20882   */\n      dup3\n        /* \"#utility.yul\":20790:20883   */\n      tag_184\n      jump\t// in\n    tag_401:\n        /* \"#utility.yul\":20908:20910   */\n      0x20\n        /* \"#utility.yul\":20903:20906   */\n      dup3\n        /* \"#utility.yul\":20899:20911   */\n      add\n        /* \"#utility.yul\":20892:20911   */\n      swap1\n      pop\n        /* \"#utility.yul\":20551:20917   */\n      swap2\n      swap1\n      pop\n      jump\t// out\n        /* \"#utility.yul\":20923:21342   */\n    tag_84:\n        /* \"#utility.yul\":21089:21093   */\n      0x00\n        /* \"#utility.yul\":21127:21129   */\n      0x20\n        /* \"#utility.yul\":21116:21125   */\n      dup3\n        /* \"#utility.yul\":21112:21130   */\n      add\n        /* \"#utility.yul\":21104:21130   */\n      swap1\n      pop\n        /* \"#utility.yul\":21176:21185   */\n      dup2\n        /* \"#utility.yul\":21170:21174   */\n      dup2\n        /* \"#utility.yul\":21166:21186   */\n      sub\n        /* \"#utility.yul\":21162:21163   */\n      0x00\n        /* \"#utility.yul\":21151:21160   */\n      dup4\n        /* \"#utility.yul\":21147:21164   */\n      add\n        /* \"#utility.yul\":21140:21187   */\n      mstore\n        /* \"#utility.yul\":21204:21335   */\n      tag_403\n        /* \"#utility.yul\":21330:21334   */\n      dup2\n        /* \"#utility.yul\":21204:21335   */\n      tag_185\n      jump\t// in\n    tag_403:\n        /* \"#utility.yul\":21196:21335   */\n      swap1\n      pop\n        /* \"#utility.yul\":20923:21342   */\n      swap2\n      swap1\n      pop\n      jump\t// out\n        /* \"#utility.yul\":21348:21578   */\n    tag_186:\n        /* \"#utility.yul\":21488:21522   */\n      0x746865726520617265206e6f206c696b6573206173736f63696174656420746f\n        /* \"#utility.yul\":21484:21485   */\n      0x00\n        /* \"#utility.yul\":21476:21482   */\n      dup3\n        /* \"#utility.yul\":21472:21486   */\n      add\n        /* \"#utility.yul\":21465:21523   */\n      mstore\n        /* \"#utility.yul\":21557:21570   */\n      0x2074686973207477656574000000000000000000000000000000000000000000\n        /* \"#utility.yul\":21552:21554   */\n      0x20\n        /* \"#utility.yul\":21544:21550   */\n      dup3\n        /* \"#utility.yul\":21540:21555   */\n      add\n        /* \"#utility.yul\":21533:21571   */\n      mstore\n        /* \"#utility.yul\":21348:21578   */\n      pop\n      jump\t// out\n        /* \"#utility.yul\":21584:21950   */\n    tag_187:\n        /* \"#utility.yul\":21726:21729   */\n      0x00\n        /* \"#utility.yul\":21747:21814   */\n      tag_406\n        /* \"#utility.yul\":21811:21813   */\n      0x2b\n        /* \"#utility.yul\":21806:21809   */\n      dup4\n        /* \"#utility.yul\":21747:21814   */\n      tag_136\n      jump\t// in\n    tag_406:\n        /* \"#utility.yul\":21740:21814   */\n      swap2\n      pop\n        /* \"#utility.yul\":21823:21916   */\n      tag_407\n        /* \"#utility.yul\":21912:21915   */\n      dup3\n        /* \"#utility.yul\":21823:21916   */\n      tag_186\n      jump\t// in\n    tag_407:\n        /* \"#utility.yul\":21941:21943   */\n      0x40\n        /* \"#utility.yul\":21936:21939   */\n      dup3\n        /* \"#utility.yul\":21932:21944   */\n      add\n        /* \"#utility.yul\":21925:21944   */\n      swap1\n      pop\n        /* \"#utility.yul\":21584:21950   */\n      swap2\n      swap1\n      pop\n      jump\t// out\n        /* \"#utility.yul\":21956:22375   */\n    tag_90:\n        /* \"#utility.yul\":22122:22126   */\n      0x00\n        /* \"#utility.yul\":22160:22162   */\n      0x20\n        /* \"#utility.yul\":22149:22158   */\n      dup3\n        /* \"#utility.yul\":22145:22163   */\n      add\n        /* \"#utility.yul\":22137:22163   */\n      swap1\n      pop\n        /* \"#utility.yul\":22209:22218   */\n      dup2\n        /* \"#utility.yul\":22203:22207   */\n      dup2\n        /* \"#utility.yul\":22199:22219   */\n      sub\n        /* \"#utility.yul\":22195:22196   */\n      0x00\n        /* \"#utility.yul\":22184:22193   */\n      dup4\n        /* \"#utility.yul\":22180:22197   */\n      add\n        /* \"#utility.yul\":22173:22220   */\n      mstore\n        /* \"#utility.yul\":22237:22368   */\n      tag_409\n        /* \"#utility.yul\":22363:22367   */\n      dup2\n        /* \"#utility.yul\":22237:22368   */\n      tag_187\n      jump\t// in\n    tag_409:\n        /* \"#utility.yul\":22229:22368   */\n      swap1\n      pop\n        /* \"#utility.yul\":21956:22375   */\n      swap2\n      swap1\n      pop\n      jump\t// out\n        /* \"#utility.yul\":22381:22561   */\n    tag_188:\n        /* \"#utility.yul\":22429:22506   */\n      0x4e487b7100000000000000000000000000000000000000000000000000000000\n        /* \"#utility.yul\":22426:22427   */\n      0x00\n        /* \"#utility.yul\":22419:22507   */\n      mstore\n        /* \"#utility.yul\":22526:22530   */\n      0x11\n        /* \"#utility.yul\":22523:22524   */\n      0x04\n        /* \"#utility.yul\":22516:22531   */\n      mstore\n        /* \"#utility.yul\":22550:22554   */\n      0x24\n        /* \"#utility.yul\":22547:22548   */\n      0x00\n        /* \"#utility.yul\":22540:22555   */\n      revert\n        /* \"#utility.yul\":22567:22738   */\n    tag_95:\n        /* \"#utility.yul\":22606:22609   */\n      0x00\n        /* \"#utility.yul\":22629:22653   */\n      tag_412\n        /* \"#utility.yul\":22647:22652   */\n      dup3\n        /* \"#utility.yul\":22629:22653   */\n      tag_130\n      jump\t// in\n    tag_412:\n        /* \"#utility.yul\":22620:22653   */\n      swap2\n      pop\n        /* \"#utility.yul\":22675:22679   */\n      0x00\n        /* \"#utility.yul\":22668:22673   */\n      dup3\n        /* \"#utility.yul\":22665:22680   */\n      sub\n        /* \"#utility.yul\":22662:22703   */\n      tag_413\n      jumpi\n        /* \"#utility.yul\":22683:22701   */\n      tag_414\n      tag_188\n      jump\t// in\n    tag_414:\n        /* \"#utility.yul\":22662:22703   */\n    tag_413:\n        /* \"#utility.yul\":22730:22731   */\n      0x01\n        /* \"#utility.yul\":22723:22728   */\n      dup3\n        /* \"#utility.yul\":22719:22732   */\n      sub\n        /* \"#utility.yul\":22712:22732   */\n      swap1\n      pop\n        /* \"#utility.yul\":22567:22738   */\n      swap2\n      swap1\n      pop\n      jump\t// out\n        /* \"#utility.yul\":22744:22977   */\n    tag_106:\n        /* \"#utility.yul\":22783:22786   */\n      0x00\n        /* \"#utility.yul\":22806:22830   */\n      tag_416\n        /* \"#utility.yul\":22824:22829   */\n      dup3\n        /* \"#utility.yul\":22806:22830   */\n      tag_130\n      jump\t// in\n    tag_416:\n        /* \"#utility.yul\":22797:22830   */\n      swap2\n      pop\n        /* \"#utility.yul\":22852:22918   */\n      0xffffffffffffffffffffffffffffffffffffffffffffffffffffffffffffffff\n        /* \"#utility.yul\":22845:22850   */\n      dup3\n        /* \"#utility.yul\":22842:22919   */\n      sub\n        /* \"#utility.yul\":22839:22942   */\n      tag_417\n      jumpi\n        /* \"#utility.yul\":22922:22940   */\n      tag_418\n      tag_188\n      jump\t// in\n    tag_418:\n        /* \"#utility.yul\":22839:22942   */\n    tag_417:\n        /* \"#utility.yul\":22969:22970   */\n      0x01\n        /* \"#utility.yul\":22962:22967   */\n      dup3\n        /* \"#utility.yul\":22958:22971   */\n      add\n        /* \"#utility.yul\":22951:22971   */\n      swap1\n      pop\n        /* \"#utility.yul\":22744:22977   */\n      swap2\n      swap1\n      pop\n      jump\t// out\n        /* \"#utility.yul\":22983:23154   */\n    tag_189:\n        /* \"#utility.yul\":23123:23146   */\n      0x596f7520617265206e6f7420746865206f776e65720000000000000000000000\n        /* \"#utility.yul\":23119:23120   */\n      0x00\n        /* \"#utility.yul\":23111:23117   */\n      dup3\n        /* \"#utility.yul\":23107:23121   */\n      add\n        /* \"#utility.yul\":23100:23147   */\n      mstore\n        /* \"#utility.yul\":22983:23154   */\n      pop\n      jump\t// out\n        /* \"#utility.yul\":23160:23526   */\n    tag_190:\n        /* \"#utility.yul\":23302:23305   */\n      0x00\n        /* \"#utility.yul\":23323:23390   */\n      tag_421\n        /* \"#utility.yul\":23387:23389   */\n      0x15\n        /* \"#utility.yul\":23382:23385   */\n      dup4\n        /* \"#utility.yul\":23323:23390   */\n      tag_136\n      jump\t// in\n    tag_421:\n        /* \"#utility.yul\":23316:23390   */\n      swap2\n      pop\n        /* \"#utility.yul\":23399:23492   */\n      tag_422\n        /* \"#utility.yul\":23488:23491   */\n      dup3\n        /* \"#utility.yul\":23399:23492   */\n      tag_189\n      jump\t// in\n    tag_422:\n        /* \"#utility.yul\":23517:23519   */\n      0x20\n        /* \"#utility.yul\":23512:23515   */\n      dup3\n        /* \"#utility.yul\":23508:23520   */\n      add\n        /* \"#utility.yul\":23501:23520   */\n      swap1\n      pop\n        /* \"#utility.yul\":23160:23526   */\n      swap2\n      swap1\n      pop\n      jump\t// out\n        /* \"#utility.yul\":23532:23951   */\n    tag_110:\n        /* \"#utility.yul\":23698:23702   */\n      0x00\n        /* \"#utility.yul\":23736:23738   */\n      0x20\n        /* \"#utility.yul\":23725:23734   */\n      dup3\n        /* \"#utility.yul\":23721:23739   */\n      add\n        /* \"#utility.yul\":23713:23739   */\n      swap1\n      pop\n        /* \"#utility.yul\":23785:23794   */\n      dup2\n        /* \"#utility.yul\":23779:23783   */\n      dup2\n        /* \"#utility.yul\":23775:23795   */\n      sub\n        /* \"#utility.yul\":23771:23772   */\n      0x00\n        /* \"#utility.yul\":23760:23769   */\n      dup4\n        /* \"#utility.yul\":23756:23773   */\n      add\n        /* \"#utility.yul\":23749:23796   */\n      mstore\n        /* \"#utility.yul\":23813:23944   */\n      tag_424\n        /* \"#utility.yul\":23939:23943   */\n      dup2\n        /* \"#utility.yul\":23813:23944   */\n      tag_190\n      jump\t// in\n    tag_424:\n        /* \"#utility.yul\":23805:23944   */\n      swap1\n      pop\n        /* \"#utility.yul\":23532:23951   */\n      swap2\n      swap1\n      pop\n      jump\t// out\n\n    auxdata: 0xa26469706673582212200a2b4b4c3dcfdb7e25aed27023101385d16276d17d3bf41ebeffe3e1ace1562b64736f6c63430008120033\n}\n",
				"bytecode": {
					"linkReferences": {},
					"object": "6080604052610118600160006101000a81548166ffffffffffffff021916908366ffffffffffffff16021790555034801561003957600080fd5b5033600160076101000a81548173ffffffffffffffffffffffffffffffffffffffff021916908373ffffffffffffffffffffffffffffffffffffffff16021790555061187e8061008a6000396000f3fe608060405234801561001057600080fd5b50600436106100935760003560e01c8063633782161161006657806363378216146101345780638da5cb5b1461015057806397213d071461016e578063a1afcc461461018a578063c3ad5ecb146101a857610093565b806305a1b4a91461009857806312e7ee1c146100cc5780632a1f1d06146100fc5780633d9b569f14610118575b600080fd5b6100b260048036038101906100ad9190610c8c565b6101d8565b6040516100c3959493929190610d7a565b60405180910390f35b6100e660048036038101906100e19190610dd4565b6102d3565b6040516100f39190610fa1565b60405180910390f35b610116600480360381019061011191906110f8565b610476565b005b610132600480360381019061012d9190610c8c565b610644565b005b61014e60048036038101906101499190610c8c565b610806565b005b610158610924565b6040516101659190611141565b60405180910390f35b61018860048036038101906101839190611196565b61094a565b005b610192610a08565b60405161019f91906111e5565b60405180910390f35b6101c260048036038101906101bd9190611200565b610a21565b6040516101cf91906112a3565b60405180910390f35b600060205281600052604060002081815481106101f457600080fd5b9060005260206000209060050201600091509150508060000154908060010160009054906101000a900473ffffffffffffffffffffffffffffffffffffffff1690806002018054610244906112f4565b80601f0160208091040260200160405190810160405280929190818152602001828054610270906112f4565b80156102bd5780601f10610292576101008083540402835291602001916102bd565b820191906000526020600020905b8154815290600101906020018083116102a057829003601f168201915b5050505050908060030154908060040154905085565b60606000808373ffffffffffffffffffffffffffffffffffffffff1673ffffffffffffffffffffffffffffffffffffffff168152602001908152602001600020805480602002602001604051908101604052809291908181526020016000905b8282101561046b57838290600052602060002090600502016040518060a0016040529081600082015481526020016001820160009054906101000a900473ffffffffffffffffffffffffffffffffffffffff1673ffffffffffffffffffffffffffffffffffffffff1673ffffffffffffffffffffffffffffffffffffffff1681526020016002820180546103c6906112f4565b80601f01602080910402602001604051908101604052809291908181526020018280546103f2906112f4565b801561043f5780601f106104145761010080835404028352916020019161043f565b820191906000526020600020905b81548152906001019060200180831161042257829003601f168201915b505050505081526020016003820154815260200160048201548152505081526020019060010190610333565b505050509050919050565b600160009054906101000a900466ffffffffffffff1666ffffffffffffff16815111156104d8576040517f08c379a00000000000000000000000000000000000000000000000000000000081526004016104cf90611371565b60405180910390fd5b60006040518060a001604052806000803373ffffffffffffffffffffffffffffffffffffffff1673ffffffffffffffffffffffffffffffffffffffff1681526020019081526020016000208054905081526020013373ffffffffffffffffffffffffffffffffffffffff168152602001838152602001428152602001600081525090506000803373ffffffffffffffffffffffffffffffffffffffff1673ffffffffffffffffffffffffffffffffffffffff1681526020019081526020016000208190806001815401808255809150506001900390600052602060002090600502016000909190919091506000820151816000015560208201518160010160006101000a81548173ffffffffffffffffffffffffffffffffffffffff021916908373ffffffffffffffffffffffffffffffffffffffff1602179055506040820151816002019081610629919061153d565b50606082015181600301556080820151816004015550505050565b806000808473ffffffffffffffffffffffffffffffffffffffff1673ffffffffffffffffffffffffffffffffffffffff16815260200190815260200160002082815481106106955761069461160f565b5b906000526020600020906005020160000154146106e7576040517f08c379a00000000000000000000000000000000000000000000000000000000081526004016106de9061168a565b60405180910390fd5b60008060008473ffffffffffffffffffffffffffffffffffffffff1673ffffffffffffffffffffffffffffffffffffffff16815260200190815260200160002082815481106107395761073861160f565b5b9060005260206000209060050201600401541161078b576040517f08c379a00000000000000000000000000000000000000000000000000000000081526004016107829061171c565b60405180910390fd5b6000808373ffffffffffffffffffffffffffffffffffffffff1673ffffffffffffffffffffffffffffffffffffffff16815260200190815260200160002081815481106107db576107da61160f565b5b906000526020600020906005020160040160008154809291906107fd9061176b565b91905055505050565b806000808473ffffffffffffffffffffffffffffffffffffffff1673ffffffffffffffffffffffffffffffffffffffff16815260200190815260200160002082815481106108575761085661160f565b5b906000526020600020906005020160000154146108a9576040517f08c379a00000000000000000000000000000000000000000000000000000000081526004016108a09061168a565b60405180910390fd5b6000808373ffffffffffffffffffffffffffffffffffffffff1673ffffffffffffffffffffffffffffffffffffffff16815260200190815260200160002081815481106108f9576108f861160f565b5b9060005260206000209060050201600401600081548092919061091b90611794565b91905055505050565b600160079054906101000a900473ffffffffffffffffffffffffffffffffffffffff1681565b600160079054906101000a900473ffffffffffffffffffffffffffffffffffffffff1673ffffffffffffffffffffffffffffffffffffffff163373ffffffffffffffffffffffffffffffffffffffff16146109da576040517f08c379a00000000000000000000000000000000000000000000000000000000081526004016109d190611828565b60405180910390fd5b8061ffff16600160006101000a81548166ffffffffffffff021916908366ffffffffffffff16021790555050565b600160009054906101000a900466ffffffffffffff1681565b610a29610b9f565b6000803373ffffffffffffffffffffffffffffffffffffffff1673ffffffffffffffffffffffffffffffffffffffff1681526020019081526020016000208281548110610a7957610a7861160f565b5b90600052602060002090600502016040518060a0016040529081600082015481526020016001820160009054906101000a900473ffffffffffffffffffffffffffffffffffffffff1673ffffffffffffffffffffffffffffffffffffffff1673ffffffffffffffffffffffffffffffffffffffff168152602001600282018054610b02906112f4565b80601f0160208091040260200160405190810160405280929190818152602001828054610b2e906112f4565b8015610b7b5780601f10610b5057610100808354040283529160200191610b7b565b820191906000526020600020905b815481529060010190602001808311610b5e57829003601f168201915b50505050508152602001600382015481526020016004820154815250509050919050565b6040518060a0016040528060008152602001600073ffffffffffffffffffffffffffffffffffffffff1681526020016060815260200160008152602001600081525090565b6000604051905090565b600080fd5b600080fd5b600073ffffffffffffffffffffffffffffffffffffffff82169050919050565b6000610c2382610bf8565b9050919050565b610c3381610c18565b8114610c3e57600080fd5b50565b600081359050610c5081610c2a565b92915050565b6000819050919050565b610c6981610c56565b8114610c7457600080fd5b50565b600081359050610c8681610c60565b92915050565b60008060408385031215610ca357610ca2610bee565b5b6000610cb185828601610c41565b9250506020610cc285828601610c77565b9150509250929050565b610cd581610c56565b82525050565b610ce481610c18565b82525050565b600081519050919050565b600082825260208201905092915050565b60005b83811015610d24578082015181840152602081019050610d09565b60008484015250505050565b6000601f19601f8301169050919050565b6000610d4c82610cea565b610d568185610cf5565b9350610d66818560208601610d06565b610d6f81610d30565b840191505092915050565b600060a082019050610d8f6000830188610ccc565b610d9c6020830187610cdb565b8181036040830152610dae8186610d41565b9050610dbd6060830185610ccc565b610dca6080830184610ccc565b9695505050505050565b600060208284031215610dea57610de9610bee565b5b6000610df884828501610c41565b91505092915050565b600081519050919050565b600082825260208201905092915050565b6000819050602082019050919050565b610e3681610c56565b82525050565b610e4581610c18565b82525050565b600082825260208201905092915050565b6000610e6782610cea565b610e718185610e4b565b9350610e81818560208601610d06565b610e8a81610d30565b840191505092915050565b600060a083016000830151610ead6000860182610e2d565b506020830151610ec06020860182610e3c565b5060408301518482036040860152610ed88282610e5c565b9150506060830151610eed6060860182610e2d565b506080830151610f006080860182610e2d565b508091505092915050565b6000610f178383610e95565b905092915050565b6000602082019050919050565b6000610f3782610e01565b610f418185610e0c565b935083602082028501610f5385610e1d565b8060005b85811015610f8f5784840389528151610f708582610f0b565b9450610f7b83610f1f565b925060208a01995050600181019050610f57565b50829750879550505050505092915050565b60006020820190508181036000830152610fbb8184610f2c565b905092915050565b600080fd5b600080fd5b7f4e487b7100000000000000000000000000000000000000000000000000000000600052604160045260246000fd5b61100582610d30565b810181811067ffffffffffffffff8211171561102457611023610fcd565b5b80604052505050565b6000611037610be4565b90506110438282610ffc565b919050565b600067ffffffffffffffff82111561106357611062610fcd565b5b61106c82610d30565b9050602081019050919050565b82818337600083830152505050565b600061109b61109684611048565b61102d565b9050828152602081018484840111156110b7576110b6610fc8565b5b6110c2848285611079565b509392505050565b600082601f8301126110df576110de610fc3565b5b81356110ef848260208601611088565b91505092915050565b60006020828403121561110e5761110d610bee565b5b600082013567ffffffffffffffff81111561112c5761112b610bf3565b5b611138848285016110ca565b91505092915050565b60006020820190506111566000830184610cdb565b92915050565b600061ffff82169050919050565b6111738161115c565b811461117e57600080fd5b50565b6000813590506111908161116a565b92915050565b6000602082840312156111ac576111ab610bee565b5b60006111ba84828501611181565b91505092915050565b600066ffffffffffffff82169050919050565b6111df816111c3565b82525050565b60006020820190506111fa60008301846111d6565b92915050565b60006020828403121561121657611215610bee565b5b600061122484828501610c77565b91505092915050565b600060a0830160008301516112456000860182610e2d565b5060208301516112586020860182610e3c565b50604083015184820360408601526112708282610e5c565b91505060608301516112856060860182610e2d565b5060808301516112986080860182610e2d565b508091505092915050565b600060208201905081810360008301526112bd818461122d565b905092915050565b7f4e487b7100000000000000000000000000000000000000000000000000000000600052602260045260246000fd5b6000600282049050600182168061130c57607f821691505b60208210810361131f5761131e6112c5565b5b50919050565b7f5468697320747765657420697320746f6f206c6f6e672062726f212100000000600082015250565b600061135b601c83610cf5565b915061136682611325565b602082019050919050565b6000602082019050818103600083015261138a8161134e565b9050919050565b60008190508160005260206000209050919050565b60006020601f8301049050919050565b600082821b905092915050565b6000600883026113f37fffffffffffffffffffffffffffffffffffffffffffffffffffffffffffffffff826113b6565b6113fd86836113b6565b95508019841693508086168417925050509392505050565b6000819050919050565b600061143a61143561143084610c56565b611415565b610c56565b9050919050565b6000819050919050565b6114548361141f565b61146861146082611441565b8484546113c3565b825550505050565b600090565b61147d611470565b61148881848461144b565b505050565b5b818110156114ac576114a1600082611475565b60018101905061148e565b5050565b601f8211156114f1576114c281611391565b6114cb846113a6565b810160208510156114da578190505b6114ee6114e6856113a6565b83018261148d565b50505b505050565b600082821c905092915050565b6000611514600019846008026114f6565b1980831691505092915050565b600061152d8383611503565b9150826002028217905092915050565b61154682610cea565b67ffffffffffffffff81111561155f5761155e610fcd565b5b61156982546112f4565b6115748282856114b0565b600060209050601f8311600181146115a75760008415611595578287015190505b61159f8582611521565b865550611607565b601f1984166115b586611391565b60005b828110156115dd578489015182556001820191506020850194506020810190506115b8565b868310156115fa57848901516115f6601f891682611503565b8355505b6001600288020188555050505b505050505050565b7f4e487b7100000000000000000000000000000000000000000000000000000000600052603260045260246000fd5b7f4e6f742070726573656e74000000000000000000000000000000000000000000600082015250565b6000611674600b83610cf5565b915061167f8261163e565b602082019050919050565b600060208201905081810360008301526116a381611667565b9050919050565b7f746865726520617265206e6f206c696b6573206173736f63696174656420746f60008201527f2074686973207477656574000000000000000000000000000000000000000000602082015250565b6000611706602b83610cf5565b9150611711826116aa565b604082019050919050565b60006020820190508181036000830152611735816116f9565b9050919050565b7f4e487b7100000000000000000000000000000000000000000000000000000000600052601160045260246000fd5b600061177682610c56565b9150600082036117895761178861173c565b5b600182039050919050565b600061179f82610c56565b91507fffffffffffffffffffffffffffffffffffffffffffffffffffffffffffffffff82036117d1576117d061173c565b5b600182019050919050565b7f596f7520617265206e6f7420746865206f776e65720000000000000000000000600082015250565b6000611812601583610cf5565b915061181d826117dc565b602082019050919050565b6000602082019050818103600083015261184181611805565b905091905056fea26469706673582212200a2b4b4c3dcfdb7e25aed27023101385d16276d17d3bf41ebeffe3e1ace1562b64736f6c63430008120033",
					"opcodes": "PUSH1 0x80 PUSH1 0x40 MSTORE PUSH2 0x118 PUSH1 0x1 PUSH1 0x0 PUSH2 0x100 EXP DUP2 SLOAD DUP2 PUSH7 0xFFFFFFFFFFFFFF MUL NOT AND SWAP1 DUP4 PUSH7 0xFFFFFFFFFFFFFF AND MUL OR SWAP1 SSTORE POP CALLVALUE DUP1 ISZERO PUSH2 0x39 JUMPI PUSH1 0x0 DUP1 REVERT JUMPDEST POP CALLER PUSH1 0x1 PUSH1 0x7 PUSH2 0x100 EXP DUP2 SLOAD DUP2 PUSH20 0xFFFFFFFFFFFFFFFFFFFFFFFFFFFFFFFFFFFFFFFF MUL NOT AND SWAP1 DUP4 PUSH20 0xFFFFFFFFFFFFFFFFFFFFFFFFFFFFFFFFFFFFFFFF AND MUL OR SWAP1 SSTORE POP PUSH2 0x187E DUP1 PUSH2 0x8A PUSH1 0x0 CODECOPY PUSH1 0x0 RETURN INVALID PUSH1 0x80 PUSH1 0x40 MSTORE CALLVALUE DUP1 ISZERO PUSH2 0x10 JUMPI PUSH1 0x0 DUP1 REVERT JUMPDEST POP PUSH1 0x4 CALLDATASIZE LT PUSH2 0x93 JUMPI PUSH1 0x0 CALLDATALOAD PUSH1 0xE0 SHR DUP1 PUSH4 0x63378216 GT PUSH2 0x66 JUMPI DUP1 PUSH4 0x63378216 EQ PUSH2 0x134 JUMPI DUP1 PUSH4 0x8DA5CB5B EQ PUSH2 0x150 JUMPI DUP1 PUSH4 0x97213D07 EQ PUSH2 0x16E JUMPI DUP1 PUSH4 0xA1AFCC46 EQ PUSH2 0x18A JUMPI DUP1 PUSH4 0xC3AD5ECB EQ PUSH2 0x1A8 JUMPI PUSH2 0x93 JUMP JUMPDEST DUP1 PUSH4 0x5A1B4A9 EQ PUSH2 0x98 JUMPI DUP1 PUSH4 0x12E7EE1C EQ PUSH2 0xCC JUMPI DUP1 PUSH4 0x2A1F1D06 EQ PUSH2 0xFC JUMPI DUP1 PUSH4 0x3D9B569F EQ PUSH2 0x118 JUMPI JUMPDEST PUSH1 0x0 DUP1 REVERT JUMPDEST PUSH2 0xB2 PUSH1 0x4 DUP1 CALLDATASIZE SUB DUP2 ADD SWAP1 PUSH2 0xAD SWAP2 SWAP1 PUSH2 0xC8C JUMP JUMPDEST PUSH2 0x1D8 JUMP JUMPDEST PUSH1 0x40 MLOAD PUSH2 0xC3 SWAP6 SWAP5 SWAP4 SWAP3 SWAP2 SWAP1 PUSH2 0xD7A JUMP JUMPDEST PUSH1 0x40 MLOAD DUP1 SWAP2 SUB SWAP1 RETURN JUMPDEST PUSH2 0xE6 PUSH1 0x4 DUP1 CALLDATASIZE SUB DUP2 ADD SWAP1 PUSH2 0xE1 SWAP2 SWAP1 PUSH2 0xDD4 JUMP JUMPDEST PUSH2 0x2D3 JUMP JUMPDEST PUSH1 0x40 MLOAD PUSH2 0xF3 SWAP2 SWAP1 PUSH2 0xFA1 JUMP JUMPDEST PUSH1 0x40 MLOAD DUP1 SWAP2 SUB SWAP1 RETURN JUMPDEST PUSH2 0x116 PUSH1 0x4 DUP1 CALLDATASIZE SUB DUP2 ADD SWAP1 PUSH2 0x111 SWAP2 SWAP1 PUSH2 0x10F8 JUMP JUMPDEST PUSH2 0x476 JUMP JUMPDEST STOP JUMPDEST PUSH2 0x132 PUSH1 0x4 DUP1 CALLDATASIZE SUB DUP2 ADD SWAP1 PUSH2 0x12D SWAP2 SWAP1 PUSH2 0xC8C JUMP JUMPDEST PUSH2 0x644 JUMP JUMPDEST STOP JUMPDEST PUSH2 0x14E PUSH1 0x4 DUP1 CALLDATASIZE SUB DUP2 ADD SWAP1 PUSH2 0x149 SWAP2 SWAP1 PUSH2 0xC8C JUMP JUMPDEST PUSH2 0x806 JUMP JUMPDEST STOP JUMPDEST PUSH2 0x158 PUSH2 0x924 JUMP JUMPDEST PUSH1 0x40 MLOAD PUSH2 0x165 SWAP2 SWAP1 PUSH2 0x1141 JUMP JUMPDEST PUSH1 0x40 MLOAD DUP1 SWAP2 SUB SWAP1 RETURN JUMPDEST PUSH2 0x188 PUSH1 0x4 DUP1 CALLDATASIZE SUB DUP2 ADD SWAP1 PUSH2 0x183 SWAP2 SWAP1 PUSH2 0x1196 JUMP JUMPDEST PUSH2 0x94A JUMP JUMPDEST STOP JUMPDEST PUSH2 0x192 PUSH2 0xA08 JUMP JUMPDEST PUSH1 0x40 MLOAD PUSH2 0x19F SWAP2 SWAP1 PUSH2 0x11E5 JUMP JUMPDEST PUSH1 0x40 MLOAD DUP1 SWAP2 SUB SWAP1 RETURN JUMPDEST PUSH2 0x1C2 PUSH1 0x4 DUP1 CALLDATASIZE SUB DUP2 ADD SWAP1 PUSH2 0x1BD SWAP2 SWAP1 PUSH2 0x1200 JUMP JUMPDEST PUSH2 0xA21 JUMP JUMPDEST PUSH1 0x40 MLOAD PUSH2 0x1CF SWAP2 SWAP1 PUSH2 0x12A3 JUMP JUMPDEST PUSH1 0x40 MLOAD DUP1 SWAP2 SUB SWAP1 RETURN JUMPDEST PUSH1 0x0 PUSH1 0x20 MSTORE DUP2 PUSH1 0x0 MSTORE PUSH1 0x40 PUSH1 0x0 KECCAK256 DUP2 DUP2 SLOAD DUP2 LT PUSH2 0x1F4 JUMPI PUSH1 0x0 DUP1 REVERT JUMPDEST SWAP1 PUSH1 0x0 MSTORE PUSH1 0x20 PUSH1 0x0 KECCAK256 SWAP1 PUSH1 0x5 MUL ADD PUSH1 0x0 SWAP2 POP SWAP2 POP POP DUP1 PUSH1 0x0 ADD SLOAD SWAP1 DUP1 PUSH1 0x1 ADD PUSH1 0x0 SWAP1 SLOAD SWAP1 PUSH2 0x100 EXP SWAP1 DIV PUSH20 0xFFFFFFFFFFFFFFFFFFFFFFFFFFFFFFFFFFFFFFFF AND SWAP1 DUP1 PUSH1 0x2 ADD DUP1 SLOAD PUSH2 0x244 SWAP1 PUSH2 0x12F4 JUMP JUMPDEST DUP1 PUSH1 0x1F ADD PUSH1 0x20 DUP1 SWAP2 DIV MUL PUSH1 0x20 ADD PUSH1 0x40 MLOAD SWAP1 DUP2 ADD PUSH1 0x40 MSTORE DUP1 SWAP3 SWAP2 SWAP1 DUP2 DUP2 MSTORE PUSH1 0x20 ADD DUP3 DUP1 SLOAD PUSH2 0x270 SWAP1 PUSH2 0x12F4 JUMP JUMPDEST DUP1 ISZERO PUSH2 0x2BD JUMPI DUP1 PUSH1 0x1F LT PUSH2 0x292 JUMPI PUSH2 0x100 DUP1 DUP4 SLOAD DIV MUL DUP4 MSTORE SWAP2 PUSH1 0x20 ADD SWAP2 PUSH2 0x2BD JUMP JUMPDEST DUP3 ADD SWAP2 SWAP1 PUSH1 0x0 MSTORE PUSH1 0x20 PUSH1 0x0 KECCAK256 SWAP1 JUMPDEST DUP2 SLOAD DUP2 MSTORE SWAP1 PUSH1 0x1 ADD SWAP1 PUSH1 0x20 ADD DUP1 DUP4 GT PUSH2 0x2A0 JUMPI DUP3 SWAP1 SUB PUSH1 0x1F AND DUP3 ADD SWAP2 JUMPDEST POP POP POP POP POP SWAP1 DUP1 PUSH1 0x3 ADD SLOAD SWAP1 DUP1 PUSH1 0x4 ADD SLOAD SWAP1 POP DUP6 JUMP JUMPDEST PUSH1 0x60 PUSH1 0x0 DUP1 DUP4 PUSH20 0xFFFFFFFFFFFFFFFFFFFFFFFFFFFFFFFFFFFFFFFF AND PUSH20 0xFFFFFFFFFFFFFFFFFFFFFFFFFFFFFFFFFFFFFFFF AND DUP2 MSTORE PUSH1 0x20 ADD SWAP1 DUP2 MSTORE PUSH1 0x20 ADD PUSH1 0x0 KECCAK256 DUP1 SLOAD DUP1 PUSH1 0x20 MUL PUSH1 0x20 ADD PUSH1 0x40 MLOAD SWAP1 DUP2 ADD PUSH1 0x40 MSTORE DUP1 SWAP3 SWAP2 SWAP1 DUP2 DUP2 MSTORE PUSH1 0x20 ADD PUSH1 0x0 SWAP1 JUMPDEST DUP3 DUP3 LT ISZERO PUSH2 0x46B JUMPI DUP4 DUP3 SWAP1 PUSH1 0x0 MSTORE PUSH1 0x20 PUSH1 0x0 KECCAK256 SWAP1 PUSH1 0x5 MUL ADD PUSH1 0x40 MLOAD DUP1 PUSH1 0xA0 ADD PUSH1 0x40 MSTORE SWAP1 DUP2 PUSH1 0x0 DUP3 ADD SLOAD DUP2 MSTORE PUSH1 0x20 ADD PUSH1 0x1 DUP3 ADD PUSH1 0x0 SWAP1 SLOAD SWAP1 PUSH2 0x100 EXP SWAP1 DIV PUSH20 0xFFFFFFFFFFFFFFFFFFFFFFFFFFFFFFFFFFFFFFFF AND PUSH20 0xFFFFFFFFFFFFFFFFFFFFFFFFFFFFFFFFFFFFFFFF AND PUSH20 0xFFFFFFFFFFFFFFFFFFFFFFFFFFFFFFFFFFFFFFFF AND DUP2 MSTORE PUSH1 0x20 ADD PUSH1 0x2 DUP3 ADD DUP1 SLOAD PUSH2 0x3C6 SWAP1 PUSH2 0x12F4 JUMP JUMPDEST DUP1 PUSH1 0x1F ADD PUSH1 0x20 DUP1 SWAP2 DIV MUL PUSH1 0x20 ADD PUSH1 0x40 MLOAD SWAP1 DUP2 ADD PUSH1 0x40 MSTORE DUP1 SWAP3 SWAP2 SWAP1 DUP2 DUP2 MSTORE PUSH1 0x20 ADD DUP3 DUP1 SLOAD PUSH2 0x3F2 SWAP1 PUSH2 0x12F4 JUMP JUMPDEST DUP1 ISZERO PUSH2 0x43F JUMPI DUP1 PUSH1 0x1F LT PUSH2 0x414 JUMPI PUSH2 0x100 DUP1 DUP4 SLOAD DIV MUL DUP4 MSTORE SWAP2 PUSH1 0x20 ADD SWAP2 PUSH2 0x43F JUMP JUMPDEST DUP3 ADD SWAP2 SWAP1 PUSH1 0x0 MSTORE PUSH1 0x20 PUSH1 0x0 KECCAK256 SWAP1 JUMPDEST DUP2 SLOAD DUP2 MSTORE SWAP1 PUSH1 0x1 ADD SWAP1 PUSH1 0x20 ADD DUP1 DUP4 GT PUSH2 0x422 JUMPI DUP3 SWAP1 SUB PUSH1 0x1F AND DUP3 ADD SWAP2 JUMPDEST POP POP POP POP POP DUP2 MSTORE PUSH1 0x20 ADD PUSH1 0x3 DUP3 ADD SLOAD DUP2 MSTORE PUSH1 0x20 ADD PUSH1 0x4 DUP3 ADD SLOAD DUP2 MSTORE POP POP DUP2 MSTORE PUSH1 0x20 ADD SWAP1 PUSH1 0x1 ADD SWAP1 PUSH2 0x333 JUMP JUMPDEST POP POP POP POP SWAP1 POP SWAP2 SWAP1 POP JUMP JUMPDEST PUSH1 0x1 PUSH1 0x0 SWAP1 SLOAD SWAP1 PUSH2 0x100 EXP SWAP1 DIV PUSH7 0xFFFFFFFFFFFFFF AND PUSH7 0xFFFFFFFFFFFFFF AND DUP2 MLOAD GT ISZERO PUSH2 0x4D8 JUMPI PUSH1 0x40 MLOAD PUSH32 0x8C379A000000000000000000000000000000000000000000000000000000000 DUP2 MSTORE PUSH1 0x4 ADD PUSH2 0x4CF SWAP1 PUSH2 0x1371 JUMP JUMPDEST PUSH1 0x40 MLOAD DUP1 SWAP2 SUB SWAP1 REVERT JUMPDEST PUSH1 0x0 PUSH1 0x40 MLOAD DUP1 PUSH1 0xA0 ADD PUSH1 0x40 MSTORE DUP1 PUSH1 0x0 DUP1 CALLER PUSH20 0xFFFFFFFFFFFFFFFFFFFFFFFFFFFFFFFFFFFFFFFF AND PUSH20 0xFFFFFFFFFFFFFFFFFFFFFFFFFFFFFFFFFFFFFFFF AND DUP2 MSTORE PUSH1 0x20 ADD SWAP1 DUP2 MSTORE PUSH1 0x20 ADD PUSH1 0x0 KECCAK256 DUP1 SLOAD SWAP1 POP DUP2 MSTORE PUSH1 0x20 ADD CALLER PUSH20 0xFFFFFFFFFFFFFFFFFFFFFFFFFFFFFFFFFFFFFFFF AND DUP2 MSTORE PUSH1 0x20 ADD DUP4 DUP2 MSTORE PUSH1 0x20 ADD TIMESTAMP DUP2 MSTORE PUSH1 0x20 ADD PUSH1 0x0 DUP2 MSTORE POP SWAP1 POP PUSH1 0x0 DUP1 CALLER PUSH20 0xFFFFFFFFFFFFFFFFFFFFFFFFFFFFFFFFFFFFFFFF AND PUSH20 0xFFFFFFFFFFFFFFFFFFFFFFFFFFFFFFFFFFFFFFFF AND DUP2 MSTORE PUSH1 0x20 ADD SWAP1 DUP2 MSTORE PUSH1 0x20 ADD PUSH1 0x0 KECCAK256 DUP2 SWAP1 DUP1 PUSH1 0x1 DUP2 SLOAD ADD DUP1 DUP3 SSTORE DUP1 SWAP2 POP POP PUSH1 0x1 SWAP1 SUB SWAP1 PUSH1 0x0 MSTORE PUSH1 0x20 PUSH1 0x0 KECCAK256 SWAP1 PUSH1 0x5 MUL ADD PUSH1 0x0 SWAP1 SWAP2 SWAP1 SWAP2 SWAP1 SWAP2 POP PUSH1 0x0 DUP3 ADD MLOAD DUP2 PUSH1 0x0 ADD SSTORE PUSH1 0x20 DUP3 ADD MLOAD DUP2 PUSH1 0x1 ADD PUSH1 0x0 PUSH2 0x100 EXP DUP2 SLOAD DUP2 PUSH20 0xFFFFFFFFFFFFFFFFFFFFFFFFFFFFFFFFFFFFFFFF MUL NOT AND SWAP1 DUP4 PUSH20 0xFFFFFFFFFFFFFFFFFFFFFFFFFFFFFFFFFFFFFFFF AND MUL OR SWAP1 SSTORE POP PUSH1 0x40 DUP3 ADD MLOAD DUP2 PUSH1 0x2 ADD SWAP1 DUP2 PUSH2 0x629 SWAP2 SWAP1 PUSH2 0x153D JUMP JUMPDEST POP PUSH1 0x60 DUP3 ADD MLOAD DUP2 PUSH1 0x3 ADD SSTORE PUSH1 0x80 DUP3 ADD MLOAD DUP2 PUSH1 0x4 ADD SSTORE POP POP POP POP JUMP JUMPDEST DUP1 PUSH1 0x0 DUP1 DUP5 PUSH20 0xFFFFFFFFFFFFFFFFFFFFFFFFFFFFFFFFFFFFFFFF AND PUSH20 0xFFFFFFFFFFFFFFFFFFFFFFFFFFFFFFFFFFFFFFFF AND DUP2 MSTORE PUSH1 0x20 ADD SWAP1 DUP2 MSTORE PUSH1 0x20 ADD PUSH1 0x0 KECCAK256 DUP3 DUP2 SLOAD DUP2 LT PUSH2 0x695 JUMPI PUSH2 0x694 PUSH2 0x160F JUMP JUMPDEST JUMPDEST SWAP1 PUSH1 0x0 MSTORE PUSH1 0x20 PUSH1 0x0 KECCAK256 SWAP1 PUSH1 0x5 MUL ADD PUSH1 0x0 ADD SLOAD EQ PUSH2 0x6E7 JUMPI PUSH1 0x40 MLOAD PUSH32 0x8C379A000000000000000000000000000000000000000000000000000000000 DUP2 MSTORE PUSH1 0x4 ADD PUSH2 0x6DE SWAP1 PUSH2 0x168A JUMP JUMPDEST PUSH1 0x40 MLOAD DUP1 SWAP2 SUB SWAP1 REVERT JUMPDEST PUSH1 0x0 DUP1 PUSH1 0x0 DUP5 PUSH20 0xFFFFFFFFFFFFFFFFFFFFFFFFFFFFFFFFFFFFFFFF AND PUSH20 0xFFFFFFFFFFFFFFFFFFFFFFFFFFFFFFFFFFFFFFFF AND DUP2 MSTORE PUSH1 0x20 ADD SWAP1 DUP2 MSTORE PUSH1 0x20 ADD PUSH1 0x0 KECCAK256 DUP3 DUP2 SLOAD DUP2 LT PUSH2 0x739 JUMPI PUSH2 0x738 PUSH2 0x160F JUMP JUMPDEST JUMPDEST SWAP1 PUSH1 0x0 MSTORE PUSH1 0x20 PUSH1 0x0 KECCAK256 SWAP1 PUSH1 0x5 MUL ADD PUSH1 0x4 ADD SLOAD GT PUSH2 0x78B JUMPI PUSH1 0x40 MLOAD PUSH32 0x8C379A000000000000000000000000000000000000000000000000000000000 DUP2 MSTORE PUSH1 0x4 ADD PUSH2 0x782 SWAP1 PUSH2 0x171C JUMP JUMPDEST PUSH1 0x40 MLOAD DUP1 SWAP2 SUB SWAP1 REVERT JUMPDEST PUSH1 0x0 DUP1 DUP4 PUSH20 0xFFFFFFFFFFFFFFFFFFFFFFFFFFFFFFFFFFFFFFFF AND PUSH20 0xFFFFFFFFFFFFFFFFFFFFFFFFFFFFFFFFFFFFFFFF AND DUP2 MSTORE PUSH1 0x20 ADD SWAP1 DUP2 MSTORE PUSH1 0x20 ADD PUSH1 0x0 KECCAK256 DUP2 DUP2 SLOAD DUP2 LT PUSH2 0x7DB JUMPI PUSH2 0x7DA PUSH2 0x160F JUMP JUMPDEST JUMPDEST SWAP1 PUSH1 0x0 MSTORE PUSH1 0x20 PUSH1 0x0 KECCAK256 SWAP1 PUSH1 0x5 MUL ADD PUSH1 0x4 ADD PUSH1 0x0 DUP2 SLOAD DUP1 SWAP3 SWAP2 SWAP1 PUSH2 0x7FD SWAP1 PUSH2 0x176B JUMP JUMPDEST SWAP2 SWAP1 POP SSTORE POP POP POP JUMP JUMPDEST DUP1 PUSH1 0x0 DUP1 DUP5 PUSH20 0xFFFFFFFFFFFFFFFFFFFFFFFFFFFFFFFFFFFFFFFF AND PUSH20 0xFFFFFFFFFFFFFFFFFFFFFFFFFFFFFFFFFFFFFFFF AND DUP2 MSTORE PUSH1 0x20 ADD SWAP1 DUP2 MSTORE PUSH1 0x20 ADD PUSH1 0x0 KECCAK256 DUP3 DUP2 SLOAD DUP2 LT PUSH2 0x857 JUMPI PUSH2 0x856 PUSH2 0x160F JUMP JUMPDEST JUMPDEST SWAP1 PUSH1 0x0 MSTORE PUSH1 0x20 PUSH1 0x0 KECCAK256 SWAP1 PUSH1 0x5 MUL ADD PUSH1 0x0 ADD SLOAD EQ PUSH2 0x8A9 JUMPI PUSH1 0x40 MLOAD PUSH32 0x8C379A000000000000000000000000000000000000000000000000000000000 DUP2 MSTORE PUSH1 0x4 ADD PUSH2 0x8A0 SWAP1 PUSH2 0x168A JUMP JUMPDEST PUSH1 0x40 MLOAD DUP1 SWAP2 SUB SWAP1 REVERT JUMPDEST PUSH1 0x0 DUP1 DUP4 PUSH20 0xFFFFFFFFFFFFFFFFFFFFFFFFFFFFFFFFFFFFFFFF AND PUSH20 0xFFFFFFFFFFFFFFFFFFFFFFFFFFFFFFFFFFFFFFFF AND DUP2 MSTORE PUSH1 0x20 ADD SWAP1 DUP2 MSTORE PUSH1 0x20 ADD PUSH1 0x0 KECCAK256 DUP2 DUP2 SLOAD DUP2 LT PUSH2 0x8F9 JUMPI PUSH2 0x8F8 PUSH2 0x160F JUMP JUMPDEST JUMPDEST SWAP1 PUSH1 0x0 MSTORE PUSH1 0x20 PUSH1 0x0 KECCAK256 SWAP1 PUSH1 0x5 MUL ADD PUSH1 0x4 ADD PUSH1 0x0 DUP2 SLOAD DUP1 SWAP3 SWAP2 SWAP1 PUSH2 0x91B SWAP1 PUSH2 0x1794 JUMP JUMPDEST SWAP2 SWAP1 POP SSTORE POP POP POP JUMP JUMPDEST PUSH1 0x1 PUSH1 0x7 SWAP1 SLOAD SWAP1 PUSH2 0x100 EXP SWAP1 DIV PUSH20 0xFFFFFFFFFFFFFFFFFFFFFFFFFFFFFFFFFFFFFFFF AND DUP2 JUMP JUMPDEST PUSH1 0x1 PUSH1 0x7 SWAP1 SLOAD SWAP1 PUSH2 0x100 EXP SWAP1 DIV PUSH20 0xFFFFFFFFFFFFFFFFFFFFFFFFFFFFFFFFFFFFFFFF AND PUSH20 0xFFFFFFFFFFFFFFFFFFFFFFFFFFFFFFFFFFFFFFFF AND CALLER PUSH20 0xFFFFFFFFFFFFFFFFFFFFFFFFFFFFFFFFFFFFFFFF AND EQ PUSH2 0x9DA JUMPI PUSH1 0x40 MLOAD PUSH32 0x8C379A000000000000000000000000000000000000000000000000000000000 DUP2 MSTORE PUSH1 0x4 ADD PUSH2 0x9D1 SWAP1 PUSH2 0x1828 JUMP JUMPDEST PUSH1 0x40 MLOAD DUP1 SWAP2 SUB SWAP1 REVERT JUMPDEST DUP1 PUSH2 0xFFFF AND PUSH1 0x1 PUSH1 0x0 PUSH2 0x100 EXP DUP2 SLOAD DUP2 PUSH7 0xFFFFFFFFFFFFFF MUL NOT AND SWAP1 DUP4 PUSH7 0xFFFFFFFFFFFFFF AND MUL OR SWAP1 SSTORE POP POP JUMP JUMPDEST PUSH1 0x1 PUSH1 0x0 SWAP1 SLOAD SWAP1 PUSH2 0x100 EXP SWAP1 DIV PUSH7 0xFFFFFFFFFFFFFF AND DUP2 JUMP JUMPDEST PUSH2 0xA29 PUSH2 0xB9F JUMP JUMPDEST PUSH1 0x0 DUP1 CALLER PUSH20 0xFFFFFFFFFFFFFFFFFFFFFFFFFFFFFFFFFFFFFFFF AND PUSH20 0xFFFFFFFFFFFFFFFFFFFFFFFFFFFFFFFFFFFFFFFF AND DUP2 MSTORE PUSH1 0x20 ADD SWAP1 DUP2 MSTORE PUSH1 0x20 ADD PUSH1 0x0 KECCAK256 DUP3 DUP2 SLOAD DUP2 LT PUSH2 0xA79 JUMPI PUSH2 0xA78 PUSH2 0x160F JUMP JUMPDEST JUMPDEST SWAP1 PUSH1 0x0 MSTORE PUSH1 0x20 PUSH1 0x0 KECCAK256 SWAP1 PUSH1 0x5 MUL ADD PUSH1 0x40 MLOAD DUP1 PUSH1 0xA0 ADD PUSH1 0x40 MSTORE SWAP1 DUP2 PUSH1 0x0 DUP3 ADD SLOAD DUP2 MSTORE PUSH1 0x20 ADD PUSH1 0x1 DUP3 ADD PUSH1 0x0 SWAP1 SLOAD SWAP1 PUSH2 0x100 EXP SWAP1 DIV PUSH20 0xFFFFFFFFFFFFFFFFFFFFFFFFFFFFFFFFFFFFFFFF AND PUSH20 0xFFFFFFFFFFFFFFFFFFFFFFFFFFFFFFFFFFFFFFFF AND PUSH20 0xFFFFFFFFFFFFFFFFFFFFFFFFFFFFFFFFFFFFFFFF AND DUP2 MSTORE PUSH1 0x20 ADD PUSH1 0x2 DUP3 ADD DUP1 SLOAD PUSH2 0xB02 SWAP1 PUSH2 0x12F4 JUMP JUMPDEST DUP1 PUSH1 0x1F ADD PUSH1 0x20 DUP1 SWAP2 DIV MUL PUSH1 0x20 ADD PUSH1 0x40 MLOAD SWAP1 DUP2 ADD PUSH1 0x40 MSTORE DUP1 SWAP3 SWAP2 SWAP1 DUP2 DUP2 MSTORE PUSH1 0x20 ADD DUP3 DUP1 SLOAD PUSH2 0xB2E SWAP1 PUSH2 0x12F4 JUMP JUMPDEST DUP1 ISZERO PUSH2 0xB7B JUMPI DUP1 PUSH1 0x1F LT PUSH2 0xB50 JUMPI PUSH2 0x100 DUP1 DUP4 SLOAD DIV MUL DUP4 MSTORE SWAP2 PUSH1 0x20 ADD SWAP2 PUSH2 0xB7B JUMP JUMPDEST DUP3 ADD SWAP2 SWAP1 PUSH1 0x0 MSTORE PUSH1 0x20 PUSH1 0x0 KECCAK256 SWAP1 JUMPDEST DUP2 SLOAD DUP2 MSTORE SWAP1 PUSH1 0x1 ADD SWAP1 PUSH1 0x20 ADD DUP1 DUP4 GT PUSH2 0xB5E JUMPI DUP3 SWAP1 SUB PUSH1 0x1F AND DUP3 ADD SWAP2 JUMPDEST POP POP POP POP POP DUP2 MSTORE PUSH1 0x20 ADD PUSH1 0x3 DUP3 ADD SLOAD DUP2 MSTORE PUSH1 0x20 ADD PUSH1 0x4 DUP3 ADD SLOAD DUP2 MSTORE POP POP SWAP1 POP SWAP2 SWAP1 POP JUMP JUMPDEST PUSH1 0x40 MLOAD DUP1 PUSH1 0xA0 ADD PUSH1 0x40 MSTORE DUP1 PUSH1 0x0 DUP2 MSTORE PUSH1 0x20 ADD PUSH1 0x0 PUSH20 0xFFFFFFFFFFFFFFFFFFFFFFFFFFFFFFFFFFFFFFFF AND DUP2 MSTORE PUSH1 0x20 ADD PUSH1 0x60 DUP2 MSTORE PUSH1 0x20 ADD PUSH1 0x0 DUP2 MSTORE PUSH1 0x20 ADD PUSH1 0x0 DUP2 MSTORE POP SWAP1 JUMP JUMPDEST PUSH1 0x0 PUSH1 0x40 MLOAD SWAP1 POP SWAP1 JUMP JUMPDEST PUSH1 0x0 DUP1 REVERT JUMPDEST PUSH1 0x0 DUP1 REVERT JUMPDEST PUSH1 0x0 PUSH20 0xFFFFFFFFFFFFFFFFFFFFFFFFFFFFFFFFFFFFFFFF DUP3 AND SWAP1 POP SWAP2 SWAP1 POP JUMP JUMPDEST PUSH1 0x0 PUSH2 0xC23 DUP3 PUSH2 0xBF8 JUMP JUMPDEST SWAP1 POP SWAP2 SWAP1 POP JUMP JUMPDEST PUSH2 0xC33 DUP2 PUSH2 0xC18 JUMP JUMPDEST DUP2 EQ PUSH2 0xC3E JUMPI PUSH1 0x0 DUP1 REVERT JUMPDEST POP JUMP JUMPDEST PUSH1 0x0 DUP2 CALLDATALOAD SWAP1 POP PUSH2 0xC50 DUP2 PUSH2 0xC2A JUMP JUMPDEST SWAP3 SWAP2 POP POP JUMP JUMPDEST PUSH1 0x0 DUP2 SWAP1 POP SWAP2 SWAP1 POP JUMP JUMPDEST PUSH2 0xC69 DUP2 PUSH2 0xC56 JUMP JUMPDEST DUP2 EQ PUSH2 0xC74 JUMPI PUSH1 0x0 DUP1 REVERT JUMPDEST POP JUMP JUMPDEST PUSH1 0x0 DUP2 CALLDATALOAD SWAP1 POP PUSH2 0xC86 DUP2 PUSH2 0xC60 JUMP JUMPDEST SWAP3 SWAP2 POP POP JUMP JUMPDEST PUSH1 0x0 DUP1 PUSH1 0x40 DUP4 DUP6 SUB SLT ISZERO PUSH2 0xCA3 JUMPI PUSH2 0xCA2 PUSH2 0xBEE JUMP JUMPDEST JUMPDEST PUSH1 0x0 PUSH2 0xCB1 DUP6 DUP3 DUP7 ADD PUSH2 0xC41 JUMP JUMPDEST SWAP3 POP POP PUSH1 0x20 PUSH2 0xCC2 DUP6 DUP3 DUP7 ADD PUSH2 0xC77 JUMP JUMPDEST SWAP2 POP POP SWAP3 POP SWAP3 SWAP1 POP JUMP JUMPDEST PUSH2 0xCD5 DUP2 PUSH2 0xC56 JUMP JUMPDEST DUP3 MSTORE POP POP JUMP JUMPDEST PUSH2 0xCE4 DUP2 PUSH2 0xC18 JUMP JUMPDEST DUP3 MSTORE POP POP JUMP JUMPDEST PUSH1 0x0 DUP2 MLOAD SWAP1 POP SWAP2 SWAP1 POP JUMP JUMPDEST PUSH1 0x0 DUP3 DUP3 MSTORE PUSH1 0x20 DUP3 ADD SWAP1 POP SWAP3 SWAP2 POP POP JUMP JUMPDEST PUSH1 0x0 JUMPDEST DUP4 DUP2 LT ISZERO PUSH2 0xD24 JUMPI DUP1 DUP3 ADD MLOAD DUP2 DUP5 ADD MSTORE PUSH1 0x20 DUP2 ADD SWAP1 POP PUSH2 0xD09 JUMP JUMPDEST PUSH1 0x0 DUP5 DUP5 ADD MSTORE POP POP POP POP JUMP JUMPDEST PUSH1 0x0 PUSH1 0x1F NOT PUSH1 0x1F DUP4 ADD AND SWAP1 POP SWAP2 SWAP1 POP JUMP JUMPDEST PUSH1 0x0 PUSH2 0xD4C DUP3 PUSH2 0xCEA JUMP JUMPDEST PUSH2 0xD56 DUP2 DUP6 PUSH2 0xCF5 JUMP JUMPDEST SWAP4 POP PUSH2 0xD66 DUP2 DUP6 PUSH1 0x20 DUP7 ADD PUSH2 0xD06 JUMP JUMPDEST PUSH2 0xD6F DUP2 PUSH2 0xD30 JUMP JUMPDEST DUP5 ADD SWAP2 POP POP SWAP3 SWAP2 POP POP JUMP JUMPDEST PUSH1 0x0 PUSH1 0xA0 DUP3 ADD SWAP1 POP PUSH2 0xD8F PUSH1 0x0 DUP4 ADD DUP9 PUSH2 0xCCC JUMP JUMPDEST PUSH2 0xD9C PUSH1 0x20 DUP4 ADD DUP8 PUSH2 0xCDB JUMP JUMPDEST DUP2 DUP2 SUB PUSH1 0x40 DUP4 ADD MSTORE PUSH2 0xDAE DUP2 DUP7 PUSH2 0xD41 JUMP JUMPDEST SWAP1 POP PUSH2 0xDBD PUSH1 0x60 DUP4 ADD DUP6 PUSH2 0xCCC JUMP JUMPDEST PUSH2 0xDCA PUSH1 0x80 DUP4 ADD DUP5 PUSH2 0xCCC JUMP JUMPDEST SWAP7 SWAP6 POP POP POP POP POP POP JUMP JUMPDEST PUSH1 0x0 PUSH1 0x20 DUP3 DUP5 SUB SLT ISZERO PUSH2 0xDEA JUMPI PUSH2 0xDE9 PUSH2 0xBEE JUMP JUMPDEST JUMPDEST PUSH1 0x0 PUSH2 0xDF8 DUP5 DUP3 DUP6 ADD PUSH2 0xC41 JUMP JUMPDEST SWAP2 POP POP SWAP3 SWAP2 POP POP JUMP JUMPDEST PUSH1 0x0 DUP2 MLOAD SWAP1 POP SWAP2 SWAP1 POP JUMP JUMPDEST PUSH1 0x0 DUP3 DUP3 MSTORE PUSH1 0x20 DUP3 ADD SWAP1 POP SWAP3 SWAP2 POP POP JUMP JUMPDEST PUSH1 0x0 DUP2 SWAP1 POP PUSH1 0x20 DUP3 ADD SWAP1 POP SWAP2 SWAP1 POP JUMP JUMPDEST PUSH2 0xE36 DUP2 PUSH2 0xC56 JUMP JUMPDEST DUP3 MSTORE POP POP JUMP JUMPDEST PUSH2 0xE45 DUP2 PUSH2 0xC18 JUMP JUMPDEST DUP3 MSTORE POP POP JUMP JUMPDEST PUSH1 0x0 DUP3 DUP3 MSTORE PUSH1 0x20 DUP3 ADD SWAP1 POP SWAP3 SWAP2 POP POP JUMP JUMPDEST PUSH1 0x0 PUSH2 0xE67 DUP3 PUSH2 0xCEA JUMP JUMPDEST PUSH2 0xE71 DUP2 DUP6 PUSH2 0xE4B JUMP JUMPDEST SWAP4 POP PUSH2 0xE81 DUP2 DUP6 PUSH1 0x20 DUP7 ADD PUSH2 0xD06 JUMP JUMPDEST PUSH2 0xE8A DUP2 PUSH2 0xD30 JUMP JUMPDEST DUP5 ADD SWAP2 POP POP SWAP3 SWAP2 POP POP JUMP JUMPDEST PUSH1 0x0 PUSH1 0xA0 DUP4 ADD PUSH1 0x0 DUP4 ADD MLOAD PUSH2 0xEAD PUSH1 0x0 DUP7 ADD DUP3 PUSH2 0xE2D JUMP JUMPDEST POP PUSH1 0x20 DUP4 ADD MLOAD PUSH2 0xEC0 PUSH1 0x20 DUP7 ADD DUP3 PUSH2 0xE3C JUMP JUMPDEST POP PUSH1 0x40 DUP4 ADD MLOAD DUP5 DUP3 SUB PUSH1 0x40 DUP7 ADD MSTORE PUSH2 0xED8 DUP3 DUP3 PUSH2 0xE5C JUMP JUMPDEST SWAP2 POP POP PUSH1 0x60 DUP4 ADD MLOAD PUSH2 0xEED PUSH1 0x60 DUP7 ADD DUP3 PUSH2 0xE2D JUMP JUMPDEST POP PUSH1 0x80 DUP4 ADD MLOAD PUSH2 0xF00 PUSH1 0x80 DUP7 ADD DUP3 PUSH2 0xE2D JUMP JUMPDEST POP DUP1 SWAP2 POP POP SWAP3 SWAP2 POP POP JUMP JUMPDEST PUSH1 0x0 PUSH2 0xF17 DUP4 DUP4 PUSH2 0xE95 JUMP JUMPDEST SWAP1 POP SWAP3 SWAP2 POP POP JUMP JUMPDEST PUSH1 0x0 PUSH1 0x20 DUP3 ADD SWAP1 POP SWAP2 SWAP1 POP JUMP JUMPDEST PUSH1 0x0 PUSH2 0xF37 DUP3 PUSH2 0xE01 JUMP JUMPDEST PUSH2 0xF41 DUP2 DUP6 PUSH2 0xE0C JUMP JUMPDEST SWAP4 POP DUP4 PUSH1 0x20 DUP3 MUL DUP6 ADD PUSH2 0xF53 DUP6 PUSH2 0xE1D JUMP JUMPDEST DUP1 PUSH1 0x0 JUMPDEST DUP6 DUP2 LT ISZERO PUSH2 0xF8F JUMPI DUP5 DUP5 SUB DUP10 MSTORE DUP2 MLOAD PUSH2 0xF70 DUP6 DUP3 PUSH2 0xF0B JUMP JUMPDEST SWAP5 POP PUSH2 0xF7B DUP4 PUSH2 0xF1F JUMP JUMPDEST SWAP3 POP PUSH1 0x20 DUP11 ADD SWAP10 POP POP PUSH1 0x1 DUP2 ADD SWAP1 POP PUSH2 0xF57 JUMP JUMPDEST POP DUP3 SWAP8 POP DUP8 SWAP6 POP POP POP POP POP POP SWAP3 SWAP2 POP POP JUMP JUMPDEST PUSH1 0x0 PUSH1 0x20 DUP3 ADD SWAP1 POP DUP2 DUP2 SUB PUSH1 0x0 DUP4 ADD MSTORE PUSH2 0xFBB DUP2 DUP5 PUSH2 0xF2C JUMP JUMPDEST SWAP1 POP SWAP3 SWAP2 POP POP JUMP JUMPDEST PUSH1 0x0 DUP1 REVERT JUMPDEST PUSH1 0x0 DUP1 REVERT JUMPDEST PUSH32 0x4E487B7100000000000000000000000000000000000000000000000000000000 PUSH1 0x0 MSTORE PUSH1 0x41 PUSH1 0x4 MSTORE PUSH1 0x24 PUSH1 0x0 REVERT JUMPDEST PUSH2 0x1005 DUP3 PUSH2 0xD30 JUMP JUMPDEST DUP2 ADD DUP2 DUP2 LT PUSH8 0xFFFFFFFFFFFFFFFF DUP3 GT OR ISZERO PUSH2 0x1024 JUMPI PUSH2 0x1023 PUSH2 0xFCD JUMP JUMPDEST JUMPDEST DUP1 PUSH1 0x40 MSTORE POP POP POP JUMP JUMPDEST PUSH1 0x0 PUSH2 0x1037 PUSH2 0xBE4 JUMP JUMPDEST SWAP1 POP PUSH2 0x1043 DUP3 DUP3 PUSH2 0xFFC JUMP JUMPDEST SWAP2 SWAP1 POP JUMP JUMPDEST PUSH1 0x0 PUSH8 0xFFFFFFFFFFFFFFFF DUP3 GT ISZERO PUSH2 0x1063 JUMPI PUSH2 0x1062 PUSH2 0xFCD JUMP JUMPDEST JUMPDEST PUSH2 0x106C DUP3 PUSH2 0xD30 JUMP JUMPDEST SWAP1 POP PUSH1 0x20 DUP2 ADD SWAP1 POP SWAP2 SWAP1 POP JUMP JUMPDEST DUP3 DUP2 DUP4 CALLDATACOPY PUSH1 0x0 DUP4 DUP4 ADD MSTORE POP POP POP JUMP JUMPDEST PUSH1 0x0 PUSH2 0x109B PUSH2 0x1096 DUP5 PUSH2 0x1048 JUMP JUMPDEST PUSH2 0x102D JUMP JUMPDEST SWAP1 POP DUP3 DUP2 MSTORE PUSH1 0x20 DUP2 ADD DUP5 DUP5 DUP5 ADD GT ISZERO PUSH2 0x10B7 JUMPI PUSH2 0x10B6 PUSH2 0xFC8 JUMP JUMPDEST JUMPDEST PUSH2 0x10C2 DUP5 DUP3 DUP6 PUSH2 0x1079 JUMP JUMPDEST POP SWAP4 SWAP3 POP POP POP JUMP JUMPDEST PUSH1 0x0 DUP3 PUSH1 0x1F DUP4 ADD SLT PUSH2 0x10DF JUMPI PUSH2 0x10DE PUSH2 0xFC3 JUMP JUMPDEST JUMPDEST DUP2 CALLDATALOAD PUSH2 0x10EF DUP5 DUP3 PUSH1 0x20 DUP7 ADD PUSH2 0x1088 JUMP JUMPDEST SWAP2 POP POP SWAP3 SWAP2 POP POP JUMP JUMPDEST PUSH1 0x0 PUSH1 0x20 DUP3 DUP5 SUB SLT ISZERO PUSH2 0x110E JUMPI PUSH2 0x110D PUSH2 0xBEE JUMP JUMPDEST JUMPDEST PUSH1 0x0 DUP3 ADD CALLDATALOAD PUSH8 0xFFFFFFFFFFFFFFFF DUP2 GT ISZERO PUSH2 0x112C JUMPI PUSH2 0x112B PUSH2 0xBF3 JUMP JUMPDEST JUMPDEST PUSH2 0x1138 DUP5 DUP3 DUP6 ADD PUSH2 0x10CA JUMP JUMPDEST SWAP2 POP POP SWAP3 SWAP2 POP POP JUMP JUMPDEST PUSH1 0x0 PUSH1 0x20 DUP3 ADD SWAP1 POP PUSH2 0x1156 PUSH1 0x0 DUP4 ADD DUP5 PUSH2 0xCDB JUMP JUMPDEST SWAP3 SWAP2 POP POP JUMP JUMPDEST PUSH1 0x0 PUSH2 0xFFFF DUP3 AND SWAP1 POP SWAP2 SWAP1 POP JUMP JUMPDEST PUSH2 0x1173 DUP2 PUSH2 0x115C JUMP JUMPDEST DUP2 EQ PUSH2 0x117E JUMPI PUSH1 0x0 DUP1 REVERT JUMPDEST POP JUMP JUMPDEST PUSH1 0x0 DUP2 CALLDATALOAD SWAP1 POP PUSH2 0x1190 DUP2 PUSH2 0x116A JUMP JUMPDEST SWAP3 SWAP2 POP POP JUMP JUMPDEST PUSH1 0x0 PUSH1 0x20 DUP3 DUP5 SUB SLT ISZERO PUSH2 0x11AC JUMPI PUSH2 0x11AB PUSH2 0xBEE JUMP JUMPDEST JUMPDEST PUSH1 0x0 PUSH2 0x11BA DUP5 DUP3 DUP6 ADD PUSH2 0x1181 JUMP JUMPDEST SWAP2 POP POP SWAP3 SWAP2 POP POP JUMP JUMPDEST PUSH1 0x0 PUSH7 0xFFFFFFFFFFFFFF DUP3 AND SWAP1 POP SWAP2 SWAP1 POP JUMP JUMPDEST PUSH2 0x11DF DUP2 PUSH2 0x11C3 JUMP JUMPDEST DUP3 MSTORE POP POP JUMP JUMPDEST PUSH1 0x0 PUSH1 0x20 DUP3 ADD SWAP1 POP PUSH2 0x11FA PUSH1 0x0 DUP4 ADD DUP5 PUSH2 0x11D6 JUMP JUMPDEST SWAP3 SWAP2 POP POP JUMP JUMPDEST PUSH1 0x0 PUSH1 0x20 DUP3 DUP5 SUB SLT ISZERO PUSH2 0x1216 JUMPI PUSH2 0x1215 PUSH2 0xBEE JUMP JUMPDEST JUMPDEST PUSH1 0x0 PUSH2 0x1224 DUP5 DUP3 DUP6 ADD PUSH2 0xC77 JUMP JUMPDEST SWAP2 POP POP SWAP3 SWAP2 POP POP JUMP JUMPDEST PUSH1 0x0 PUSH1 0xA0 DUP4 ADD PUSH1 0x0 DUP4 ADD MLOAD PUSH2 0x1245 PUSH1 0x0 DUP7 ADD DUP3 PUSH2 0xE2D JUMP JUMPDEST POP PUSH1 0x20 DUP4 ADD MLOAD PUSH2 0x1258 PUSH1 0x20 DUP7 ADD DUP3 PUSH2 0xE3C JUMP JUMPDEST POP PUSH1 0x40 DUP4 ADD MLOAD DUP5 DUP3 SUB PUSH1 0x40 DUP7 ADD MSTORE PUSH2 0x1270 DUP3 DUP3 PUSH2 0xE5C JUMP JUMPDEST SWAP2 POP POP PUSH1 0x60 DUP4 ADD MLOAD PUSH2 0x1285 PUSH1 0x60 DUP7 ADD DUP3 PUSH2 0xE2D JUMP JUMPDEST POP PUSH1 0x80 DUP4 ADD MLOAD PUSH2 0x1298 PUSH1 0x80 DUP7 ADD DUP3 PUSH2 0xE2D JUMP JUMPDEST POP DUP1 SWAP2 POP POP SWAP3 SWAP2 POP POP JUMP JUMPDEST PUSH1 0x0 PUSH1 0x20 DUP3 ADD SWAP1 POP DUP2 DUP2 SUB PUSH1 0x0 DUP4 ADD MSTORE PUSH2 0x12BD DUP2 DUP5 PUSH2 0x122D JUMP JUMPDEST SWAP1 POP SWAP3 SWAP2 POP POP JUMP JUMPDEST PUSH32 0x4E487B7100000000000000000000000000000000000000000000000000000000 PUSH1 0x0 MSTORE PUSH1 0x22 PUSH1 0x4 MSTORE PUSH1 0x24 PUSH1 0x0 REVERT JUMPDEST PUSH1 0x0 PUSH1 0x2 DUP3 DIV SWAP1 POP PUSH1 0x1 DUP3 AND DUP1 PUSH2 0x130C JUMPI PUSH1 0x7F DUP3 AND SWAP2 POP JUMPDEST PUSH1 0x20 DUP3 LT DUP2 SUB PUSH2 0x131F JUMPI PUSH2 0x131E PUSH2 0x12C5 JUMP JUMPDEST JUMPDEST POP SWAP2 SWAP1 POP JUMP JUMPDEST PUSH32 0x5468697320747765657420697320746F6F206C6F6E672062726F212100000000 PUSH1 0x0 DUP3 ADD MSTORE POP JUMP JUMPDEST PUSH1 0x0 PUSH2 0x135B PUSH1 0x1C DUP4 PUSH2 0xCF5 JUMP JUMPDEST SWAP2 POP PUSH2 0x1366 DUP3 PUSH2 0x1325 JUMP JUMPDEST PUSH1 0x20 DUP3 ADD SWAP1 POP SWAP2 SWAP1 POP JUMP JUMPDEST PUSH1 0x0 PUSH1 0x20 DUP3 ADD SWAP1 POP DUP2 DUP2 SUB PUSH1 0x0 DUP4 ADD MSTORE PUSH2 0x138A DUP2 PUSH2 0x134E JUMP JUMPDEST SWAP1 POP SWAP2 SWAP1 POP JUMP JUMPDEST PUSH1 0x0 DUP2 SWAP1 POP DUP2 PUSH1 0x0 MSTORE PUSH1 0x20 PUSH1 0x0 KECCAK256 SWAP1 POP SWAP2 SWAP1 POP JUMP JUMPDEST PUSH1 0x0 PUSH1 0x20 PUSH1 0x1F DUP4 ADD DIV SWAP1 POP SWAP2 SWAP1 POP JUMP JUMPDEST PUSH1 0x0 DUP3 DUP3 SHL SWAP1 POP SWAP3 SWAP2 POP POP JUMP JUMPDEST PUSH1 0x0 PUSH1 0x8 DUP4 MUL PUSH2 0x13F3 PUSH32 0xFFFFFFFFFFFFFFFFFFFFFFFFFFFFFFFFFFFFFFFFFFFFFFFFFFFFFFFFFFFFFFFF DUP3 PUSH2 0x13B6 JUMP JUMPDEST PUSH2 0x13FD DUP7 DUP4 PUSH2 0x13B6 JUMP JUMPDEST SWAP6 POP DUP1 NOT DUP5 AND SWAP4 POP DUP1 DUP7 AND DUP5 OR SWAP3 POP POP POP SWAP4 SWAP3 POP POP POP JUMP JUMPDEST PUSH1 0x0 DUP2 SWAP1 POP SWAP2 SWAP1 POP JUMP JUMPDEST PUSH1 0x0 PUSH2 0x143A PUSH2 0x1435 PUSH2 0x1430 DUP5 PUSH2 0xC56 JUMP JUMPDEST PUSH2 0x1415 JUMP JUMPDEST PUSH2 0xC56 JUMP JUMPDEST SWAP1 POP SWAP2 SWAP1 POP JUMP JUMPDEST PUSH1 0x0 DUP2 SWAP1 POP SWAP2 SWAP1 POP JUMP JUMPDEST PUSH2 0x1454 DUP4 PUSH2 0x141F JUMP JUMPDEST PUSH2 0x1468 PUSH2 0x1460 DUP3 PUSH2 0x1441 JUMP JUMPDEST DUP5 DUP5 SLOAD PUSH2 0x13C3 JUMP JUMPDEST DUP3 SSTORE POP POP POP POP JUMP JUMPDEST PUSH1 0x0 SWAP1 JUMP JUMPDEST PUSH2 0x147D PUSH2 0x1470 JUMP JUMPDEST PUSH2 0x1488 DUP2 DUP5 DUP5 PUSH2 0x144B JUMP JUMPDEST POP POP POP JUMP JUMPDEST JUMPDEST DUP2 DUP2 LT ISZERO PUSH2 0x14AC JUMPI PUSH2 0x14A1 PUSH1 0x0 DUP3 PUSH2 0x1475 JUMP JUMPDEST PUSH1 0x1 DUP2 ADD SWAP1 POP PUSH2 0x148E JUMP JUMPDEST POP POP JUMP JUMPDEST PUSH1 0x1F DUP3 GT ISZERO PUSH2 0x14F1 JUMPI PUSH2 0x14C2 DUP2 PUSH2 0x1391 JUMP JUMPDEST PUSH2 0x14CB DUP5 PUSH2 0x13A6 JUMP JUMPDEST DUP2 ADD PUSH1 0x20 DUP6 LT ISZERO PUSH2 0x14DA JUMPI DUP2 SWAP1 POP JUMPDEST PUSH2 0x14EE PUSH2 0x14E6 DUP6 PUSH2 0x13A6 JUMP JUMPDEST DUP4 ADD DUP3 PUSH2 0x148D JUMP JUMPDEST POP POP JUMPDEST POP POP POP JUMP JUMPDEST PUSH1 0x0 DUP3 DUP3 SHR SWAP1 POP SWAP3 SWAP2 POP POP JUMP JUMPDEST PUSH1 0x0 PUSH2 0x1514 PUSH1 0x0 NOT DUP5 PUSH1 0x8 MUL PUSH2 0x14F6 JUMP JUMPDEST NOT DUP1 DUP4 AND SWAP2 POP POP SWAP3 SWAP2 POP POP JUMP JUMPDEST PUSH1 0x0 PUSH2 0x152D DUP4 DUP4 PUSH2 0x1503 JUMP JUMPDEST SWAP2 POP DUP3 PUSH1 0x2 MUL DUP3 OR SWAP1 POP SWAP3 SWAP2 POP POP JUMP JUMPDEST PUSH2 0x1546 DUP3 PUSH2 0xCEA JUMP JUMPDEST PUSH8 0xFFFFFFFFFFFFFFFF DUP2 GT ISZERO PUSH2 0x155F JUMPI PUSH2 0x155E PUSH2 0xFCD JUMP JUMPDEST JUMPDEST PUSH2 0x1569 DUP3 SLOAD PUSH2 0x12F4 JUMP JUMPDEST PUSH2 0x1574 DUP3 DUP3 DUP6 PUSH2 0x14B0 JUMP JUMPDEST PUSH1 0x0 PUSH1 0x20 SWAP1 POP PUSH1 0x1F DUP4 GT PUSH1 0x1 DUP2 EQ PUSH2 0x15A7 JUMPI PUSH1 0x0 DUP5 ISZERO PUSH2 0x1595 JUMPI DUP3 DUP8 ADD MLOAD SWAP1 POP JUMPDEST PUSH2 0x159F DUP6 DUP3 PUSH2 0x1521 JUMP JUMPDEST DUP7 SSTORE POP PUSH2 0x1607 JUMP JUMPDEST PUSH1 0x1F NOT DUP5 AND PUSH2 0x15B5 DUP7 PUSH2 0x1391 JUMP JUMPDEST PUSH1 0x0 JUMPDEST DUP3 DUP2 LT ISZERO PUSH2 0x15DD JUMPI DUP5 DUP10 ADD MLOAD DUP3 SSTORE PUSH1 0x1 DUP3 ADD SWAP2 POP PUSH1 0x20 DUP6 ADD SWAP5 POP PUSH1 0x20 DUP2 ADD SWAP1 POP PUSH2 0x15B8 JUMP JUMPDEST DUP7 DUP4 LT ISZERO PUSH2 0x15FA JUMPI DUP5 DUP10 ADD MLOAD PUSH2 0x15F6 PUSH1 0x1F DUP10 AND DUP3 PUSH2 0x1503 JUMP JUMPDEST DUP4 SSTORE POP JUMPDEST PUSH1 0x1 PUSH1 0x2 DUP9 MUL ADD DUP9 SSTORE POP POP POP JUMPDEST POP POP POP POP POP POP JUMP JUMPDEST PUSH32 0x4E487B7100000000000000000000000000000000000000000000000000000000 PUSH1 0x0 MSTORE PUSH1 0x32 PUSH1 0x4 MSTORE PUSH1 0x24 PUSH1 0x0 REVERT JUMPDEST PUSH32 0x4E6F742070726573656E74000000000000000000000000000000000000000000 PUSH1 0x0 DUP3 ADD MSTORE POP JUMP JUMPDEST PUSH1 0x0 PUSH2 0x1674 PUSH1 0xB DUP4 PUSH2 0xCF5 JUMP JUMPDEST SWAP2 POP PUSH2 0x167F DUP3 PUSH2 0x163E JUMP JUMPDEST PUSH1 0x20 DUP3 ADD SWAP1 POP SWAP2 SWAP1 POP JUMP JUMPDEST PUSH1 0x0 PUSH1 0x20 DUP3 ADD SWAP1 POP DUP2 DUP2 SUB PUSH1 0x0 DUP4 ADD MSTORE PUSH2 0x16A3 DUP2 PUSH2 0x1667 JUMP JUMPDEST SWAP1 POP SWAP2 SWAP1 POP JUMP JUMPDEST PUSH32 0x746865726520617265206E6F206C696B6573206173736F63696174656420746F PUSH1 0x0 DUP3 ADD MSTORE PUSH32 0x2074686973207477656574000000000000000000000000000000000000000000 PUSH1 0x20 DUP3 ADD MSTORE POP JUMP JUMPDEST PUSH1 0x0 PUSH2 0x1706 PUSH1 0x2B DUP4 PUSH2 0xCF5 JUMP JUMPDEST SWAP2 POP PUSH2 0x1711 DUP3 PUSH2 0x16AA JUMP JUMPDEST PUSH1 0x40 DUP3 ADD SWAP1 POP SWAP2 SWAP1 POP JUMP JUMPDEST PUSH1 0x0 PUSH1 0x20 DUP3 ADD SWAP1 POP DUP2 DUP2 SUB PUSH1 0x0 DUP4 ADD MSTORE PUSH2 0x1735 DUP2 PUSH2 0x16F9 JUMP JUMPDEST SWAP1 POP SWAP2 SWAP1 POP JUMP JUMPDEST PUSH32 0x4E487B7100000000000000000000000000000000000000000000000000000000 PUSH1 0x0 MSTORE PUSH1 0x11 PUSH1 0x4 MSTORE PUSH1 0x24 PUSH1 0x0 REVERT JUMPDEST PUSH1 0x0 PUSH2 0x1776 DUP3 PUSH2 0xC56 JUMP JUMPDEST SWAP2 POP PUSH1 0x0 DUP3 SUB PUSH2 0x1789 JUMPI PUSH2 0x1788 PUSH2 0x173C JUMP JUMPDEST JUMPDEST PUSH1 0x1 DUP3 SUB SWAP1 POP SWAP2 SWAP1 POP JUMP JUMPDEST PUSH1 0x0 PUSH2 0x179F DUP3 PUSH2 0xC56 JUMP JUMPDEST SWAP2 POP PUSH32 0xFFFFFFFFFFFFFFFFFFFFFFFFFFFFFFFFFFFFFFFFFFFFFFFFFFFFFFFFFFFFFFFF DUP3 SUB PUSH2 0x17D1 JUMPI PUSH2 0x17D0 PUSH2 0x173C JUMP JUMPDEST JUMPDEST PUSH1 0x1 DUP3 ADD SWAP1 POP SWAP2 SWAP1 POP JUMP JUMPDEST PUSH32 0x596F7520617265206E6F7420746865206F776E65720000000000000000000000 PUSH1 0x0 DUP3 ADD MSTORE POP JUMP JUMPDEST PUSH1 0x0 PUSH2 0x1812 PUSH1 0x15 DUP4 PUSH2 0xCF5 JUMP JUMPDEST SWAP2 POP PUSH2 0x181D DUP3 PUSH2 0x17DC JUMP JUMPDEST PUSH1 0x20 DUP3 ADD SWAP1 POP SWAP2 SWAP1 POP JUMP JUMPDEST PUSH1 0x0 PUSH1 0x20 DUP3 ADD SWAP1 POP DUP2 DUP2 SUB PUSH1 0x0 DUP4 ADD MSTORE PUSH2 0x1841 DUP2 PUSH2 0x1805 JUMP JUMPDEST SWAP1 POP SWAP2 SWAP1 POP JUMP INVALID LOG2 PUSH5 0x6970667358 0x22 SLT KECCAK256 EXP 0x2B 0x4B 0x4C RETURNDATASIZE 0xCF 0xDB PUSH31 0x25AED27023101385D16276D17D3BF41EBEFFE3E1ACE1562B64736F6C634300 ADDMOD SLT STOP CALLER "
				},
				"gasEstimates": {
					"creation": {
						"codeDepositCost": "1254000",
						"executionCost": "49885",
						"totalCost": "1303885"
					},
					"external": {
						"CreateTweet(string)": "infinite",
						"Max_tweet_length()": "2537",
						"changeTweetlength(uint16)": "26949",
						"getAllTweets(address)": "infinite",
						"getTweet(uint256)": "infinite",
						"likeTweet(address,uint256)": "infinite",
						"owner()": "2586",
						"tweets(address,uint256)": "infinite",
						"unlikeTweet(address,uint256)": "infinite"
					}
				},
				"methodIdentifiers": {
					"CreateTweet(string)": "2a1f1d06",
					"Max_tweet_length()": "a1afcc46",
					"changeTweetlength(uint16)": "97213d07",
					"getAllTweets(address)": "12e7ee1c",
					"getTweet(uint256)": "c3ad5ecb",
					"likeTweet(address,uint256)": "63378216",
					"owner()": "8da5cb5b",
					"tweets(address,uint256)": "05a1b4a9",
					"unlikeTweet(address,uint256)": "3d9b569f"
				}
			},
			"storageLayout": {
				"storage": [
					{
						"astId": 18,
						"contract": "Documents/BC/NAZ-SOLIDITY/twitter.sol:twitter",
						"label": "tweets",
						"offset": 0,
						"slot": "0",
						"type": "t_mapping(t_address,t_array(t_struct(Tweet)12_storage)dyn_storage)"
					},
					{
						"astId": 21,
						"contract": "Documents/BC/NAZ-SOLIDITY/twitter.sol:twitter",
						"label": "Max_tweet_length",
						"offset": 0,
						"slot": "1",
						"type": "t_uint56"
					},
					{
						"astId": 23,
						"contract": "Documents/BC/NAZ-SOLIDITY/twitter.sol:twitter",
						"label": "owner",
						"offset": 7,
						"slot": "1",
						"type": "t_address"
					}
				],
				"types": {
					"t_address": {
						"encoding": "inplace",
						"label": "address",
						"numberOfBytes": "20"
					},
					"t_array(t_struct(Tweet)12_storage)dyn_storage": {
						"base": "t_struct(Tweet)12_storage",
						"encoding": "dynamic_array",
						"label": "struct twitter.Tweet[]",
						"numberOfBytes": "32"
					},
					"t_mapping(t_address,t_array(t_struct(Tweet)12_storage)dyn_storage)": {
						"encoding": "mapping",
						"key": "t_address",
						"label": "mapping(address => struct twitter.Tweet[])",
						"numberOfBytes": "32",
						"value": "t_array(t_struct(Tweet)12_storage)dyn_storage"
					},
					"t_string_storage": {
						"encoding": "bytes",
						"label": "string",
						"numberOfBytes": "32"
					},
					"t_struct(Tweet)12_storage": {
						"encoding": "inplace",
						"label": "struct twitter.Tweet",
						"members": [
							{
								"astId": 3,
								"contract": "Documents/BC/NAZ-SOLIDITY/twitter.sol:twitter",
								"label": "id",
								"offset": 0,
								"slot": "0",
								"type": "t_uint256"
							},
							{
								"astId": 5,
								"contract": "Documents/BC/NAZ-SOLIDITY/twitter.sol:twitter",
								"label": "author",
								"offset": 0,
								"slot": "1",
								"type": "t_address"
							},
							{
								"astId": 7,
								"contract": "Documents/BC/NAZ-SOLIDITY/twitter.sol:twitter",
								"label": "content",
								"offset": 0,
								"slot": "2",
								"type": "t_string_storage"
							},
							{
								"astId": 9,
								"contract": "Documents/BC/NAZ-SOLIDITY/twitter.sol:twitter",
								"label": "timestamp",
								"offset": 0,
								"slot": "3",
								"type": "t_uint256"
							},
							{
								"astId": 11,
								"contract": "Documents/BC/NAZ-SOLIDITY/twitter.sol:twitter",
								"label": "likes",
								"offset": 0,
								"slot": "4",
								"type": "t_uint256"
							}
						],
						"numberOfBytes": "160"
					},
					"t_uint256": {
						"encoding": "inplace",
						"label": "uint256",
						"numberOfBytes": "32"
					},
					"t_uint56": {
						"encoding": "inplace",
						"label": "uint56",
						"numberOfBytes": "7"
					}
				}
			},
			"userdoc": {
				"kind": "user",
				"methods": {},
				"version": 1
			}
		}
	}
}